:020000040800F2
:1000000000200020B9430008094400080944000802
:1000100000000000000000000000000000000000E0
:10002000000000000000000000000000094400087B
:1000300000000000000000000944000863380008C8
:10004000094400080944000809440008094400085C
:10005000094400080D4200081D4200082D42000816
:10006000094400080944000809440008094400083C
:10007000094400086D1D0008851D00088D1D00083D
:10008000A51D0008BD1D000800000000D51D0008CA
:10009000ED1D0008051E00081D1E0008094400088B
:1000A00009440008094400080944000809440008FC
:1000B0000944000800000000094400080000000096
:1000C0000023C25C0133002AFBD1581E7047000098
:1000D00002B4714649084900095649008E4402BCE1
:1000E0007047C04602B4714649084900095C49009E
:1000F0008E4402BC7047C04603B4714649084000B4
:100100004900095E49008E4403BC704703B4714640
:10011000490840004900095A49008E4403BC704711
:10012000002243088B4274D303098B425FD3030A36
:100130008B4244D3030B8B4228D3030C8B420DD349
:10014000FF22090212BA030C8B4202D312120902D7
:1001500065D0030B8B4219D300E0090AC30B8B4215
:1001600001D3CB03C01A5241830B8B4201D38B03C3
:10017000C01A5241430B8B4201D34B03C01A524168
:10018000030B8B4201D30B03C01A5241C30A8B42AB
:1001900001D3CB02C01A5241830A8B4201D38B0296
:1001A000C01A5241430A8B4201D34B02C01A52413A
:1001B000030A8B4201D30B02C01A5241CDD2C309AC
:1001C0008B4201D3CB01C01A524183098B4201D328
:1001D0008B01C01A524143098B4201D34B01C01A13
:1001E000524103098B4201D30B01C01A5241C3088B
:1001F0008B4201D3CB00C01A524183088B4201D3FA
:100200008B00C01A524143088B4201D34B00C01AE5
:100210005241411A00D20146524110467047FFE751
:1002200001B5002000F006F802BDC0460029F7D055
:1002300076E770477047C04610B5064C2378002B10
:1002400007D1054B002B02D0044800E000BF01237A
:10025000237010BDB400002000000000BC53000853
:10026000044B10B5002B03D00349044800E000BF45
:1002700010BDC04600000000B8000020BC530008BC
:1002800010B50E4C206803681B699847002801DCF4
:10029000002010BD206803685B699847DF23184081
:1002A0005828F5D10649206804F0C0FA206800F00B
:1002B000ADFF0522034B01201A80EAE7F40100207C
:1002C000D4530008DC000020F7B50E001500002410
:1002D0000190019AA3009F587B1C11D03100380077
:1002E00004F0B6F9012E05D1290038007B2D04D188
:1002F00004F026F90134E4B2EBE704F011FAF9E76F
:10030000F7BD0000F7B5050000240191019B9C4258
:1003100000D3F7BD0F4F7B2201213800FFF7D4FF38
:100320000D4E002201213000FFF7CEFF280004F01F
:1003300039FA002201213800FFF7C6FF7B22012194
:100340003000FFF7C1FF0134280004F02BFAE4B2BB
:10035000DCE7C046F457000804580008F8B50D0063
:10036000060014001F001100012A11D904F0E8F85A
:10037000280004F017FA00250A4BAA00D058431CA5
:1003800009D004F0C7F86B000135F852EDB2F3E77D
:1003900004F0C6F9ECE730006142614104F0C0F9B5
:1003A000F8BDC046E4570008002370B504000120E2
:1003B0001D00084E40429A009259511C08D0590025
:1003C000095B8D4201D20D0010000133DBB2F2E770
:1003D00070BDC046E457000870B5012464420500B2
:1003E00000232000084E9A009259511C0AD059004F
:1003F000495BA14201DB002C01DA10000CB2013391
:10040000DBB2F0E770BDC046E457000800239A0055
:100410008258013201D00133F9E798B270470022C7
:10042000F0B59300C3181E68741C0DD00C0025682D
:100430006F1C07D00434AE42F9D15C6810C301349C
:10044000FBD1013A0132ECE7F0BD012307B55B4275
:10045000009169460193FFF7E2FF07BDF7B52F4B07
:10046000002418000093FFF7D1FF2D4B1880800067
:10047000019304F043FA2B4B1860019B1B889C42AC
:1004800032DB294C70222000284904F0F3FB284D70
:1004900020002900FFF7C3FF20002649FFF7BFFF18
:1004A00025492000FFF7BBFF2800FFF7AFFF0C2511
:1004B0004543224B1880224B28001D6004F01EFA91
:1004C0000121204B2A004942186004F07EFB0121E3
:1004D0000F2004F0BDF800210F2004F021F90F21B6
:1004E0002000FFF7B2FFF7BD009BA700DE59731C89
:1004F000C7D0702001F052FDB1B20A000023050000
:1005000000F09AFF9621074B28001B68C901FD5097
:10051000013401F069F8E4B2AFE7C04614580008AE
:10052000F0010020F80100206C0100202058000894
:1005300004580008F4570008E4570008E4000020BD
:10054000E0000020E800002070B506000024A300B1
:100550009D596B1C0DD0280003F0B2FF002805D177
:1005600029003000FFF771FF013CE4B20134E4B22E
:10057000EDE770BD002310B59A005258541C04D00A
:10058000824204D00133DBB2F6E7002010BD012027
:10059000FCE700002E4B10B51B681A2812D807285C
:1005A00001D82C491EE008381228FAD8FFF790FD30
:1005B0002A2C2E3032343638F9F93E40424446482F
:1005C0004A4C4E000200C03A092AEAD8C1382249F2
:1005D000082807D8FFF786FD050A0C0E101214260E
:1005E00028001E49180004F00BF910BD1C49F9E75A
:1005F0001C49F7E71C49F5E71C49F3E71C49F1E7FB
:100600001C49EFE71C49EDE71C49EBE71C49E9E70A
:100610001C49E7E71C49E5E71C49E3E71C49E1E71A
:100620001C49DFE71C49DDE71C49DBE71C49D9E72A
:100630001C49D7E71C49D5E71C49D3E71C49D1E73A
:100640001C49CFE71C49CDE71C49CBE71C49C9E74A
:10065000F401002052540008E0530008E45300085D
:10066000E8530008EC530008F0530008F453000866
:10067000F8530008FC530008005400080454000814
:10068000085400080D5400081254000817540008BC
:100690001C54000821540008265400082A5400085D
:1006A0002E54000832540008365400083A5400080A
:1006B0003E54000842540008465400084A540008BA
:1006C0004E54000870B505000024A3005859084E88
:1006D000431C08D0FFF75EFF01340649306804F080
:1006E0008FF8E4B2F1E73068034904F09FF870BD79
:1006F000F4010020FF5B0008FA5B000870B50025DC
:10070000114BAA00D458631C1CD0104B1B68A34289
:1007100015D00F4B1B68A34211D0200003F0D0FE70
:1007200000280CD0200003F0F5FE06002000FFF7A3
:1007300031FF084B0849186832B204F084F80135DB
:10074000EDB2DDE770BDC0466C0100200400002062
:10075000EC010020F401002056540008002330B5BD
:10076000012419000D4D64429A00525901320CD0F7
:100770005A00125A8A4200DD11B2A24201DB002C5B
:1007800000DA14B20133DBB2EEE70C1B0F220021BA
:10079000E00FA2424841C0B230BDC046E457000855
:1007A000002230B5012413000B4D644291004959D9
:1007B00001310CD05100095A994200DD0BB2A1421F
:1007C00001DB002C00DA0CB20132D2B2EEE7181BCA
:1007D00042425041C0B230BDE457000870B5274CCA
:1007E00027498022200004F045FA2000FFF7ACFEE4
:1007F0002100C320FFF7BEFE00282AD02100C6201A
:10080000FFF7B8FE002824D0C32003F083FE85B292
:10081000C62003F07FFE1B4C80B2072D1AD88542FC
:1008200029D21F2827D91849206803F0E9FFC320DF
:10083000FFF7B0FE1549206803F0E2FFC620FFF77E
:10084000A9FE1349206803F0DBFF1249206803F07A
:10085000EDFF70BD07280ED81F2D0CD90A4920685E
:1008600003F0CEFFC620FFF795FE0849206803F08D
:10087000C7FFC320E3E70849E4E7C046EC000020D7
:100880006C010020F401002060540008735400083B
:1008900095540008FF5B0008B1540008F0B593B010
:1008A00003F07CFFCC4ACD4C136827880133050048
:1008B0001360002F00D076E0FA21C94A890013683E
:1008C000C31AC84800908B422BD31560C64DC74E43
:1008D0002B6832689B009858C549C64A5B5810601F
:1008E000C54A0191C549136003F08AFF2B68019A3C
:1008F0009B009858FFF74EFE2B6832689B00985873
:10090000BF4903F093FF2B6832689B00985800F0B2
:100910007DFC009A2B68128801332B60934200D330
:100920002F60002511E0A5420AD0A700C05900F0B1
:100930006FFE3368D859002802D003689B6A984735
:100940000134E4B226E00135EDB2009B1B889D42E4
:1009500027DAA64EAF003368D85903681B69984759
:100960000028F0DD3368D85903685B699847C0B246
:100970000A28E8D19E4BA348F958A34B19609E4B17
:100980001960FFF762FD3368DA599A4B1A60012348
:1009900023800024009B30681B889C42C3DB03F04B
:1009A000B7FF13B0F0BD781E0828FAD8FFF7AEFBEA
:1009B00009002E007900C40002015201A801C401FF
:1009C00055028C4D9149286803F030FF9049286802
:1009D00003F016FF8B48FFF775FE002201218D48BA
:1009E000FFF772FC002201218B48FFF76DFC00220B
:1009F0008A481100FFF768FC0223002223807A4B0B
:100A0000874928681A6003F011FFCAE7764D814FC5
:100A10002B689B00DE59731C17D10122380011008E
:100A2000FFF752FC002201217B48FFF74DFC714B80
:100A30007C49186803F0FAFE032323800023FA2080
:100A400040002B6003F0AEFEABE714210A20FFF755
:100A500059FC002201213800FFF736FC3000C82283
:100A6000642102ABFFF77AFC02A8FFF777FE0028AB
:100A70000AD06D4C2378002B06D15E4B6B49186869
:100A800003F0D4FE0123237002A8FFF78DFC0C2194
:100A90002B68674A594312685218166090600133F8
:100AA000CDE7514D5C4F2B689B00DE59594B0093AD
:100AB000731C0ED1002201210098FFF705FC0022D3
:100AC00001213800FFF700FC0423238000232B6062
:100AD00067E714210A20FFF715FC00220121009886
:100AE000FFF7F2FB3000C822022102ABFFF736FC11
:100AF00002A8FFF755FE00280AD04B4C2378012BA3
:100B000006D83C4B4949186803F090FE0223237035
:100B100002A8FFF761FC474A454B11880C224A4363
:100B20001B68D2189A4201D12B68B8E799688142B4
:100B300000D15E600C33F5E72E4E3F49306803F07C
:100B400075FE00253B4B30681B889D420EDB3B4900
:100B500003F06CFE344B1B78002B03D0384930680F
:100B600003F064FEFFF73AFE052332E00C22304B1F
:100B70006A431F680135BF1832492A0003F063FE3B
:100B80003868FFF707FD3049306803F039FE7868B0
:100B9000FFF700FD2D49306803F032FEB868FFF71B
:100BA000F9FC306803F030FEEDB2CBE7286803684B
:100BB0005B6998470F4D286803681B6998470028B0
:100BC000F4DC2349286803F031FE286800F01EFB9E
:100BD00006232380E5E6C046D0000020DC0000208C
:100BE000D4000020F0010020D8000020F8010020EF
:100BF00014580008F4010020EC010020E85400081B
:100C0000F55400086C010020040000201B5500086A
:100C10002B55000804580008F4570008E457000852
:100C2000365500084F550008DE00002068550008C2
:100C3000E8000020E4000020CD550008065600081A
:100C400012560008E9550008F5550008FE55000841
:100C50003D560008C54E306803681B699847002858
:100C600000DC9EE6306803685B699847C0B256288E
:100C700037D04C2828D020D8202813D808280AD8C4
:100C8000002800D18DE6BA49306803F0CFFD306806
:100C900000F0BCFA68E7B74B0938C0B2C340DB07C5
:100CA000F1D57EE64328EED1B349306803F0BEFDAE
:100CB000306800F0ABFA08231BE0762811D0E2D8A8
:100CC0006328F1D06C28DED1AC49306803F0AEFD6A
:100CD000AB49306803F0AAFD306800F097FA0923A9
:100CE00007E0A849306803F0A1FD306800F08EFAF3
:100CF000072300222380A44B1A60A44B1D6050E6FA
:100D0000FFF7BEFA002800D04BE6FA219F4A89007F
:100D10001368EB1A8B4200D243E61560FFF7EEFC36
:100D2000924C206803F070FD206800F06FFA964A3C
:100D300013680133136034E6FFF7A2FA041E00D0F3
:100D40002FE6924A1368EB1A632B00D829E68E4EE1
:100D5000156033680F221D00DFB21540134229D100
:100D60008B4C01212368186803F072FC2368012171
:100D7000586803F06DFC23680121D86803F068FC13
:100D800023680121186903F063FC236829001868AF
:100D900003F0C6FC2368C821586803F0D1FB236820
:100DA000C821D86803F0CCFB29002368186903F038
:100DB000B7FC16E0022D23D1754DC8212B681868A9
:100DC00003F0BEFB2B682100586803F0A9FC2B68D8
:100DD0002100D86803F0A4FC2B68C821186903F02F
:100DE000AFFBFF0708D5FFF789FC604C206803F0D4
:100DF0000BFD206800F00AFA336801333360D0E558
:100E0000042D12D1624D01002B68186803F088FC94
:100E10002B682100586803F083FC2B682100D868F8
:100E200003F07EFC21002B68C0E7052DD9D1584D79
:100E300001002B68186803F00BFC2B682100586830
:100E400003F006FC2B682100D86803F001FC2B6836
:100E50002100186903F0FCFBC3E7444E30680368C7
:100E60001B69984700280FDD306803685B69984765
:100E7000C0B258282AD0502831D01DD83E2831D0B1
:100E800047281FD03C2823D0FA21404AC9001368C4
:100E9000EB1A8B4200D284E53B4C156023683D4A37
:100EA0005B089B009D5830686B1C2AD13A4903F0BF
:100EB000BDFC0023236074E5702810D0782805D08D
:100EC0006728E1D10122354B1A70DDE73449DBE6B2
:100ED0002D4A13681900481E81415B1A13600022D5
:100EE0002E4BF1E7284A2B491368013313605B0846
:100EF0009B0059580023013100D11360274A137019
:100F0000C2E7284903F07CFC2800FFF743FB264991
:100F1000306803F075FC23682449DB0700D52449B9
:100F2000306803F083FC3068012600F06FF901217E
:100F3000280003F08DFB310023682800994303F05B
:100F4000EFFB642003F02EFC0021280003F080FB5F
:100F500021682800314003F0E3FB104B1B78002B85
:100F600000D11EE523689B19A4E7C046F4010020C8
:100F7000A457000813008000B35600080557000866
:100F80004D57000898560008D8000020D4000020D3
:100F9000E80000206C010020B45700080000002089
:100FA000D4530008C7570008D0570008D857000886
:100FB000DD57000800207047020003006A326933E1
:100FC00011781B78994209D03F211378C018137803
:100FD000293001330B4000781370704701204042E4
:100FE000FBE7000002000300693210786A331B78C7
:100FF0004030C01A044B184004D5402301385B42EE
:10100000184301307047C0463F00008072B60200AE
:10101000002369326A301370037062B670470300B0
:1010200002006A33693219781278914204D01B7831
:10103000C01829300078704701204042FBE7012AA0
:1010400002D1016000207047022A05D0032AF9D09E
:10105000002AF7D10260F5E70B680360F2E710B5EC
:101060000368984710BD0000F0B5264F0D003B689F
:1010700089B08B4236D0244C200000F01FFB2000AA
:10108000002D3BD000F0A8FD032301266B43019007
:10109000039303990198FFF743F81C4A029090428A
:1010A00022D83100200000F0EDFC0022200002993F
:1010B00000F0BEFD00222000110000F0E1FD002341
:1010C0000593134B20000493124B04A90793124B72
:1010D000069300F005FF069B002B0AD1200000F0CC
:1010E000C9FB3D6009B0F0BD019B76005B08019330
:1010F000CFE704A9032208009847EFE700F091FC2E
:10110000EFE7C046FC01002020020020FEFF0000A7
:10111000111400085F1000083F100008010010B50E
:1011200028310978C369026A890705D59A620121C5
:10113000408A03F08DFA10BD9A61F8E7030010B5FC
:1011400028331978008A8907C90F023103F080FA21
:1011500010BD0000030070B528331B7804000E009A
:101160005B070FD50B4D00290DD02B68834209D0AA
:10117000FFF7E4FF0122084B52421A60074B03328B
:101180001A602C6070BD2868A042FBD1FFF7C6FF33
:101190002E60F7E714020020080000200C02002057
:1011A00070B50D4D04002B680020A34213D10B4BEA
:1011B00019680029FCD1230028331B785B0702D56E
:1011C0002000FFF7C7FF0021054B200029601960B0
:1011D000FFF74AFF012070BD1C020020180200200A
:1011E0001402002010B50400024B0360FFF7D8FF83
:1011F000200010BD9858000810B50400FFF7F2FF5A
:101200002000702100F0CEFE200010BDF8B5164F72
:1012100004003B680020A3421CD0144E3268002A10
:10122000FCD1002B02D01800FFF7BAFF01250122E4
:101230000F4B52421D600F4B2000616A1A60FFF78E
:1012400013FF230028331B783C605B0703D40A4B51
:101250001C600120F8BD3368002BFAD12900200062
:10126000FFF778FFF5E7C0461C02002018020020B7
:101270000C0200200800002014020020F8B5050030
:101280000823040028352A78144E13432B70336842
:10129000002BFCD14B008021890019432A78104B88
:1012A0001960920701D5C9431960002703220D4B2D
:1012B00020001F600C4B616A1A60FFF7D5FE2B7887
:1012C0005B0703D539002000FFF744FF08222B7885
:1012D000012093432B703460F8BDC04618020020F3
:1012E000080200200402002010020020184A70B5F5
:1012F0001168030001391160002910DC154C2168C8
:10130000481C206009290DDC1348DC6901681B6A50
:10131000CD0705D5A361032349080160136070BDA3
:10132000A362F8E7012111601A002832127814072D
:1013300003D50022094B1A60F1E71928EFDD5207A7
:10134000F7D5074A10689842F3D1FFF703FFF0E79B
:1013500010020020040200200802002018020020D1
:101360001C020020274AF0B51368013B1360002BD4
:1013700036DC4369816906001B6928360B405B1A1D
:1013800059424B41204C37782168BD07B446DBB247
:10139000ED0F4E1C0AD19D4206D10023053111608C
:1013A0001A4A236013601BE00123FBE707291CDDB9
:1013B0009D4211D001003F2569310B7801332B404C
:1013C00005006A352D789D420BD00D7840190F4DE0
:1013D00029302D6805700B7001231360023B2360D8
:1013E000F0BD012361463B43F5E7084E30684008F5
:1013F0009D4201D0802318430131032330602160D6
:10140000D0E7C0460C0200200800002000020020A7
:10141000074B10B51A68002A02D01868FFF7A2FF20
:10142000044B1A68002A02D01868FFF75FFF10BD4E
:101430001402002018020020F7B50D00FA21040064
:1014400000208900A1606349EEB2019360602160D1
:10145000258262821A2E57D85F4FB300E021DF59F0
:10146000C900294039433F063F0F042F5AD9606114
:101470000F200140594889000958A161D1B21A29A9
:1014800058D8554F8B00E020DF59C000104038433A
:101490003F063B0F0027042B02D8514F9B00DF591A
:1014A000E7610F27384023004C4F8000C059283394
:1014B0002062A81A0093030058425841019B800003
:1014C0005B0018430F23002718408446009867628A
:1014D0000078984363461843009B187020006930D9
:1014E00007704770E7661A2936D8E0200F233A4F75
:1014F0008900C0001040CA5910430009184002F08A
:1015000065F900283DD1FEE7C0212940C0290DD151
:10151000C92E0BD83F2333492B409B0059582E4FDF
:101520008B009BE72E48BF003858A0E7002161617F
:101530000F319FE7C0201040C02809D1C92907D822
:101540003F23284813409B001858234F83009AE7F5
:101550000020E0610F30A6E7C0270F201740C02F02
:10156000CDD1C929CBD8813F1E4B1740BF00FF58B2
:10157000E0231949BF00DB0013407A5813431B09CD
:10158000BCE7009B1B785B0721D41A2E09D8124BAD
:10159000B600F0580006000F02F018F9002816D126
:1015A000FEE7C0230F202B40C02BF5D1C92EF3D866
:1015B000813B0C492B409B005B58E021064A9B0075
:1015C0009B58C9000D401D432D092840E4E7200029
:1015D000FEBDC046985800088C5B0008FC58000807
:1015E00018000020645B0008030010B52833416236
:1015F0001B7804005B0708D4FFF790FD2000FFF77D
:101600009DFD2000FFF702FE10BDFFF787FDFBE701
:1016100010B5FFF7C5FD10BD10B50248024900F036
:1016200013FC10BD200200200010004010B502483D
:1016300000F06AFA10BDC0462002002003000A49EB
:1016400010B50868C318EFF30882934205D90C223D
:101650000120064B40421A6010BD054A054C121B82
:101660009342F4D20B60F7E70C00002088050020BD
:101670000020002000040000FEE7000016220120E8
:10168000014B40421A6070478805002001207047D6
:10169000836810B50400002B05D003220100984791
:1016A0000023A360E36010BD836810B50400002B25
:1016B00002D0032201009847200010BD70B501251B
:1016C000022104000369DA68AA43DA60DA688A430F
:1016D000DA60DA6849188A43DA60DA6804318A43E2
:1016E000DA60DA6808318A43DA60401801F08EFC6B
:1016F00022691368AB431360230055344E331D70C9
:101700005D709D70DD701D715D719D71257070BD86
:101710004B1E032B02D8880004387047012040423A
:10172000FBE700000139435C002B05D0054B022983
:1017300005D90120404204E00329FAD8024B4900B0
:10174000C85A7047D4580008CC58000801390329FA
:1017500002D8034B585C704701204042FBE7C0466B
:10176000C85800080139032902D8034B585670475E
:1017700001204042FBE7C046C4580008F7B504000A
:101780000E00FFF7C5FF0500431C00D1FEE7310046
:101790002000FFF7DBFF03000190013300D1FEE7DB
:1017A00031002000FFF7BEFF013000D1FEE7B71D7A
:1017B0003F01E719BB68002B07D0019B2269DB437F
:1017C0001361D36801990B43D360731E5A00A218AA
:1017D00090880C2810D8FEF785FC44441313130797
:1017E0000713133E3E3E1F002000E35C290010302B
:1017F000002B02D001F0E4FFF7BD01F041FFFBE751
:101800002000E35C29001030002B02D001F098FF8B
:10181000F2E701F0E5FEEFE720002900103001F0CB
:1018200033FF31002000FFF79DFF0100060020007C
:10183000FFF778FF25692B6A1843BB682862002BE5
:10184000DAD031002000FFF781FFC3432B61EB6842
:101850001843E860D0E720002900103001F014FFA1
:10186000CAE723691B68DB07C6D42000103001F0EB
:10187000A1FBC1E7836E10B50400002B0AD0022241
:10188000036952421A61D96803320A43DA601030A0
:1018900001F090FB20000121FFF770FF20000221E2
:1018A000FFF76CFF20000321FFF768FF04212000F1
:1018B000FFF764FF10BD0000F0B591B004000E000A
:1018C0001F000192FFF724FF0500431C00D1FEE733
:1018D0004D4B0993236900281BD15B6B01220A93AE
:1018E00000230692721E0392019A0B930D930E939E
:1018F0000C930F930593079308930C2A2AD8100092
:10190000FEF7F0FB43112142494B5456585C5A6391
:101910006500042801D19B6BE0E7082801D1DB6B4F
:10192000DCE71B6CDAE77600A6197388002B08D079
:10193000002320002A007380103009A9099301F0C8
:10194000E5FC11B0F0BD10232A00099309A9E018A5
:1019500001F0DCFC039B019A5B00E3189A807B1C7E
:10196000EFD0380002F01EFAA8424CD1274D3800C3
:10197000290002F02FF82900380002F058F8039BE4
:10198000C002C00FE054DCE7202320002A000993A6
:1019900009A91030DCE73023F7E7602320002A0094
:1019A00009A91030099301F0D7FCD3E77023F5E7BC
:1019B0005023EAE74023E8E70223059320002A00AA
:1019C00005A9103001F056FDC4E70A23F5E723000E
:1019D00010332A00180005A9029301F04BFD3100D5
:1019E0002000FFF7BFFE0C22431E5B00E3189A8025
:1019F00002230100200005930693FFF789FE05A945
:101A000002000298DEE7FEE7FFFF000054590008DD
:101A1000013903000020032902D849005B18988887
:101A200070470121026910B5D36860308B43D360E1
:101A3000FFF72EFE10BD10B50121103001F0FCFAA9
:101A400010BD0369186801231840704770B5050080
:101A50000C00FFF7F6FF00280FD10126E3683342A0
:101A60000CD0E3682800B343E360FFF7E4FF0223F0
:101A70005B422361E3681E43E66070BD2800FFF708
:101A8000DAFFFAE70B0010B50169013B8B62FFF743
:101A9000DDFF10BD134A03000020934221D08022B5
:101AA0000130D20593421CD00F4A0130934218D026
:101AB0000E4A0130934214D00D4A0130934210D0A7
:101AC0000C4A013093420CD00B4A0130934208D0AB
:101AD0000A4A9B185A4253415842094B1840094B35
:101AE000C0187047002C0140000400400010004066
:101AF00000200040004001400044014000B8FEBF0B
:101B00000800FFFFFFFF000070B504000069FFF749
:101B1000C1FF05002000103002F044F80022084BFD
:101B2000AD00EA5026002500E260B0356036B542CF
:101B300004D0103D2800FFF7B7FDF8E7200070BD86
:101B4000D0020020F7B5040008000D00FFF7A2FF47
:101B50001F4FB84200D1FEE72369002B00D0FEE7FB
:101B600021001C4A80000C31815022002C3225615A
:101B700026001370203223636363A363E36323644B
:101B80006364A3641370537003221036E36530005E
:101B9000E460A26501F084FF23002500B0336035C6
:101BA00001932800FFF774FD019B10359D42F8D189
:101BB000002323606360A3606361A36123626362A7
:101BC00080333000E761A36201F038FBF7BDC04607
:101BD000FFFF0000D002002010B586B004001022E4
:101BE000002102A802F0F1FF002302A801A901933D
:101BF00001F00EF9206902F0D0F8012815D1059CFA
:101C000001F0F6F8C023DB009C4206D007D8802202
:101C1000064BD2002340934205D1400003E0E0236D
:101C2000DB009C42F9D006B010BDFEE7FFFEFFFFCF
:101C300070B505000C00012A0CD0022A18D0230030
:101C40005A1E93412969E41A2800CC62EC61FFF71F
:101C5000FDFE70BDFFF7C0FF0849FEF761FA604363
:101C60002B69010C99620131FEF75AFA0400E6E78C
:101C7000FFF7B2FF2100FEF753FAF1E740420F00F1
:101C8000036970B59E6A05000C000136012A04D074
:101C9000022A0DD02B695C6270BDFFF79DFF0749DA
:101CA000FEF73EFA31006043FEF73AFA0400F1E72E
:101CB000FFF792FF21007143F6E7C04640420F0054
:101CC000F7B5060014001D00FFF722FD3369070079
:101CD0009A6A411C00D1FEE701320192822D30D078
:101CE0001CD8102D08D8002D08D00121A940D86A91
:101CF00001390130604320E0812D16D03169194A45
:101D0000CB6A934203D10132944200D11C00002FD0
:101D10001DD14C633000FFF799FEF7BD832DEDD147
:101D2000D86A64210130604307E03000FFF754FFB8
:101D30000D49FEF7F5F960430199FEF7F1F904004A
:101D4000DCE73000FFF748FF01996143F5E7042F16
:101D500001D18C63DEE7082F01D1CC63DAE70C6494
:101D6000D8E7C046FFFF000040420F00044B10B50B
:101D70001868002802D0043001F073F910BDC04685
:101D8000D002002010B5FFF7F1FF10BD044B10B5D5
:101D90005868002802D0043001F063F910BDC04635
:101DA000D0020020044B10B59868002802D00430FF
:101DB00001F057F910BDC046D0020020044B10B509
:101DC000D868002802D0043001F04BF910BDC0469D
:101DD000D0020020044B10B51869002802D004304E
:101DE00001F03FF910BDC046D0020020044B10B5F1
:101DF0005869002802D0043001F033F910BDC04604
:101E0000D0020020044B10B59869002802D004309D
:101E100001F027F910BDC046D0020020044B10B5D8
:101E2000D869002802D0043001F01BF910BDC0466B
:101E3000D002002010B50C220021040002F0C5FEE3
:101E400000232000E36010BDF8B505000700040082
:101E50000E006035B03728001035FFF7EBFFBD42AC
:101E6000F9D10023310020002361FFF76BFE200031
:101E7000F8BD70B50C220D000021040002F0A5FE93
:101E80000023E360AB68002B07D00222290020006A
:101E90009847EB68E360AB68A360200070BD70B545
:101EA00086B06E46040002AD2800FFF7E2FF29006D
:101EB0000822300002F0DEFE2B00220003CA03C31A
:101EC000230006CE06C3049BA268A360059B049270
:101ED000E2682800E3600592FFF7E6FB06B070BDFC
:101EE00070B50400A36E0D006030002B02D0FFF728
:101EF000D6FF70BDFFF7D3FFAB68002BF9D00222ED
:101F0000236952421A61D96803320A43DA60F0E762
:101F1000836810B5002B01D103F04CFAC3689847D1
:101F200010BD10B5002800D1FEE701F0B7FD006834
:101F3000836E002B02D06030FFF7EAFF10BD10B5B2
:101F4000FFF7EFFF10BD030010B5002800D1FEE73A
:101F5000007F0138072812D8FEF7C4F804161112C2
:101F6000111111140124180001F098FD06340068C5
:101F7000240100198368002B01D0FFF7C9FF10BDB1
:101F80000324F0E70424EEE70224ECE710B5FFF7A2
:101F9000DAFF10BD10B5FFF7D6FF10BD10B502F087
:101FA000ADFC10BD10B502F0B3FC10BD70470000D1
:101FB00070B50500FA200D4B80001978FEF7B0F8D7
:101FC0000B4C01002068FEF7ABF800F09FFB04000B
:101FD0000120002C09D1032D07D802382200290046
:101FE00000F05EFB2000034B1D6070BD1000002060
:101FF00048000020140000201023064A10B5116884
:1020000000200B431360FFF7D3FFFFF7CFFF002043
:1020100010BDC04600200240034A044B11681B78E3
:102020005B1813607047C046F002002010000020CB
:10203000014B18687047C046F00200200422036874
:1020400070B599680400114201D1002070BD9968F3
:10205000114206D09A68920703D4102299680A4365
:102060009A60FFF7E5FF0426050023689B6833426A
:10207000EBD0FFF7DDFF401B0228F6D923689B68F1
:102080003342F2D010230120A26B1343A363E36B0E
:102090000343E363DAE70321036870B59A68040039
:1020A0000A40012A01D0002070BD1968114202D1F6
:1020B000DA681204F7D505229D681540012D1CD160
:1020C0009968033A0A439A6003221A60FFF7B0FF47
:1020D000060023689B682B42E5D0FFF7A9FF801B11
:1020E0000228F6D923689B682B42F2D01023A26BFA
:1020F0001343A363E36B2B4306E01023A26B13434C
:10210000A3630123E26B13430120E363CCE70000E8
:10211000002373B503210193036804009A680A4001
:10212000012A07D11968114201D0002076BDDA6872
:102130001204FAD499681B4A114209D01023A26BE9
:102140001343A3630123E26B13430120E363EDE731
:10215000012299680A439A60134B14491868FDF7E5
:10216000DFFF0190019B002B17D1FFF761FF0125D5
:10217000060023681B682B42D7D1FFF759FF801B4D
:102180000228F6D923681B682B42F2D11023A26BD8
:102190001343A363E36B2B43D7E7019B013B0193FD
:1021A000E0E7C046170000804800002040420F00D2
:1021B00070B5041E00D190E0836B002B05D10200A6
:1021C0003432C363137001F0AFFEA36BDB0600D59E
:1021D00085E0226893685B0700D580E0A16B424BE5
:1021E00019400633FF330B430321A36393680B406D
:1021F000012B05D1116819420ED1D3681B040BD4F1
:102200001821D3688B43A1680B43D36013696168BD
:102210009B009B080B431361D36834490B40D36088
:10222000237E607E9B03C0030343A17EE0680343DB
:1022300048030343601DC07F40000343A06A013888
:10224000451EA84100030343206902384542684106
:1022500080000343E07E012804D100292BD1802196
:1022600049020B43C220E169FF30814202D0206A5B
:1022700001430B438020D16840051943D160E16AD6
:10228000814202D0481E062807D8072550692940F8
:10229000A8435061506901435161D26814490A4012
:1022A0009A4210D100200323E063A26B9A43023BC1
:1022B0001343A36370BD2021A56B2943A163E16B88
:1022C0000843E063CEE71223A26B9A43023B134319
:1022D000A3630123E26B1343E3630120EAE71023C6
:1022E000A26B1343A363F8E7FDFEFFFF1902FEFF95
:1022F000E7FF3F8370B504000125002811D00223B9
:10230000826B13438363FFF799FE051E33D12000D0
:10231000FFF7C1FE0500012805D101250023343453
:102320002370280070BD0123A3639F212368200030
:102330005A688A435A601960DA6810490A400721CE
:10234000DA601A69920092081A615A698A435A61DE
:102350001A6A0B490A401A629A6A0A49D20CD204D4
:102360009A62094A13680B40136001F0FDFD0023D7
:10237000E363A363D2E70128D7D1CEE700023E830F
:1023800000F000F0FFFF3FFE08270140036870B532
:102390009B68040002205B071AD4250034352B7893
:1023A000012B15D001232B70637E012B11D1A26B61
:1023B0000B4B00201A4080235B0013431C22A363B5
:1023C000E063287023681A609968183A0A439A6093
:1023D00070BD2000FFF79CFE0028E8D0F8E7C0465B
:1023E000FEF0FFFF70B5060034363378040002209B
:1023F000012B12D0012520003570FFF71FFE0028A9
:1024000009D12000FFF747FE002804D1A36B034A3F
:1024100013401D43A5630023337070BDFEFEFFFF14
:10242000F8B5456904000E00082D0DD003680120A1
:10243000DB680C25034207D02023A26B34341343FE
:10244000636000232370F8BDFFF7F2FD07002368E7
:102450001A68154222D08022A16B92000A43A2631F
:10246000C022D9681201114213D1A27E002A10D1D4
:102470001A6812070DD59A68520727D40C215A689A
:102480008A435A60A16B174A11400432FF320A4353
:10249000A263227E002A22D00020D4E7721CD7D06B
:1024A000002E0DD12A0023681B681A401D42CED190
:1024B0000423A16B34340B43636003202270C2E712
:1024C000FFF7B6FDC01BB042ECD8C0E72022A16BDD
:1024D0000A43A2630122E16B0A43E263D9E70C22BB
:1024E0001A60D9E7FEFEFFFF0368186C7047000012
:1024F000F7B5002204000192343422780300C56A43
:102500000220012A34D0013820701A6896687607B4
:1025100059D40B684F681E00BC462D4F9840103EA2
:10252000BC453BD0976A3843906280204005854285
:102530000FD0013D062D0CD907205569896805404B
:10254000A94206D055690140854355615569294323
:102550005161022E09D81F4A1168102B0CD0112B83
:1025600007D080235B040B431360002000232370FB
:10257000FEBD8023DB03F6E780231B040B431360BF
:10258000154B16491868FDF7CBFD0A234343019309
:10259000019B002BE9D0019B013BF8E7916A814345
:1025A0009162022EE1D80B4A1168102B09D0113B21
:1025B000581E83410A485B4203400A481B180B40DF
:1025C000D2E7094BFBE72022996B0A439A63CDE7D8
:1025D00001100000082701404800002040420F0081
:1025E000000040FFFFFFBFFFFFFF7FFF806B7047D2
:1025F000F8B506003436337804000220012B45D0AC
:1026000001230321337023689A680A40012A05D107
:10261000196811423BD1DA68120438D4A16B1F4A01
:1026200011400632FF320A430321A263DD68DA68F3
:102630008A43DA608022996812060A439A60FFF79B
:10264000F7FC070023689A68002A0DDB0321DA688B
:102650000D401543DD6001230020A26B8A43134324
:10266000A3630023337011E0FFF7E2FCC01B0228D4
:10267000E8D923689B68002BE4DA1223A26B0120BF
:102680009A43023B1343A36300233370F8BD202316
:10269000A26B01201343A363E3E7C046FDFEFFFFE7
:1026A00010B5FF2403220B0021000240D20091400C
:1026B0009B012340C943934000280ADBC0240B4AF6
:1026C000800880008018A40002590A401343035177
:1026D00010BD0F2210400838054A8008800080187D
:1026E000C26911401943C161F2E7C04600E100E050
:1026F00000ED00E0002805DB1F2318401E3B83404F
:10270000014A13607047C04600E100E08022431E8A
:102710005204012093420DD2C021074A074853605A
:10272000036A09061B021B0A0B43036200200723EE
:10273000906013607047C04610E000E000ED00E0DC
:10274000704710B5FFF7FCFF10BD704710B50400CF
:102750000120002C1ED0637DDAB2002B03D12000B3
:102760002275FFF7F2FF0223227963752368002A9E
:1027700011D1013A60211A619A6800208A43E16808
:102780000A4380219A609A688A4321690A439A60C1
:102790000123637510BDA268ECE710B504000120A9
:1027A000002C0DD02379DAB2002B03D12000627106
:1027B00001F02EFB022300202371013B20612371D5
:1027C00010BD10B504000120002C08D00223200009
:1027D000237101F079FB002020616071207110BD30
:1027E000012230B515008D4004682368AB43236097
:1027F0000271002030BD13B514000022019202685E
:102800000192019A002906D1083211190191019A09
:102810000020136016BD1432F7E730B51400022211
:10282000457903001000012D0ED01A713C32A240F0
:102830001D682868904306C90A43A24002432A60E3
:102840000020012258711A7130BD022230B544793E
:1028500003001000012C15D0013804008C401A71BF
:102860001A6815682C431460002907D13C241168AC
:102870002140A14202D1516808435060012200204A
:102880001A71587130BD0000044B10B55A691042DE
:1028900002D0586101F0A4FC10BDC0460004014004
:1028A000F0B5040085B0002845D00368DB072FD4BD
:1028B00023689B0700D581E023681B0700D5BCE097
:1028C00023685B0700D5DFE02368DB061AD5626961
:1028D0000423B44D012A00D048E1696B02270B4361
:1028E0006B636B6B1A436A63FFF7A2FB06006B6BAB
:1028F0003B4200D133E1F8216A6BA3698A43DB00D4
:1029000013436B63236A002B00D057E100202AE0B9
:102910000C22A44D6B681340042B06D06B68134047
:10292000082B0AD16B68DB0307D52B689B03BFD547
:102930006368002BBCD1012015E06368012B14D122
:1029400080232A685B0213432B60FFF771FB80270B
:102950000600BF022B683B42AAD1FFF769FB801B30
:102960006428F7D9032005B0F0BD002B16D12B68E1
:102970008D4A802713402B602B688C4ABF0213407E
:102980002B60FFF755FB06002B683B4200D18FE719
:10299000FFF74EFB801B6428F6D9E3E7052B05D132
:1029A00080232A68DB0213432B60C9E72B687E4A29
:1029B00013402B602B687D4A1340C5E70C22794DEC
:1029C0006B68134206D06B681340082B10D16B68FC
:1029D000DB030DD42B689B0702D5E368012BAAD13A
:1029E000F8212A6823698A43DB0013432B6063E7DD
:1029F000E2680123002A0FD02A68022713432B60C4
:102A0000FFF716FB06002B683B42E9D1FFF710FBEE
:102A1000801B0228F7D9A5E72A6802279A432A6073
:102A2000FFF706FB06002B683B4200D144E7FFF7A7
:102A3000FFFA801B0228F6D994E7E2690123594D79
:102A4000002A10D06A6A022713436B62FFF7F0FA7C
:102A500006006B6A3B4200D032E7FFF7E9FA801BC1
:102A60000228F6D97EE76A6A02279A436A62FFF76C
:102A7000DFFA06006B6A3B4200D121E7FFF7D8FA84
:102A8000801B0228F6D96DE780220021454D5205B2
:102A9000EB690091134208D1EB691343EB61EB69D9
:102AA00013400393039B012300938027404E7F0034
:102AB00033683B4215D0A368012B22D12A6A134305
:102AC0002B62FFF7B5FA022706002B6A3B423FD084
:102AD000009B012B00D0F7E6EB69364A1340EB610F
:102AE000F2E633683B433360FFF7A2FA01903368A4
:102AF0003B42E0D1FFF79CFA019BC01A6428F6D94B
:102B000030E70122002B14D12B6A022793432B625A
:102B10002B6A033293432B62FFF78AFA06002B6A73
:102B20003B42D5D0FFF784FA234B801B9842F6D95D
:102B300018E7052B05D1296A013B0B432B622B6A51
:102B4000BDE72B6A934304222B622B6A9343B7E7BA
:102B5000FFF76EFA184B801B9842B6D902E7FFF7D1
:102B600067FA801B022800D8C1E6FBE6053203D1D4
:102B70006A6B9A436A63BEE66A6B022713430122BB
:102B80006B636B6B93436B63FFF752FA06006B6BDF
:102B90003B4200D1B6E6FFF74BFA801B0228F6D97C
:102BA000E0E6C04600100240FFFFFEFFFFFFFBFF14
:102BB00000700040FFFFFFEF881300000C21344D30
:102BC0006A680A40082A47D0324A022B32D12B6861
:102BD000802713402B60FFF72BFA0600BF042B68F9
:102BE0003B4221D10F22EB6A80269343E26AB6046E
:102BF0001343EB62616AA36A6A680B4326490A4081
:102C000013436B6080232A685B0413432B60FFF738
:102C10000FFA04002B68334200D077E6FFF708FA7A
:102C2000001B0228F6D99DE6FFF702FA801B022856
:102C3000D5D997E62B68802613402B60FFF7F8F96B
:102C40000400B6042B68334200D15FE6FFF7F0F9C9
:102C5000001B0228F6D985E6012B00D16BE6802205
:102C60006868616A5202EB6A02408A4200D062E6FA
:102C70000F221340E26A934200D05CE6F0239B03EC
:102C80001840A36AC01A431E9841C0B26BE6C04602
:102C900000100240FFFFFFFEFFFFC2FF0C2270B5D5
:102CA0000C4D6B681A40082A11D10F200A499A0C62
:102CB00002408C5CEA6ADB0307D508490240895C64
:102CC0000748FDF72DFA604370BD0648FBE704484E
:102CD000FAE7C04600100240EA580008DA58000837
:102CE00000127A0000093D00F7B504000E0000282C
:102CF00001D10120FEBD0122374D2B6813408B42CC
:102D00001CD32268930722D4D2072FD401232A6828
:102D10001A40B24251D82368304D5B0754D4FFF7B4
:102D2000BDFF6B682E4A1B061B0FD35C2D49D84094
:102D300008600020FFF73CF90020DBE72B68934395
:102D40000B432B602B6813408B42D2D1D9E7234928
:102D5000530704D5E0234868DB0003434B60F020B1
:102D60004B688343A06803434B60CDE71B4F626809
:102D70003B68012A19D19B03BBD503217B688B4398
:102D800013437B60FFF754F901900C237A681A40D3
:102D900063689B009A42B9D0FFF74AF9019BC01AB9
:102DA000114B9842F1D90320A4E7022A02D19B01DA
:102DB000E3D49EE79B07E0D49BE72A689A432A6006
:102DC0002A681A42A7D094E76B68084A1340E26861
:102DD00013436B60A3E7C04600200240001002408E
:102DE000445900084800002088130000FFF8FFFF46
:102DF000044B054A5B6805495B055B0FCB5C1068BB
:102E0000D840704700100240480000203C5900089C
:102E1000072310B503240360094B5A68224042601F
:102E20005A68ED3422408260E0225B68D200134091
:102E30000122C360034B1B6813400B6010BDC046EA
:102E400000100240002002400122036A70B5934343
:102E50000362036A44688569723295430A681543C0
:102E6000022293438A6813430E4A904208D00E4AC6
:102E7000904205D00D4A904202D00D4A90420BD1AB
:102E800008229343CA688E69134304229343094A74
:102E900022404C69344314434A684460856142636C
:102EA000036270BD002C014000400140004401401D
:102EB00000480140FFFCFFFF036A184A70B5134049
:102EC00003627323056A4268C4699C430B681C4310
:102ED000134B1D408B681B022B43124DA8420ED191
:102EE000114D1D40CB681B022B43104D2B40104D44
:102EF0004E6915408A69324312012A4308E00D4D9C
:102F0000A842F4D00C4DA842F1D00C4DA842EED00E
:102F100042604A68C461C263036270BDFFFEFFFF86
:102F2000FFFDFFFF002C0140FFF7FFFFFFFBFFFF4E
:102F3000FFCFFFFF00400140004401400048014036
:102F4000036A144A30B513400362046A124D4368A1
:102F5000C2692A400D682D021543104A14408A6840
:102F6000120322430E4CA04208D00E4CA04205D0C2
:102F70000D4CA04202D00D4CA04204D10C4C1C4080
:102F80004B699B01234343604B68C5610364026244
:102F900030BDC046FFEFFFFFFF8CFFFFFFDFFFFFED
:102FA000002C014000400140004401400048014025
:102FB000FFBFFFFF01000300012010B53D310C7879
:102FC000E2B2844219D1001808701B680C498B4288
:102FD00009D08021C9058B4205D00A498B4202D015
:102FE00009498B420AD107219A680A40062A03D070
:102FF000012219680A431A60002010BD1968F9E718
:10300000002C014000040040004001400368084AD1
:10301000196A114207D1196A064A114203D10121E6
:103020001A688A431A6001233D30037000207047FC
:103030001111000044040000020030B502243C32AB
:10304000157803002000012D08D018003D300470D1
:103050001B685961012303700020107030BD704758
:1030600070470222036810B51969040011420ED09E
:10307000D96811420BD0053A1A61043202779B6974
:103080009B0700D179E0FEF785FF00232377042218
:1030900023681969114210D0D96811420DD0093A3C
:1030A0001A61073222779A69C0239B0020001A42D6
:1030B00069D0FEF76FFF0023237708222368196980
:1030C00011420ED0D96811420BD0113A1A610D325B
:1030D0002277DB6920009B075BD0FEF75BFF0023B4
:1030E0002377102223681969114210D0D968114240
:1030F0000DD0213A1A6119322277DA69C0239B0078
:1031000020001A424BD0FEF745FF0023237701220F
:1031100023681969114207D0D968114204D0033AD3
:1031200020001A61FEF70BFF802223681969114203
:1031300008D0D968114205D0023AFF3A20001A613E
:1031400000F043FB402223681969114207D0D96877
:10315000114204D0813A20001A61FFF781FF20223A
:1031600023681969114207D0D968114204D0413A45
:1031700020001A6100F028FB10BDFEF707FF2000B9
:10318000FFF76DFF81E7FEF701FF2000FFF767FF04
:1031900091E7FEF7FBFE2000FFF761FF9FE7FEF7D8
:1031A000F5FE2000FFF75BFFAFE7000010B51C4CF9
:1031B0000368A04206D08022D205904202D0194A6C
:1031C000904208D1702293434A681343164A1A402A
:1031D000CB6813430BE0154A9042F7D0144A904253
:1031E000F4D0144A9042F1D0134A9042EED080229B
:1031F00093434A69134303608B68C3620B6883621D
:10320000A04208D00A4B984205D00A4B984202D0FF
:10321000094B984201D10B6903630123436110BD3F
:10322000002C014000040040FFFCFFFF0020004094
:1032300000400140004401400048014070B50400D6
:103240000120002C21D025003D352B78DAB2002B4F
:1032500005D123003C3320001A7000F079FD0223D1
:103260002B702068211DFFF7A1FF22000123002001
:10327000463213704534083A137053709370D3700C
:1032800013715371937123702B7070BD1022036AF8
:1032900070B593430362056A164C42688369234004
:1032A0000C6824021C4320239D438B681B012B4385
:1032B000114DA8420FD18025AB431E00CB68403D85
:1032C0001B013343AB430D4D4E6915408A693243B0
:1032D00092002A4308E00A4DA842F4D0094DA842C2
:1032E000F1D0094DA842EED042604A688461826301
:1032F000036270BDFF8CFFFF002C0140FFF3FFFF56
:1033000000400140004401400048014070B5040005
:103310003C34257803000220012D09D0082A17D05B
:1033200007D8002A0BD0042A0ED0012000232370D6
:1033300070BD0C2AF9D11868FFF702FE02E0186888
:10334000FFF782FD0020F1E71868FFF79FFFF9E71C
:103350001868FFF7B1FDF5E7F8B506003C36150033
:10336000327803000C000220012A0AD001383070A4
:10337000082D3FD006D8002D19D0042D29D00023C8
:103380003370F8BD0C2DFAD11D682800FFF7D8FD69
:103390008023EA691B011343EB61EB691D4A13406B
:1033A000EB612369EA691B021343EB610FE01D68BF
:1033B0002800FFF749FD0823AA6913430422AB61E3
:1033C000AB699343AB61AB6922691343AB610020E6
:1033D000D5E71D682800FFF759FF8023AA691B0164
:1033E0001343AB61AB690B4A1340AB612369AA6914
:1033F0001B02EAE71F683800FFF75EFD0422FB6945
:103400001D43FD61FB699343FB61FB692269134323
:10341000FB61DCE7FFFBFFFFF0B501261500026A48
:10342000114FB24302628269046AB84217D0802702
:10343000FF05B84213D00D4FB84210D00C4FB84220
:103440000DD03243F025AA431B010F352B40134307
:103450000A2294431140214383610162F0BD032697
:10346000B2432A43EEE7C046002C0140000400406E
:10347000004001400300F7B53C3301900C0019787F
:103480000220012918D001381870002A15D1019B9B
:1034900062681E682168E3683000FFF7BDFF0C22F8
:1034A000B3699343B361B369A2681343B361002066
:1034B0000023019D3C352B70FEBD042A24D110272A
:1034C000019B22681B6860681E6AE168BE431E6239
:1034D0009F69354D00022F403843344F090738406B
:1034E000090C0143A0201E6A1201864302403243A8
:1034F00099611A629A692E490A409A61A26899698B
:1035000012020A439A61D2E7082A25D10325019BBA
:10351000284F1B6822681E6A60683E40E1681E6290
:10352000DF690901AF433843F027B8430F3739400B
:103530001E6A01432048D9613040A0260C211202A6
:103540003601324002431A62DA698A43DA61DA6983
:10355000A1680A43DA61AAE70C2AA9D1019B174F97
:103560001B6822681E6A60683E40E1681E62DF696F
:103570000D4D00022F4038430C4F09073840090C0D
:103580001E6A01430E4812030640A02000020240BA
:103590003243D9611A62DA6905490A40DA61A268E0
:1035A000D9691202D5E7C046FFFCFFFFFF0FFFFFFE
:1035B000FFF3FFFFFFFEFFFFFFF5FFFFFFEFFFFF42
:1035C000FF5FFFFF1F2310B5012419408C408A4084
:1035D000036AA3430362036A1A43026210BD000038
:1035E0000300020010B5002905D13E3201201478F5
:1035F00084420AD010BD042901D13F32F6E70829E0
:1036000001D04132F2E74032F0E7022010701C682E
:1036100001222000FFF7D6FF144B9C4220D0144B10
:103620009C421DD0134B9C4210D0134B9C420DD09A
:103630008023DB059C4202D0104B9C420BD1072219
:10364000A3681340062B06D10020D3E78023626CC9
:103650001B02134363640123226813432360F3E7CF
:103660008023626C1B0213436364E8E7002C014073
:103670000040014000440140004801400004004077
:1036800010B5FFF7ADFF10BD70B5030005000029B0
:103690002AD11C003E352E784234F0B22278D2B2C4
:1036A000012E37D1012A1ED102222A7022701C68F5
:1036B00001222000FFF786FF174B9C4209D0802390
:1036C000DB059C4205D0154B9C4202D0144B9C421A
:1036D00004D10722A3681340062B03D001232268DC
:1036E00013432360002070BD042905D11C003F3521
:1036F0002E784334F0B2D1E7082905D01C004135BB
:103700002E784534F0B2C9E71C0040352E78443499
:10371000F0B2C3E70120E6E7002C014000040040BE
:10372000004001401F2310B5042419408C408A40FA
:10373000036AA3430362036A1A43026210BD0000D6
:103740000300020010B5002905D14232012014788F
:1037500084420AD010BD042901D14332F6E708297A
:1037600001D04532F2E74432F0E7022010701C68C5
:1037700004222000FFF7D6FF8023626C1B02134354
:1037800063640C4B9C4209D08023DB059C4205D02E
:10379000094B9C4202D0094B9C4204D10722A368EA
:1037A0001340062B03D0012322681343236000201B
:1037B000D0E7C046002C014000040040004001401A
:1037C00010B5FFF7BDFF10BD704770477FB50023F0
:1037D000042810D81B4B80215A69FCF783FC030F87
:1037E00018212A0089020A435A615B690B40019340
:1037F000019B9023DB05180007B000BDC9020A43F6
:103800005A615B690B400293029B0F4BF3E709037C
:103810000A435A615B690B400393039B0B4BEAE736
:1038200049030A435A615B690B400493049B084BAC
:10383000E1E7C9030A435A615B690B400593059BA5
:10384000044BD8E70010024000040048000800487C
:10385000000C00480014004810B5FEF7E9FB10BD4D
:10386000704710B5FEF7D8FBFEF76BFFFFF7F8FFC8
:1038700010BD704780210E4B4905DA6984B00A43B8
:10388000DA61DA690A4001210192019A9A690A43D0
:103890009A619A690A400292029A5A693F310A4330
:1038A0005A615B690B400393039B04B07047C046A9
:1038B0000010024010B5FFF7DDFFFEF79DFBFFF79C
:1038C000D8FF00F04FFD0248FEF740FF10BDC04694
:1038D0002C000020431C04D100207047834204D0F8
:1038E0000C310B685A1CF9D1F6E70120F5E700000E
:1038F000F7B506000C00431C00D1FEE70F210200C3
:10390000334B0A40000992000840D558FFF75EFF8C
:1039100029000322030069434A438068D7431043C8
:1039200098600720204003282CD8FCF7DBFB422CB2
:1039300002366004420E01924A009446019A7F2AA0
:103940000ED0360711D50F265A6A10002A0A5243A4
:1039500052435643B04306000198424316435E6209
:1039600060461A683A40024310E01A6A0F261000B7
:103970000A004A435643B0430600019842431643A7
:103980001E62EDE7FEE71A683A400A431A60220712
:1039900012D55A682A435A6002E0186802431A6036
:1039A000A406A40F012C0AD0022C0DD0DA683A40EC
:1039B00008E01A683A40F2E75A68AA43EBE7DA6887
:1039C0003A400A43DA60F7BDDA6849003A40F8E75E
:1039D000FC58000810B5431C07D110BD834203D129
:1039E0008968FFF785FFF8E70C310B685A1CF5D1A1
:1039F000FEE70B685A1C01D1002002E0834201D18E
:103A0000486870470C31F4E7002310B5421C02D01F
:103A1000FFF7EFFF0300180010BD03000868421C09
:103A200002D0984201D1886870470C31F6E710B592
:103A3000431C01D0FFF7F1FF10BD00000121114B25
:103A400011481A680A431A605A6802405A601A6894
:103A50000E4802401A601A680D4802401A605A68FF
:103A60000C4802400F205A60DA6A8243DA621A6B0D
:103A7000094802401A635A6B8A435A63BF221204F0
:103A80009A607047001002400CB8FFF8FFFFF6FE86
:103A9000FFFFFBFFFFFFC0FFACFEFFFF04387047D6
:103AA0000368384A88B093420BD18021364B090114
:103AB0009A690A439A619B690B400093009B08B086
:103AC00070478022D205934209D101212E4BDA6939
:103AD0000A43DA61DB690B400193019BEFE72B4A54
:103AE000934209D10221284BDA690A43DA61DB6982
:103AF0000B400293029BE2E7254A934209D1102131
:103B0000214BDA690A43DA61DB690B400393039BBB
:103B1000D5E7204A93420AD180211B4B4900DA693C
:103B20000A43DA61DB690B400493049BC7E71A4A36
:103B300093420AD18021144B49029A690A439A613F
:103B40009B690B400593059BB9E7144A93420AD140
:103B500080210D4B89029A690A439A619B690B4047
:103B60000693069BABE70E4A9342A8D18021064BF1
:103B7000C9029A690A439A619B690B400793079BA4
:103B80009DE7C046002C01400010024000040040A8
:103B9000001000400020004000400140004401406F
:103BA0000048014003681F4A934205D11E4A1F493D
:103BB00093690B40936108E08022D205934205D1BE
:103BC0000121194AD3698B43D3617047184A934244
:103BD00003D1154A0221D369F5E7164A934203D16E
:103BE000114A1021D369EEE7134A934204D10E4AD9
:103BF0001249D3690B40E7E7114A934203D10A4ABD
:103C000010499369D5E7104A934203D1064A0F49F8
:103C10009369CEE70E4A9342D7D1034A0D4993697F
:103C2000C7E7C046002C014000100240FFF7FFFF2D
:103C3000000400400010004000200040FFFEFFFF95
:103C400000400140FFFFFEFF00440140FFFFFDFF79
:103C500000480140FFFFFBFF0300421C21D0164A31
:103C6000904221D011D8154A90421FD008D8802206
:103C7000D20590421CD0124A1020934210D0FEE789
:103C8000104A132093420BD0F9E70F4A904211D00B
:103C90000E4A1620934203D00D4A02389342EED1C9
:103CA00070470E204042FBE70D20F9E71120F7E7AF
:103CB0000F20F5E71520F3E7002C0140001000402D
:103CC0000004004000200040004401400048014042
:103CD000004001400300421C21D0164A904221D0EE
:103CE00011D8154A90421FD008D88022D2059042A0
:103CF0001CD0124A1020934210D0FEE7104A132025
:103D000093420BD0F9E70F4A904211D00E4A162089
:103D1000934203D00D4A02389342EED170470E20F1
:103D20004042FBE70E20F9E71120F7E70F20F5E707
:103D30001520F3E7002C0140001000400004004073
:103D40000020004000440140004801400040014084
:103D5000F8B50400FFF7A4FE2068FFF77DFFE26CD2
:103D6000A16CFEF79DFC2068FFF776FFFEF7C2FC12
:103D700027683800FFF7AEFF05003800FFF76CFF3B
:103D8000854209D02800E26CA16CFEF789FC20680E
:103D9000FFF7A0FFFEF7AEFCF8BD0130431E9841CF
:103DA000C0B2704710B50649FFF741FE0003C00ED0
:103DB000431E032B00D9FEE78000043810BDC04627
:103DC0005459000810B50449FFF731FE0003C00E36
:103DD000122800D9FEE710BDE05A0008034BC318B3
:103DE000022B00D9FEE7024BC0187047FFEFFFFF20
:103DF0000FF0FFFF10B50549FFF719FE0003C00ED5
:103E0000012800D0FEE7002010BDC046C85A0008B7
:103E100007B50A4B02689A4209D18021084B8905EF
:103E2000DA690A43DA61DB690B400193019B054BB8
:103E300005491868FFF7CEFD07BDC0460074004075
:103E4000001002404C000020C85A000870B5040061
:103E500088B00D0016000021142203A800F0B5FE62
:103E60000822002101A800F0B0FE20001449FFF74D
:103E7000CBFD0390002821D02000FFF7BBFF0028D6
:103E80001CD1012E0BD000222B00110003A8FEF73D
:103E9000B2FC011E12D103A8FEF7D7FC0EE0094BBD
:103EA00003A81C60FEF779FC021E07D10190029066
:103EB00001A903A8FEF7B1FC0028E4D008B070BD4A
:103EC000C85A00084C000020084B02689A420CD1E6
:103ED0008022074B920519690A431A611A6905493C
:103EE0000A401A61DA690A40DA61704700740040DA
:103EF00000100240FFFFFFDF10B50A4986B0040042
:103F0000FFF782FD019000280AD02000FFF772FF22
:103F1000011E05D101A8FEF763FC01A8FEF751FCC4
:103F200006B010BDC85A000807B50B4B02689A428C
:103F300009D18021094B89009A690A439A619B69DA
:103F40000B400193019B064B1868C30402D405493A
:103F5000FFF740FD07BDC0460024014000100240AD
:103F60004C000020E05A0008084B02689A420CD12D
:103F70008022074B9200D9680A43DA60DA68054963
:103F80000A40DA609A690A409A6170470024014049
:103F900000100240FFFDFFFFF0B599B04022040081
:103FA0000E0008A8002100F010FE0C22002105A838
:103FB00000F00BFE02AB9F1D00233B800493E30443
:103FC0006ED5404B9C426BD83F4B20000893FFF7C7
:103FD00005FF0723050001931023082E06D0083B98
:103FE0000A2E03D01033062E00D0002380221206A2
:103FF000099204220D92C2220A930023FF320F92EB
:10400000A53AFF3A02A95218D377019A0B9313925B
:1040100015AA0C930E931093129316931493137086
:104020002A4B08A81C60FEF7C3F8002847D1059565
:10403000122D44D801230693019B05A908A80793D4
:10404000FEF756FA00283AD108A8FEF7D1FA002860
:1040500035D108A8FEF79AF9002830D10A2108A81E
:10406000FEF7DEF900282AD108A8FEF7BFFA80057E
:1040700004D508A8FEF738FA80B2388008A8FEF701
:10408000B1F900281BD108A8FEF734F9002816D191
:104090000F4A104913680B401360388880B20FE054
:1040A0000D492000FFF7B0FC04A908902000FFF79D
:1040B00089FE0222089B05000192002B8CD1002072
:1040C00019B0F0BD03100000002401404C00002096
:1040D00008270140FFFF3FFEE05A0008F0B5234EDD
:1040E00085B001913100039302920400FFF78CFC2C
:1040F000FDF7D0FC1E4F8500EB59002B0ED1B020F0
:10410000FDF74CFF310000902000FFF77DFC01001F
:104110000098FDF799FEEB59009A1A60144B310094
:104120005B5920001F68FFF782FC0503ED0E290094
:104130003800FDF76DFC0600052805D02300052298
:1041400029003800FDF7B8FB022238000199FDF77D
:104150006FFD29003800039B029AFDF7B1FD052E83
:1041600002D03800FDF786FB05B0F0BD54590008B9
:10417000D0020020F7B5134B060019000193FFF79A
:1041800043FCFDF787FC104F8400E359002B0DD151
:10419000B020FDF703FF019905003000FFF734FC64
:1041A00001002800FDF750FEE3591D603B591C68D3
:1041B000002C06D02000FDF7A7FCB0212000FDF761
:1041C000F1FEF7BD54590008D002002010B50C22B2
:1041D0000021040000F0F9FC0023E36010BD0000A2
:1041E000002310B501280BD114225A43064B101D91
:1041F000C0188168002902D09B181B69984710BD20
:1042000001334008DBB2EDE7F402002010B50120D5
:10421000FEF73AFB0220FEF737FB10BD10B5042075
:10422000FEF732FB0820FEF72FFB10BD70B50C2403
:104230001025A8B2013CFEF727FB6D00002CF8D139
:1042400070BD0000F8B505252E4F2F4C38002570A5
:10425000FFF7BCFF2D4E25753000FFF7B7FF230099
:10426000013528332A481D70FFF7B0FF2300294885
:104270003C331D70FFF7AAFF230001355033264859
:104280001D706037FFF7A2FF24483D706036FFF7CE
:104290009DFF23483570FFF799FF230021488C3399
:1042A0001D70FFF793FF23001F48A0331D70FFF719
:1042B0008DFF23001D48B4331D70FFF787FF2300D7
:1042C0001B48C8331D70FFF781FF23001948DC33FA
:1042D0001D70FFF77BFF23002600F03316481D708A
:1042E000FF36FFF773FF15487571FFF76FFF14482E
:1042F0007576FFF76BFF962312485B00E554FFF7D6
:1043000065FFF8BDF8020020F40200200C03002035
:104310002003002034030020480300205C03002019
:10432000700300208403002098030020AC030020C9
:10433000C0030020D4030020E8030020FC03002079
:10434000100400202404002010B5044C143C201D4F
:10435000FDF7AAF9024B9C42F8D110BD34040020AD
:10436000F402002070B5102690B02C22002105A880
:1043700000F02BFC32000021684600F026FCA02350
:10438000022401259B0304A80494079508960C9425
:104390000E93FEF785FA002800D0FEE7072302906F
:1043A00003902900684600930194FEF79DFC0028C5
:1043B00000D0FEE710B070BD0D488546FFF73EFB0C
:1043C0000C480D490D4A002302E0D458C450043370
:1043D000C4188C42F9D30A4A0A4C002301E0136046
:1043E0000432A242FBD300F01FFC00F076FAFEE795
:1043F0000020002000000020B40000204C5C0008D9
:10440000B400002090050020FEE70000FF23F0B577
:10441000050002001D40092D16D8E021254CAD00F5
:104420002D59C9000840284303401A2B24D9C02520
:104430000540C02D01D1C92B31D91300CA3B022B35
:1044400035D81D4BD0181EE0C0260640C02EF4D132
:10445000C92DF2D807003F21E024164D0F40BF00C0
:104460007F59E4002040384303401A2B0CD81349ED
:104470009B00CB58204003E0104C9B001B59084088
:104480001843431CD9D0F0BD0640C02ED5D1C92B4E
:10449000D3D8014089004959084B8900E9E73F23F7
:1044A00003409B001B59054D9B005B59E7E701202A
:1044B0004042E8E7645B0008370F00008C5B0008AF
:1044C000C022030002400120C02A0AD0002206496F
:1044D000DBB290000858984204D001320A2AF8D181
:1044E000002070470120FCE7645B0008914208D07F
:1044F00008D90123891A8B40984209D30130C8405A
:10450000013870470028FCD00130521A9040F7E77C
:104510000020F6E710B5FFF779FF0023421C09D011
:10452000054C2168FFF738FD044B21681A68FFF736
:10453000DDFF0300180010BD5C00002060000020BB
:10454000F7B5C3B205003A4A01911A2B0BD9C02224
:104550000240C02A35D1C92B33D83F233549034007
:104560009B00334A5B58E0249B009B58E4002C409E
:104570001C43631C25D020002F49FFF7ABF92F4FB8
:1045800000281FD00F2223092D4913409B005858A3
:10459000224006008C46D640012100250E4206D15D
:1045A0000D0095402A00024360460D001A500C226F
:1045B00039680198FFF79AFF2A0001002000FFF7F1
:1045C00045FCF7BD20001F49FFF784F9061E1DD0EA
:1045D0000F2123090B401A489B001D5821402E0033
:1045E0000122CE40164202D18A402A431A50164B6D
:1045F00039681D6801982A00FFF778FF1349020007
:1046000009682000EBB2FFF769FDDAE70121280015
:1046100000F01EF8396808220198FFF767FF3100A3
:104620007F2800D90121280000F07AF8C9E7C046A8
:104630008C5B0008645B0008C85A00085800002022
:104640003404002054590008540000205000002079
:10465000F7B5C3B2040001911A2B29D8E0222B49E7
:104660009B005C58D20002401443631C41D00F26CB
:1046700025093540264FAD00EB592640F340DB07B6
:104680000DD520002349FFF725F9002823D020006D
:10469000FFF732FC0122B2407B5993437B51019BCF
:1046A000052B31D81800FBF71DFD202B2527292DC0
:1046B000C0220240C02A1CD1C92B1AD83F23164958
:1046C00003409B005B58E021104A9B009B58C900A7
:1046D0000C401C43C9E720001049FFF7FBF80028F5
:1046E000D8D02000FFF746FDD4E700212000FFF7D7
:1046F000FFF8F7BD1021F9E72021F7E70321F5E7DF
:104700000121F3E70921F1E7FEE7C0468C5B0008D1
:1047100034040020C85A0008645B0008545900089B
:10472000C3B210B51A2B17D8E022184C9B00D20048
:10473000024018591043030600221B0F042B02D815
:10474000134A9B009A580F24124B20408000C358F4
:10475000002918D0936110BDC0220240C02A0ED19A
:10476000C92B0CD83F230C4C03409B001B59E02461
:10477000064A9B009B58E40020401843DBE70120D9
:1047800000224042DFE79362E5E7C0468C5B000809
:1047900018000020FC580008645B000810B5FFF703
:1047A0005BF810BD70B5041E09D0FFF755F8050081
:1047B00000F0A1F8FFF750F8401BA042F8D370BDFD
:1047C000F8B505000F0016000024B44201D1200006
:1047D000F8BD2B682800395D1B6898470028F6D083
:1047E0000134F2E770B505000C00081E07D0FBF796
:1047F00067FC2B680200210028005B68984770BDA9
:1048000010B5FFF7EFFF10BD10B50249FFF7EAFF43
:1048100010BDC046F85B000870B50400FFF7E2FF6A
:1048200005002000FFF7F0FF401970BD10B5FFF73D
:10483000F3FF10BD10B51400022802D903685B68AD
:104840009847200010BD0EB403B503AA02CA019216
:1048500000F06CF902B008BC03B0184710B50400B2
:10486000FFF79CFFE060236820005B699847002801
:1048700008DAFFF793FFE368C01AA3689842F2D3FF
:104880000120404210BDF8B506000F0015000024BD
:10489000AC4201D12000F8BD3000FFF7DFFF002857
:1048A000F8DB38550134F3E7F7B50F0016001D00AB
:1048B0001C1E01900BD000240198FFF7CFFF0028A9
:1048C00005DBB84203D030550134A542F4D12000B5
:1048D000FEBD10B500F00BF810BD10B500E000BF34
:1048E000FBF7BCFDFBF7DAFF00F006F8FAE710B5BE
:1048F000FEF7E0FF10BD70477047000010B5034B96
:104900000100186800F030F810BDC04664000020B7
:1049100010B5034B0100186800F0B6F910BDC04691
:104920006400002070B50F4E0D00316804000029AE
:1049300002D100F053F930602900200000F04EF958
:10494000431C03D101256D42280070BD0323C51C03
:104950009D43A842F8D0291A200000F03FF9013009
:10496000F2D1EFE7480400200323F7B5CD1C9D43A7
:10497000083506000C2D34D20C25A94233D830005E
:1049800000F06CF8344F3B681C00002C2FD129003C
:104990003000FFF7C7FF0400431C58D13C682100DA
:1049A000002949D1002C4CD023683000E318019332
:1049B00000F014F9019B834243D123683000ED1AC3
:1049C0002900FFF7AFFF01303BD023685B1923605C
:1049D0003B68002B3DD05A68A24230D100225A6079
:1049E00012E0002DC9DA0C2333600020FEBD2168DF
:1049F000491B1ED40B2917D962192560A34211D176
:104A00003A60636811605360300000F02FF82000B6
:104A100007220B30231D9043C21A9842E6D01B1A7E
:104A2000A350E3E75A60ECE76268A342D7D13A604B
:104A3000EAE723006468A8E70C004968B0E71300C0
:104A4000C7E70C233000336000F010F8CDE70560B5
:104A5000DAE75B60FFDEC0464C04002010B5024878
:104A600000F006F910BDC0468C05002010B50248C4
:104A700000F0FFF810BDC0468C050020F7B5060019
:104A80000C001500002905D11100FFF76DFF04008F
:104A90002000FEBD002A03D100F0F6F80024F7E75D
:104AA00000F03CF90700854202D84308AB42EFD33F
:104AB00029003000FFF758FF01900028EED02A00AF
:104AC000BD4200D93A002100019800F0D3F821003E
:104AD000300000F0D9F8019CDAE70000F0B50E00D4
:104AE0008021114C8900A54404AF03910093390043
:104AF000130003AA050000F025F8041E11D00200DF
:104B000031002800039B00F07BF80390BC4203D0E7
:104B10002100280000F0B8F8039885239B009D44ED
:104B2000F0BD01204042F8E7ECFDFFFF10B5044C5A
:104B300013000A0001002068FFF7D0FF10BDC04637
:104B40006400002070B514000D001A0021689AB0AE
:104B5000002D1AD0002918D0C1236E46DB00B38186
:104B600000950495002918DB0123029105916946FF
:104B70005B42CB811E9B00F039F900280FDB00223D
:104B8000009B20601A7004980AE0A22369469B00EB
:104B90008B81002100910491E6E78B2303600020C4
:104BA0001AB070BD10B5884206D800239A4208D0CA
:104BB000CC5CC4540133F9E78B189842F5D2013A22
:104BC00000D210BD8B5C8354F9E703008218934236
:104BD00000D1704719700133F9E70000002370B568
:104BE000064D040008002B60FCF728FD431C03D190
:104BF0002B68002B00D0236070BDC04688050020C4
:104C000070B50400080011001A000023054D2B6048
:104C1000FFF710FE431C03D12B68002B00D023604C
:104C200070BDC0468805002070B500260C4C0D4DA7
:104C3000641BA410A64209D1002600F0BFFB0A4C59
:104C40000A4D641BA410A64205D170BDB300EB58F9
:104C500098470136EEE7B300EB5898470136F2E784
:104C6000305C0008305C0008405C0008305C0008E4
:104C700070477047002310B59A4200D110BDCC5C3C
:104C8000C4540133F8E7000070B505000C1E10D0C5
:104C9000043C2368002B00DAE4182800FFF7DEFE4E
:104CA0001D4A1368002B05D1636014602800FFF7CC
:104CB000DDFE70BDA34208D9206821188B42F3D1D4
:104CC00019685B6809182160EEE71A005B68002B21
:104CD00001D0A342F9D911685018A0420BD1206825
:104CE0000918501811608342E0D118685B684118B8
:104CF00011605360DAE7A04202D90C232B60D5E79C
:104D0000206821188B4203D119685B68091821605B
:104D100063605460CAE7C0464C0400200B1F1B6848
:104D2000181F002B01DA0B58C0187047F0B58E68B9
:104D300085B01F000C000B6802900392BE4230D871
:104D40000C21625E9021C9000A4228D0032021690B
:104D50005B1A0193636943430198DD0FED187B1CD7
:104D60001B186D10AB4200D91D00520528D5290033
:104D70000298FFF7F9FD061E2CD0019A2169FFF772
:104D800079FFA289184B1A4080231343A381019B0A
:104D90002661F61826603E006561ED1AA560BE42E8
:104DA00000D93E00320003992068FFF7FBFE002087
:104DB000A3689B1BA36023689B19236005B0F0BD0B
:104DC0002A000298FFF75AFE061EE0D121690298D8
:104DD000FFF75AFF0C230120029A40421360A28978
:104DE00034331343A381E9E77FFBFFFFF0B5A1B0A4
:104DF00003901D008B890F0016001B0611D50B694F
:104E0000002B0ED14021FFF7AFFD3860386100283C
:104E100005D10C23039A136001204042CFE04023C8
:104E20007B61002308AC6361203363761033A37683
:104E3000079535002B78002B01D0252B48D1AB1BD3
:104E40000593B5420BD0320039000398FFF76EFF8F
:104E5000013000D1AEE06369059A9B1863612B783D
:104E6000002B00D1A6E0012200235242626004A977
:104E7000543252186E1C2360E360A3601370A36564
:104E8000544B052218003178059300F037FA751C51
:104E900000281FD12268D30604D5532304A95B1828
:104EA00020211970130704D5532304A95B182B2163
:104EB000197033782A2B16D0350000210A20E368B8
:104EC0002A786E1C303A092A50D9002911D117E0EE
:104ED0000135AFE7059B2268C01A012383401343C5
:104EE0002E002360CCE7079B191D1B680791002B40
:104EF00001DB0B9304E05B42E36002231343236076
:104F00002B782E2B0CD16B782A2B34D1079B0235B2
:104F10001A1D1B680792002B01DA01235B420993DB
:104F20002D4E03223000297800F0E8F9002806D041
:104F30004023801B83402268013513432360297876
:104F4000062226486E1C217600F0D8F9002838D0B9
:104F5000234B002B22D10722079B073393430833AF
:104F600007936369049A9B18636162E743433500C2
:104F700001219B18A4E700230A2019000135636072
:104F80002A786E1C303A092A03D9002BC8D009911F
:104F9000C6E74143350001238918F1E707AA0092CB
:104FA00021003A000F4B039800E000BF0490049BDF
:104FB0000133D6D1BB890D985B0600D52CE721B013
:104FC000F0BD07AA009221003A00064B039800F0BA
:104FD0007BF8EBE7FB5B0008015C0008055C000860
:104FE000000000002D4D0008F7B5160001938A68F7
:104FF0000B690C000090934200DA1300220033602A
:1050000043321278002A01D00133336023689B06B3
:1050100002D53368023333602268062315001D4031
:105020001A4227D0230043331B785A1E934122682B
:10503000920630D4220001990098089D4332A84777
:10504000013025D00622236800251340042B05D10A
:105050003368E568ED1AEB43DB171D40A36822694E
:10506000934201DD9B1AED180026B54220D10020A5
:1050700010E00135E36832689B1AAB42D2DD2200B2
:10508000012301990098089F1932B8470130F0D1E7
:1050900001204042FEBD3020E1184331087021005C
:1050A0005A1C45310978A218433202331170C1E706
:1050B0002200012301990098089F1A32B847013055
:1050C000E6D00136D1E70000F0B58BB006920A00B9
:1050D00043320793059004920A7E0C00109B782AB5
:1050E00009D8622A0BD8002A00D1C8E0814903916F
:1050F000582A00D19CE0250042352A7022E0100099
:1051000063381528F7D8FAF7F7FF16001F00F6FFE7
:10511000F6FFF6FFF6FF1F00F6FFF6FFF6FFF6FFBD
:10512000AD004F008C00F6FFF6FFBE00F6FF4F000B
:10513000F6FFF6FF900025001A684235111D196030
:1051400013682B700123ACE018680968021D0D0676
:105150001FD506681A60674A0A2761680392002E05
:1051600035DA23002D2043331870A160002916DAA8
:105170000A2776420392049D30003900FBF756F867
:10518000039B013D5B5C2B70330006009F42F3D90B
:105190002AE006681A604906DDD536B2DBE704214D
:1051A00023688B432360E3E70868196840C9050654
:1051B00002D4400600D5B6B219604E4B0A270393BD
:1051C0006F2A00D1023F2300002243331A70636824
:1051D000A360002BCFDB042122688A432260002ECB
:1051E000C9D1049D002BC6D1082F09D12368DB0744
:1051F00006D5626823699A4202DC3023013D2B7098
:10520000049B5B1B2361079B210000930598069B71
:1052100009AAFFF7E9FE013048D1012040420BB056
:10522000F0BD202209680A432260782232490391A6
:10523000210045310A701968226840C9100602D45D
:10524000500600D5B6B21960D30702D52023134308
:105250002360002E01D01027B5E720222368934356
:105260002360F8E71A680D68101D49691860136813
:105270002E0601D5196002E06D06FBD519800023CA
:10528000049D2361BFE71A68111D1960156800218C
:105290002800626800F032F8002801D0401B6060EE
:1052A000636823610023049A1370ACE72A00236922
:1052B00006990598079DA8470130AED023689B0743
:1052C00015D4099BE0689842A9DA1800A7E72200E4
:1052D000012306990598079E1932B04701309CD0EA
:1052E0000135E368099A9B1AAB42F0DCE9E7002537
:1052F000F7E7C0460C5C00081D5C0008C9B28218C4
:10530000904201D10020704703788B42FBD00130DE
:10531000F6E7062010B500F02DF80120FCF7ACF9F7
:1053200070B504000D001F2904D916230360012065
:10533000404270BDC36B002B04D08A009B181A68D2
:10534000002A08D1200000F031F82A0001002000D6
:1053500000F01AF8EDE7012A09D0511C03D11623F9
:1053600003600120E5E70021280019609047002034
:10537000DFE7000010B5034B01001868FFF7D0FF0E
:1053800010BDC04664000020002370B5064D040027
:10539000080011002B60FCF771F9431C03D12B6846
:1053A000002B00D0236070BD8805002010B5FCF7ED
:1053B0006DF910BD10B5FFF7ACFF0000F8B5C046A1
:1053C000F8BC08BC9E467047F8B5C046F8BC08BC9F
:0453D0009E4670473E
:1053D40073656172636820657869740050413000B8
:1053E40050413100504132005041330050413400AB
:1053F400504135005041360050413700504138008B
:105404005041390050413130005041313100504158
:105414003132005041313300504131340050413178
:105424003500504230005042310050423200504268
:10543400330050423400504235005042360050424E
:105444003700504238005046300050463100503F3B
:105454003F00203D20253564203B200069742069ED
:1054640073206C696B656C7920746861742000200A
:105474006973207468652063757272656E74207335
:10548400656E73696E672070696E2C20616E64208E
:10549400002069732074686520766F6C7461676599
:1054A4002073656E73696E672070696E00756E6136
:1054B400626C6520746F206175746F6D61746963CB
:1054C400616C6C792064657465637420746865200C
:1054D400616E616C6F672073656E73696E672070AF
:1054E400696E7300524320696E707574206973206D
:1054F40000202D2073656E64205C6E20286F72205E
:10550400454E544552206B65792920746F20636F92
:105514006E74696E7565007465737420636F6E7460
:10552400696E75696E670070696E206C6973743A90
:1055340020007374617274656420746F20746573E1
:10554400742048494E2070696E73007374617274DC
:10555400656420746F2074657374204C494E207008
:10556400696E73005741524E494E473A2072656145
:1055740064696E6773206D616B65206E6F2073655F
:105584006E73652C20697320746865206D6F746F69
:105594007220636F6E6E65637465643F20706C6522
:1055A400617365206D616B65207375726520746825
:1055B40065206D6F746F7220697320646973636F03
:1055C4006E6E65637465642E007068617365207027
:1055D400696E206D61746368696E672072657375A6
:1055E4006C74733A00092564203A2048494E2D3ED4
:1055F40000202C204C494E2D3E00202C2046422DCC
:105604003E00656E64206F66206C697374005741B8
:10561400524E494E473A207468657365207265732B
:10562400756C7473206D6179206E6F7420626520CF
:1056340076616C696421212100656E746572206352
:105644006F6D6D616E64206B65792C206F6E6520C3
:105654006F663A20562028766F6C74616765206DFA
:105664006F6E69746F72292C2043202863757272DF
:10567400656E742073656E736F72206D6F6E6974DE
:105684006F72292C204C20284C454420736561728C
:10569400636829006D6F6E69746F72696E6720416B
:1056A4004443732C205820746F2071756974006D05
:1056B4006F6E69746F72696E67204144437320771B
:1056C40068696C6520617474656D7074696E6720B7
:1056D400746F20647261772063757272656E742CC6
:1056E40020706C6561736520636F6E6E65637420F2
:1056F4006D6F746F722C205820746F2071756974EB
:1057040000736561726368696E67204C454420705C
:10571400696E2C205820746F20717569742C205088
:1057240020746F2070617573652C204720746F207E
:10573400636F6E74696E75652C203C20616E642005
:105744003E20746F206E617600696620796F752043
:1057540073656520746865204C45442061637475E5
:10576400616C6C7920626C696E6B2C207468656E58
:10577400207072657373202750272C20616E64207B
:1057840075736520273C27206F7220273E272069E8
:105794006620796F75206D69737365642069740080
:1057A400696E76616C696420636D64206B65790051
:1057B4004C454420736561726368206C6F6F706937
:1057C4006E67004C45442070696E200020626C694D
:1057D4006E6B200048494748004C4F5700000000BA
:1057E400C5000000C0000000C4000000FFFFFFFF70
:1057F400C9000000C8000000C7000000FFFFFFFF51
:105804000A0000000900000008000000FFFFFFFF7D
:10581400C200000014000000FFFFFFFFC0000000F2
:10582400C1000000C2000000C3000000C40000006A
:10583400C5000000C6000000C7000000080000000A
:10584400090000000A0000000B0000000C0000002A
:105854000D0000000E0000000F000000C800000052
:10586400C900000012000000130000001400000032
:1058740015000000160000001700000018000000CA
:10588400190000001A000000FFFFFFFF00000000E5
:10589400000000007D120008C1470008B50F000891
:1058A4000D100008E50F0008B90F00081F100008CC
:1058B40087480008A9480008E5110008F911000804
:1058C400020104030204081001001000000100108A
:1058D4000400400000040102030405060708090A45
:1058E4000B0C0D0E0F1002030405060708090A0B22
:1058F4000C0D0E0F1010000001000000020000004B
:105904000400000008000000100000002000000057
:1059140040000000800000000001000000020000C0
:105924000004000000080000001000000020000037
:105934000040000000800000000000000102030499
:10594400000000000000000001020304060708092B
:10595400000000000000004012820000010000006E
:10596400000000401202010002000000000000409C
:105974001282010002010000004001401280000078
:1059840003000000000000401202020003010000B6
:10599400004001401200010004000000002000400B
:1059A4001284000005000000000000401282000084
:1059B40006000000000400401281000006010000FF
:1059C400004401401285000007000000002C014043
:1059D40012821000070100000004004012010100BF
:1059E40007020000002000401284000007030000AA
:1059F400004801401285000008000000002C01400E
:105A04001282000009000000002C01401202010073
:105A14000A000000002C0140128201000B0000006B
:105A2400002C0140120202000F00000000000040A0
:105A34001282000010000000002C0140120211002C
:105A44001001000000040040128101001100000058
:105A5400002C0140128211001101000000040040DA
:105A64001201020011020000002000401280000018
:105A740013000000000000401202010014000000A6
:105A840000040040128100001500000000040040E2
:105A940012010100160000000044014012821000AF
:105AA4001700000000480140128210001800000096
:105AB4000044014012820000FFFFFFFF00000000CD
:105AC4000000000004000000007400400380000097
