:020000040800F2
:1000000000900020714E0008C14E0008C14E00084B
:1000100000000000000000000000000000000000E0
:10002000000000000000000000000000C14E0008B9
:100030000000000000000000C14E00085741000809
:10004000C14E0008C14E0008C14E0008C14E000854
:10005000C14E0008A14C0008B14C0008C14C00087A
:10006000C14E0008C14E0008C14E0008C14E000834
:10007000C14E0008511E0008691E0008711E0008CC
:10008000891E0008A11E0008B91E0008D11E000824
:10009000E91E0008011F0008191F0008C14E0008D2
:1000A000C14E0008C14E0008C14E0008C14E0008F4
:0C00B000C14E0008C14E0008C14E0008FF
:1000BC000023C25C0133002AFBD1581E704700009C
:1000CC0002B4714649084900095C49008E4402BCDF
:1000DC007047C04603B47146490840004900095EA8
:1000EC0049008E4403BC704703B471464908400074
:1000FC004900095A49008E4403BC7047002243084A
:10010C008B4274D303098B425FD3030A8B4244D3D3
:10011C00030B8B4228D3030C8B420DD3FF22090215
:10012C0012BA030C8B4202D31212090265D0030BD4
:10013C008B4219D300E0090AC30B8B4201D3CB03CA
:10014C00C01A5241830B8B4201D38B03C01A52410C
:10015C00430B8B4201D34B03C01A5241030B8B420E
:10016C0001D30B03C01A5241C30A8B4201D3CB02F9
:10017C00C01A5241830A8B4201D38B02C01A5241DE
:10018C00430A8B4201D34B02C01A5241030A8B42E1
:10019C0001D30B02C01A5241CDD2C3098B4201D3F9
:1001AC00CB01C01A524183098B4201D38B01C01A77
:1001BC00524143098B4201D34B01C01A52410309EE
:1001CC008B4201D30B01C01A5241C3088B4201D39D
:1001DC00CB00C01A524183088B4201D38B00C01A4A
:1001EC00524143088B4201D34B00C01A5241411A71
:1001FC0000D20146524110467047FFE701B500207E
:10020C0000F006F802BDC0460029F7D076E770472B
:10021C007047C04610B5064C2378002B07D1054B10
:10022C00002B02D0044800E000BF0123237010BD56
:10023C00BC00002000000000745E0008044B10B5E8
:10024C00002B03D00349044800E000BF10BDC0469A
:10025C0000000000C0000020745E00084D4B10B57B
:10026C001B682B282CD8072801D84B493AE00838B2
:10027C002328FAD8FFF72EFF460048004A004C000E
:10028C004E00500052005400F9FFF9FFF9FF5C00DA
:10029C005E0060006200640066006800F9FFF9FF10
:1002AC00F9FF700072007400760078007A007C0010
:1002BC007E00800082008400860088008A008C000A
:1002CC000200C03A0D2AD0D8C13834490C2809D8BC
:1002DC00FFF7F6FE070C0E10121416282A2C3C3EC3
:1002EC0040002F49180004F0E1FF10BD2D49F9E73B
:1002FC002D49F7E72D49F5E72D49F3E72D49F1E7AE
:10030C002D49EFE72D49EDE72D49EBE72D49E9E7BD
:10031C002D49E7E72D49E5E72D49E3E72D49E1E7CD
:10032C002D49DFE72D49DDE72D49DBE72D49D9E7DD
:10033C002D49D7E72D49D5E72D49D3E72D49D1E7ED
:10034C002D49CFE72D49CDE72D49CBE72D49C9E7FD
:10035C002D49C7E72D49C5E72D49C3E72D49C1E70D
:10036C002D49BFE72D49BDE72D49BBE72D49B9E71D
:10037C002D49B7E72D49B5E72D49B3E72D49B1E72D
:10038C002D49AFE72D49ADE72D49ABE72D49A9E73D
:10039C002D49A7E7FC0100204B5F00088C5E00088C
:1003AC00905E0008945E0008985E00089C5E000851
:1003BC00A05E0008A45E0008A85E0008AC5E000801
:1003CC00B05E0008B45E0008B95E0008BE5E0008AE
:1003DC00C35E0008C85E0008CD5E0008D25E00084F
:1003EC00D65E0008DA5E0008DE5E0008E25E0008F9
:1003FC00E65E0008EA5E0008EE5E0008F25E0008A9
:10040C00F65E0008FA5E0008FF5E0008045F000854
:10041C00095F00080E5F0008135F0008185F0008F2
:10042C001C5F0008205F0008255F00082A5F000899
:10043C002F5F0008335F0008375F00083B5F000840
:10044C003F5F0008435F0008475F000810B50E4C83
:10045C00206803681B699847002801DC002010BD48
:10046C00206803685B699847DF2318405828F5D14A
:10047C000649206804F030FF206800F015FF0522C3
:10048C00034B01201A80EAE7FC0100204F5F0008B3
:10049C00E4000020F7B50E00150000240190019A2D
:1004AC00A3009F587B1C11D03100380004F026FEAD
:1004BC00012E05D1290038007B2D04D104F096FDC6
:1004CC000134E4B2EBE704F081FEF9E7F7BD00007C
:1004DC00F7B5050000240191019B9C4200D3F7BDA8
:1004EC000F4F7B2201213800FFF7D4FF0D4E002265
:1004FC0001213000FFF7CEFF280004F0A9FE0022F6
:10050C0001213800FFF7C6FF7B2201213000FFF7E5
:10051C00C1FF0134280004F09BFEE4B2DCE7C046C6
:10052C00F862000808630008F8B50D000600140016
:10053C001F001100012A11D904F058FD280004F005
:10054C0087FE00250A4BAA00D058431C09D004F0A2
:10055C0037FD6B000135F852EDB2F3E704F036FECF
:10056C00ECE730006142614104F030FEF8BDC0465A
:10057C00E8620008002370B5040001201D00084E3D
:10058C0040429A009259511C08D05900095B8D4287
:10059C0001D20D0010000133DBB2F2E770BDC04692
:1005AC00E862000870B501246442050000232000B5
:1005BC00084E9A009259511C0AD05900495BA1422D
:1005CC0001DB002C01DA10000CB20133DBB2F0E7D6
:1005DC0070BDC046E862000800239A0082580132C0
:1005EC0001D00133F9E798B270470022F0B59300BF
:1005FC00C3181E68741C0DD00C0025686F1C07D026
:10060C000434AE42F9D15C6810C30134FBD1013A19
:10061C000132ECE7F0BD012307B55B42009169465E
:10062C000193FFF7E2FF07BDF7B52F4B002418002D
:10063C000093FFF7D1FF2D4B18808000019304F03D
:10064C00B3FE2B4B1860019B1B889C4232DB294C60
:10065C00B4222000284905F063F8284D2000290019
:10066C00FFF7C3FF20002649FFF7BFFF25492000F5
:10067C00FFF7BBFF2800FFF7AFFF0C254543224BCC
:10068C001880224B28001D6004F08EFE0121204BA7
:10069C002A004942186004F0EEFF01210F2004F0FB
:1006AC002DFD00210F2004F091FD0F212000FFF7FC
:1006BC00B2FFF7BD009BA700DE59731CC7D070209A
:1006CC0001F0E4FCB1B20A000023050000F000FFC9
:1006DC009621074B28001B68C901FD50013400F01E
:1006EC00CFFFE4B2AFE7C04618630008F801002062
:1006FC000002002074010020246300080863000835
:10070C00F8620008E8620008EC000020E800002015
:10071C00F000002070B506000024A3009D596B1C4E
:10072C000DD0280004F022FC002805D1290030004F
:10073C00FFF771FF013CE4B20134E4B2EDE770BDA8
:10074C00002310B59A005258541C04D0824204D095
:10075C000133DBB2F6E7002010BD0120FCE70000FE
:10076C0070B505000024A3005859084E431C08D04E
:10077C00FFF774FD01340649306804F097FDE4B2CC
:10078C00F1E73068034904F0A7FD70BDFC010020BF
:10079C008B6900088669000870B50025114BAA000A
:1007AC00D458631C1CD0104B1B68A34215D00F4BA4
:1007BC001B68A34211D0200004F0D8FB00280CD0F9
:1007CC00200004F0FDFB06002000FFF747FD084B5E
:1007DC000849186832B204F08CFD0135EDB2DDE742
:1007EC0070BDC0467401002004000020F4010020FC
:1007FC00FC0100205B5F0008002330B501241900C8
:10080C000D4D64429A00525901320CD05A00125AC2
:10081C008A4200DD11B2A24201DB002C00DA14B2D4
:10082C000133DBB2EEE70C1B0F220021E00FA242DA
:10083C004841C0B230BDC046E8620008002230B565
:10084C00012413000B4D64429100495901310CD025
:10085C005100095A994200DD0BB2A14201DB002C78
:10086C0000DA0CB20132D2B2EEE7181B4242504110
:10087C00C0B230BDE862000870B5274C2749802211
:10088C00200004F04DFF2000FFF744FF2100C5209D
:10089C00FFF756FF00282AD02100C620FFF750FF93
:1008AC00002824D0C52004F08BFB85B2C62004F0B0
:1008BC0087FB1B4C80B2072D1AD8854229D21F28E2
:1008CC0027D91849206804F0F1FCC520FFF7C6FCB5
:1008DC001549206804F0EAFCC620FFF7BFFC134959
:1008EC00206804F0E3FC1249206804F0F5FC70BDAC
:1008FC0007280ED81F2D0CD90A49206804F0D6FC05
:10090C00C620FFF7ABFC0849206804F0CFFCC520DB
:10091C00E3E70849E4E7C046F40000207401002036
:10092C00FC010020655F0008785F00089A5F0008F2
:10093C008B690008B65F0008F0B593B004F084FC36
:10094C00CC4ACD4C13682788013305001360002F67
:10095C0000D076E0FA21C94A89001368C31AC84846
:10096C0000908B422BD31560C64DC74E2B68326856
:10097C009B009858C549C64A5B581060C54A0191FE
:10098C00C549136004F092FC2B68019A9B0098589F
:10099C00FFF764FC2B6832689B009858BF4904F041
:1009AC009BFC2B6832689B00985800F07DFC009AE9
:1009BC002B68128801332B60934200D32F600025E3
:1009CC0011E0A5420AD0A700C05900F06DFE3368B3
:1009DC00D859002802D003689B6A98470134E4B2C6
:1009EC0026E00135EDB2009B1B889D4227DAA64E0E
:1009FC00AF003368D85903681B6998470028F0DDAD
:100A0C003368D85903685B699847C0B20A28E8D1A3
:100A1C009E4BA348F958A34B19609E4B1960FFF7E6
:100A2C00FAFD3368DA599A4B1A60012323800024AB
:100A3C00009B30681B889C42C3DB04F0BFFC13B0E6
:100A4C00F0BD781E0828FAD8FFF74EFB09002E00DF
:100A5C007900C40002015201A801C40155028C4D59
:100A6C009149286804F038FC9049286804F01EFC71
:100A7C008B48FFF775FE002201218D48FFF70AFD18
:100A8C00002201218B48FFF705FD00228A48110046
:100A9C00FFF700FD0223002223807A4B8749286848
:100AAC001A6004F019FCCAE7764D814F2B689B0045
:100ABC00DE59731C17D1012238001100FFF7EAFC34
:100ACC00002201217B48FFF7E5FC714B7C4918683B
:100ADC0004F002FC032323800023FA2040002B6047
:100AEC0004F0B6FBABE714210A20FFF7F1FC00225F
:100AFC0001213800FFF7CEFC3000C822642102AB84
:100B0C00FFF712FD02A8FFF777FE00280AD06D4C04
:100B1C002378002B06D15E4B6B49186804F0DCFB84
:100B2C000123237002A8FFF725FD0C212B68674ACF
:100B3C00594312685218166090600133CDE7514D3D
:100B4C005C4F2B689B00DE59594B0093731C0ED1E4
:100B5C00002201210098FFF79DFC002201213800A2
:100B6C00FFF798FC0423238000232B6067E71421F4
:100B7C000A20FFF7ADFC002201210098FFF78AFC48
:100B8C003000C822022102ABFFF7CEFC02A8FFF70F
:100B9C0055FE00280AD04B4C2378012B06D83C4B31
:100BAC004949186804F098FB0223237002A8FFF748
:100BBC00F9FC474A454B11880C224A431B68D21852
:100BCC009A4201D12B68B8E79968814200D15E60E6
:100BDC000C33F5E72E4E3F49306804F07DFB0025C1
:100BEC003B4B30681B889D420EDB3B4904F074FB89
:100BFC00344B1B78002B03D03849306804F06CFB65
:100C0C00FFF73AFE052332E00C22304B6A431F6893
:100C1C000135BF1832492A0004F06BFB3868FFF726
:100C2C001DFB3049306804F041FB7868FFF716FB78
:100C3C002D49306804F03AFBB868FFF70FFB3068B9
:100C4C0004F038FBEDB2CBE7286803685B69984782
:100C5C000F4D286803681B6998470028F4DC23496A
:100C6C00286804F039FB286800F01EFB062323805B
:100C7C00E5E6C046D8000020E4000020DC0000209F
:100C8C00F8010020E000002000020020186300089A
:100C9C00FC010020F4010020ED5F0008FA5F000861
:100CAC00740100200400002020600008306000085F
:100CBC0008630008F8620008E86200083B6000085E
:100CCC0054600008E60000206D600008F000002071
:100CDC00EC000020D26000080B61000817610008CE
:100CEC00EE600008FA600008036100084261000829
:100CFC00C54E306803681B699847002800DC9EE6E7
:100D0C00306803685B699847C0B2562837D04C28C6
:100D1C0028D020D8202813D808280AD8002800D199
:100D2C008DE6BA49306804F0D7FA306800F0BCFAA6
:100D3C0068E7B74B0938C0B2C340DB07F1D57EE694
:100D4C004328EED1B349306804F0C6FA306800F09D
:100D5C00ABFA08231BE0762811D0E2D86328F1D037
:100D6C006C28DED1AC49306804F0B6FAAB49306877
:100D7C0004F0B2FA306800F097FA092307E0A849AA
:100D8C00306804F0A9FA306800F08EFA07230022CC
:100D9C002380A44B1A60A44B1D6050E6FFF756FB52
:100DAC00002800D04BE6FA219F4A89001368EB1A01
:100DBC008B4200D243E61560FFF7EEFC924C2068A4
:100DCC0004F078FA206800F06FFA964A1368013341
:100DDC00136034E6FFF73AFB041E00D02FE6924A6C
:100DEC001368EB1A632B00D829E68E4E1560336816
:100DFC000F221D00DFB21540134229D18B4C01216B
:100E0C002368186804F07AF923680121586804F003
:100E1C0075F923680121D86804F070F92368012161
:100E2C00186904F06BF923682900186804F0CEF9EE
:100E3C002368C821586804F0D9F82368C821D868F9
:100E4C0004F0D4F829002368186904F0BFF916E0FF
:100E5C00022D23D1754DC8212B68186804F0C6F8F3
:100E6C002B682100586804F0B1F92B682100D86870
:100E7C0004F0ACF92B68C821186904F0B7F8FF0727
:100E8C0008D5FFF789FC604C206804F013FA206841
:100E9C0000F00AFA336801333360D0E5042D12D127
:100EAC00624D01002B68186804F090F92B68210042
:100EBC00586804F08BF92B682100D86804F086F987
:100ECC0021002B68C0E7052DD9D1584D01002B68A6
:100EDC00186804F013F92B682100586804F00EF917
:100EEC002B682100D86804F009F92B6821001869D7
:100EFC0004F004F9C3E7444E306803681B69984753
:100F0C0000280FDD306803685B699847C0B2582829
:100F1C002AD0502831D01DD83E2831D047281FD098
:100F2C003C2823D0FA21404AC9001368EB1A8B42A3
:100F3C0000D284E53B4C156023683D4A5B089B005E
:100F4C009D5830686B1C2AD13A4904F0C5F900232E
:100F5C00236074E5702810D0782805D06728E1D17B
:100F6C000122354B1A70DDE73449DBE62D4A136854
:100F7C001900481E81415B1A136000222E4BF1E7C9
:100F8C00284A2B491368013313605B089B0059589E
:100F9C000023013100D11360274A1370C2E728499E
:100FAC0004F084F92800FFF759F92649306804F059
:100FBC007DF923682449DB0700D52449306804F007
:100FCC008BF93068012600F06FF90121280004F03C
:100FDC0095F8310023682800994304F0F7F8642051
:100FEC0004F036F90021280004F088F82168280064
:100FFC00314004F0EBF8104B1B78002B00D11EE5B0
:10100C0023689B19A4E7C046FC010020A9620008D4
:10101C0013008000B86100080A62000852620008E0
:10102C009D610008E0000020DC000020F0000020A2
:10103C0074010020B9620008000000204F5F000816
:10104C00CC620008D5620008DD620008E26200088C
:10105C0000207047020003006A32693311781B7854
:10106C00994209D03F211378C018137829300133E5
:10107C000B4000781370704701204042FBE70000E2
:10108C0002000300693210786A331B784030C01AB2
:10109C00044B184004D5402301385B4218430130FF
:1010AC007047C0463F00008072B6020000236932D0
:1010BC006A301370037062B67047030002006A3323
:1010CC00693219781278914204D01B78C0182930F3
:1010DC000078704701204042FBE7012A02D10160F1
:1010EC0000207047022A05D0032AF9D0002AF7D134
:1010FC000260F5E70B680360F2E710B503689847E8
:10110C0010BD0000F0B5264F0D003B6889B08B4236
:10111C0036D0244C200000F01DFB2000002D3BD0CD
:10112C0000F0BEFD032301266B430190039303994A
:10113C000198FEF7E3FF1C4A0290904222D831003E
:10114C00200000F0F7FC00222000029900F0D4FDF2
:10115C0000222000110000F0F7FD00230593134B33
:10116C0020000493124B04A90793124B069300F032
:10117C002FFF069B002B0AD1200000F0C9FB3D601D
:10118C0009B0F0BD019B76005B080193CFE704A981
:10119C00032208009847EFE700F09BFCEFE7C046FE
:1011AC000402002028020020FEFF0000B5140008F5
:1011BC0007110008E7100008010010B52831097864
:1011CC00C369026A890705D59A620121408A03F036
:1011DC0095FF10BD9A61F8E7030010B52833197814
:1011EC00008A8907C90F023103F088FF10BD000087
:1011FC00030070B528331B7804000E005B070FD575
:10120C000B4D00290DD02B68834209D0FFF7E4FF6A
:10121C000122084B52421A60074B03321A602C60B1
:10122C0070BD2868A042FBD1FFF7C6FF2E60F7E720
:10123C001C020020080000201402002070B50D4D87
:10124C0004002B680020A34213D10B4B1968002912
:10125C00FCD1230028331B785B0702D52000FFF755
:10126C00C7FF0021054B200029601960FFF74AFFDA
:10127C00012070BD24020020200200201C0200204E
:10128C0010B50400024B0360FFF7D8FF200010BD1F
:10129C00E063000810B50400FFF7F2FF2000702196
:1012AC0000F0F8FE200010BDF8B5164F04003B68A6
:1012BC000020A3421CD0144E3268002AFCD1002B13
:1012CC0002D01800FFF7BAFF012501220F4B524242
:1012DC001D600F4B2000616A1A60FFF713FF23009B
:1012EC0028331B783C605B0703D40A4B1C6001203D
:1012FC00F8BD3368002BFAD129002000FFF778FFE6
:10130C00F5E7C04624020020200200201402002031
:10131C00080000201C020020F8B50500082304007A
:10132C0028352A78144E13432B703368002BFCD1CC
:10133C004B008021890019432A78104B19609207C1
:10134C0001D5C9431960002703220D4B20001F60F3
:10135C000C4B616A1A60FFF7D5FE2B785B0703D53F
:10136C0039002000FFF744FF08222B78012093431B
:10137C002B703460F8BDC046200200201002002003
:10138C000C02002018020020184A70B511680300E6
:10139C0001391160002910DC154C2168481C2060B3
:1013AC0009290DDC1348DC6901681B6ACD0705D5DA
:1013BC00A361032349080160136070BDA362F8E7C1
:1013CC00012111601A0028321278140703D500226B
:1013DC00094B1A60F1E71928EFDD5207F7D5074AD8
:1013EC0010689842F3D1FFF703FFF0E718020020D2
:1013FC000C020020100200202002002024020020F9
:10140C00264AF0B51368013B1360002B35DC06004F
:10141C00436981691B6928360B40214C5B1A37786C
:10142C0059424B412168BD07B446ED0F4E1C0AD101
:10143C009D4206D10023053111601A4A23601360C6
:10144C001BE00123FBE707291CDD9D4211D00100A5
:10145C003F2569310B7801332B4005006A352D7817
:10146C009D420BD00D7840190E4D29302D6805701A
:10147C000B7001231360023B2360F0BD0123614616
:10148C003B43F5E7074E306840089D4201D080236E
:10149C0018430131032330602160D0E7140200208F
:1014AC000800002008020020074B10B51A68002A1B
:1014BC0002D01868FFF7A4FF044B1A68002A02D068
:1014CC001868FFF761FF10BD1C02002020020020ED
:1014DC00F7B50D00FA21040000208900A1606349D2
:1014EC00EEB2019360602160258262822D2E57D866
:1014FC005F4FB300E021DF59C900294039433F0653
:10150C003F0F042F5AD960610F20014059488900C0
:10151C000958A161D1B22D2958D8554F8B00E02024
:10152C00DF59C000104038433F063B0F0027042B07
:10153C0002D8514F9B00DF59E7610F273840230039
:10154C004C4F8000C05928332062A81A0093030026
:10155C0058425841019B80005B0018430F23002721
:10156C001840844600986762007898436346184395
:10157C00009B18702000693007704770E7662D29B2
:10158C0036D8E0200F233A4F8900C0001040CA59CA
:10159C0010430009184002F08DFD00283DD1FEE7F4
:1015AC00C0212940C0290DD1CD2E0BD83F23334962
:1015BC002B409B0059582E4F8B009BE72E48BF00A9
:1015CC003858A0E7002161610F319FE7C02010401F
:1015DC00C02809D1CD2907D83F23284813409B00A8
:1015EC001858234F83009AE70020E0610F30A6E7DC
:1015FC00C0270F201740C02FCDD1CD29CBD8813F8C
:10160C001E4B1740BF00FF58E0231949BF00DB00F9
:10161C0013407A5813431B09BCE7009B1B785B07EC
:10162C0021D42D2E09D8124BB600F0580006000F0D
:10163C0002F040FD002816D1FEE7C0230F202B40FE
:10164C00C02BF5D1CD2EF3D8813B0C492B409B0000
:10165C005B58E021064A9B009B58C9000D401D4376
:10166C002D092840E4E72000FEBDC046E0630008D9
:10167C00CC68000824640008180000209468000856
:10168C00030010B5283341621B7804005B0708D4B3
:10169C00FFF792FD2000FFF79FFD2000FFF704FEEF
:1016AC0010BDFFF789FDFBE710B5FFF7C7FD10BDB7
:1016BC0010B50248024900F03FFC10BD2802002082
:1016CC000014004010B5024800F07CFA10BDC04672
:1016DC002802002003000A4910B50868C318EFF36C
:1016EC000882934205D90C220120064B40421A6015
:1016FC0010BD054A054C121B9342F4D20B60F7E760
:10170C000C00002098050020009000200004000030
:10171C00FEE7000016220120014B40421A60704780
:10172C009805002001207047836810B50400002B39
:10173C0005D00322010098470023A360E36010BD8D
:10174C00836810B50400002B02D0032201009847D7
:10175C00200010BD70B50125022104000369DA6870
:10176C00AA43DA60DA688A43DA60DA6849188A438D
:10177C00DA60DA6804318A43DA60DA6808318A435D
:10178C00DA60401802F022F822691368AB43136048
:10179C00230057344E331D705D709D70DD701D71CC
:1017AC005D719D71DD711D72257070BD4B1E032B1B
:1017BC0002D888000438704701204042FBE7000043
:1017CC000139435C002B05D0054B022905D90120BA
:1017DC00404204E00329FAD8024B4900C85A70472A
:1017EC001C640008146400080139032902D8034B57
:1017FC00585C704701204042FBE7C046106400086B
:10180C000139032902D8034B585670470120404236
:10181C00FBE7C0460C640008F7B504000E00FFF7A8
:10182C00C5FF0500431C00D1FEE731002000FFF787
:10183C00DBFF03000190013300D1FEE731002000F3
:10184C00FFF7BEFF013000D1FEE737016437E7191F
:10185C00BB68002B07D0019B2269DB431361D36863
:10186C0001990B43D360731E5A00A21890880C2860
:10187C0010D8FEF725FC4444131313070713133E2B
:10188C003E3E1F002000E35C29001030002B02D0EC
:10189C0002F008FCF7BD02F031FBFBE72000E35C33
:1018AC0029001030002B02D002F0B8FBF2E702F056
:1018BC00BBFAEFE720002900103002F023FB3100C7
:1018CC002000FFF79DFF010006002000FFF778FFC6
:1018DC0025692B6A1843BB682862002BDAD03100CB
:1018EC002000FFF781FFC3432B61EB681843E860CE
:1018FC00D0E720002900103002F004FBCAE723696E
:10190C001B68DB07C6D42000103001F02DFFC1E7A7
:10191C00C36E10B50400002B0AD002220369524298
:10192C001A61D96803320A43DA60103001F01CFFE7
:10193C0020000121FFF770FF20000221FFF76CFF50
:10194C0020000321FFF768FF04212000FFF764FF4C
:10195C0010BD0000F0B591B004000E001F00019204
:10196C00FFF724FF0500431C00D1FEE7524B0993FF
:10197C00236900281BD15B6B01220A93002306927A
:10198C00721E0392019A0B930D930E930C930F936B
:10199C000593079308930C2A33D81000FEF790FB9D
:1019AC004C1A2A4B52545D5F6165636C6E000C28B7
:1019BC000ED005DC042807D0082807D0DB6DDBE748
:1019CC001028FBD19B6DD7E79B6BD5E7DB6BD3E77F
:1019DC001B6CD1E77600A6197388002B08D0002366
:1019EC0020002A007380103009A9099302F080F8B6
:1019FC0011B0F0BD10232A00099309A9E01802F0D8
:101A0C0077F8039B019A5B00E3189A807B1CEFD05C
:101A1C00380002F087FEA8424CD1284D380029002E
:101A2C0002F078FC2900380002F0A1FC039BC002F4
:101A3C00C00FE054DCE7202320002A00099309A9F9
:101A4C001030DCE73023F7E7602320002A0009A9D7
:101A5C001030099302F07EF8D3E77023F5E750239A
:101A6C00EAE74023E8E70223059320002A0005A9B2
:101A7C00103002F023F9C4E70A23F5E723001033F2
:101A8C002A00180005A9029302F018F93100200071
:101A9C00FFF7B6FE0C22431E5B00E3189A8002236C
:101AAC000100200005930693FFF780FE05A90200B4
:101ABC000298DEE7FEE7C046FFFF00001C65000849
:101ACC00013903000020032902D849005B189888CB
:101ADC0070470121026910B5D36864308B43D36021
:101AEC00FFF722FE10BD10B50121103001F084FE6D
:101AFC0010BD0369186801231840704770B50500C4
:101B0C000C00FFF7F6FF00280FD10126E3683342E3
:101B1C000CD0E3682800B343E360FFF7E4FF022333
:101B2C005B422361E3681E43E66070BD2800FFF74B
:101B3C00DAFFFAE70B0010B50169013B8B62FFF786
:101B4C00DDFF10BD154A03000020934225D08022F2
:101B5C000130D205934220D0114A013093421CD05F
:101B6C00104A0130934218D00F4A0130934214D0DE
:101B7C000E4A0130934210D00D4A013093420CD0E2
:101B8C000C4A0130934208D00B4A0C489B185A421D
:101B9C0053415B4218400A4BC0187047002C01405F
:101BAC0000040040001000400014004000200040E1
:101BBC00004001400044014000B8FEBF0900FFFF97
:101BCC00FFFF000070B504000069FFF7BBFF0500C4
:101BDC002000103002F08AFC0022084BAD00EA50C5
:101BEC0026002500E260B4356436B54204D0103DC1
:101BFC002800FFF7A5FDF8E7200070BDDC020020EF
:101C0C00F8B5040008000E00FFF79CFF224FB84205
:101C1C0000D1FEE72569002D00D0FEE722001F4B06
:101C2C000C328000C25023002C3326611D7026001C
:101C3C00203325636563A563E56325646564A5644A
:101C4C001D705D7003231036E36530002566E4607B
:101C5C0002F0BCFB20006430FFF766FD20007430FE
:101C6C00FFF762FD20008430FFF75EFD200094300A
:101C7C00FFF75AFD2000A430FFF756FD80233000FB
:101C8C0025606560A5606561E761A5612562656297
:101C9C00A36201F0C3FEF8BDFFFF0000DC020020D0
:101CAC0010B586B004001022002102A803F0E3FC5A
:101CBC00002302A801A9019301F012FC206902F093
:101CCC002CFD012815D1059C01F0F6FBC023DB018E
:101CDC009C4206D007D88022064BD2012340934267
:101CEC0005D1400003E0E023DB019C42F9D006B0B3
:101CFC0010BDFEE7FFEFFFFF70B505000C00012AD9
:101D0C000CD0022A18D023005A1E93412969E41AD8
:101D1C002800CC62EC61FFF7F1FE70BDFFF7C0FF4D
:101D2C000849FEF7EBF960432B69010C996201310C
:101D3C00FEF7E4F90400E6E7FFF7B2FF2100FEF737
:101D4C00DDF9F1E740420F00036970B59E6A0500AA
:101D5C000C000136012A04D0022A0DD02B695C62DA
:101D6C0070BDFFF79DFF0749FEF7C8F931006043CE
:101D7C00FEF7C4F90400F1E7FFF792FF210071436D
:101D8C00F6E7C04640420F00F7B5070014001E00EE
:101D9C00FFF70CFD3B6905009A6A411C00D1FEE778
:101DAC0001320192822E30D01CD8102E08D8002E71
:101DBC0008D00121B140D86A01390130604320E0DC
:101DCC00812E16D039691D4ACB6A934203D1013258
:101DDC00944200D11C00002D1DD14C633800FFF73C
:101DEC008DFEF7BD832EEDD1D86A6421013060439E
:101DFC0007E03800FFF754FF1149FEF77FF9604305
:101E0C000199FEF77BF90400DCE73800FFF748FF87
:101E1C0001996143F5E70C2D0ED005DC042D07D09C
:101E2C00082D07D0CC65D9E7102DFBD18C65D5E7F3
:101E3C008C63D3E7CC63D1E70C64CFE7FFFF0000E2
:101E4C0040420F00044B10B51868002802D0043033
:101E5C0001F0E8FC10BDC046DC02002010B5FFF715
:101E6C00F1FF10BD044B10B55868002802D00430A7
:101E7C0001F0D8FC10BDC046DC020020044B10B5AC
:101E8C009868002802D0043001F0CCFC10BDC0468C
:101E9C00DC020020044B10B5D868002802D00430B6
:101EAC0001F0C0FC10BDC046DC020020044B10B594
:101EBC001869002802D0043001F0B4FC10BDC046F3
:101ECC00DC020020044B10B55869002802D0043005
:101EDC0001F0A8FC10BDC046DC020020044B10B57C
:101EEC009869002802D0043001F09CFC10BDC0465B
:101EFC00DC020020044B10B5D869002802D0043055
:101F0C0001F090FC10BDC046DC020020044B10B563
:101F1C00186A002802D0043001F084FC10BDC046C1
:101F2C00DC02002010B50C220021040003F0A3FBFE
:101F3C0000232000E36010BDF8B505000700040085
:101F4C000E006435B43728001035FFF7EBFFBD42A7
:101F5C00F9D10023310020002361FFF751FE20004E
:101F6C00F8BD70B50C220D000021040003F083FBBA
:101F7C000023E360AB68002B07D00222290020006D
:101F8C009847EB68E360AB68A360200070BD70B548
:101F9C0086B06E46040002AD2800FFF7E2FF290070
:101FAC000822300003F0BCFB2B00220003CA03C341
:101FBC00230006CE06C3049BA268A360059B049273
:101FCC00E2682800E3600592FFF7BAFB06B070BD2B
:101FDC0070B50400E36E0D006430002B02D0FFF7E7
:101FEC00D6FF70BDFFF7D3FFAB68002BF9D00222F0
:101FFC00236952421A61D96803320A43DA60F0E766
:10200C00836810B5002B01D103F02AFFC3689847F1
:10201C0010BD10B5002800D1FEE702F0D5F900681C
:10202C00C36E002B02D06430FFF7EAFF10BD10B571
:10203C00FFF7EFFF10BD030010B5002800D1FEE73D
:10204C00007F0138072812D8FEF73AF8041611124F
:10205C00111111140124180002F0B6F924010068C2
:10206C00643400198368002B01D0FFF7C9FF10BD41
:10207C000324F0E70424EEE70224ECE710B5FFF7A5
:10208C00DAFF10BD10B5FFF7D6FF10BD10B503F089
:10209C008BF910BD10B503F091F910BD704700001D
:1020AC0070B5104B05001978002901D1012070BDC5
:1020BC00FA208000FEF722F80B4C01002068FEF796
:1020CC001DF800F023FD041EF0D1032DEED8020004
:1020DC0001202900404200F0E3FC044B20001D606D
:1020EC00E5E7C0461000002050000020140000203E
:1020FC008023084A5B00116810B50B430020136065
:10210C00FFF7CEFF041E03D1FFF7C8FF200010BD60
:10211C000124FBE700200240034A044B11681B78A2
:10212C005B1813607047C0460003002010000020AD
:10213C00014B18687047C0460003002070B50400BE
:10214C00FFF7F6FF0500631C02D0044B1B78E41864
:10215C00FFF7EEFF401BA042FAD370BD1000002029
:10216C00034A044913680B40034313607047C0468D
:10217C0000000140FFF9FFFF80684007C00F704767
:10218C000023F0B585B004000393984200D1F0E031
:10219C00856D9D4205D102F09DFB23005433E5650E
:1021AC001D70802325685B05AA681A4200D1A7E040
:1021BC000022AB680192DB0008D410230126A26D2B
:1021CC0001961343A365E36D3343E3652800FFF7E2
:1021DC00D3FF1022A36D1340034300D0CCE0A26DBB
:1021EC00674B20691A400633FF331343A365AB6872
:1021FC00DB0761D4276BE1687B1E9F41A368A27E3D
:10220C000B43217E3F0389030B43617EC9030B43C0
:10221C0051030B439C46002800DB86E04100490833
:10222C00230066462C331B785B0033433B430B4344
:10223C00611CC97F012905D1002A00D078E08022D9
:10224C0052021343626A002A05D0E02149000A4079
:10225C00A16A0A431343EA684A490A401343EB60F4
:10226C00230062683C33E16C1B78970FBF079C46D8
:10227C003943012B08D1236C666C33430B43A16C9F
:10228C000B4361463B4319432B693F4F3B400B4388
:10229C0080212B6153005B08C9058B420CD0802335
:1022AC001B069A4208D03949394F0B683B40F0273E
:1022BC00BF033A4013430B60072170276B69626BB5
:1022CC008B4313436B616969A36BB9431B010B43CC
:1022DC006B61002834D11023A96A5B420B43AB62BB
:1022EC0007216B690B409A4239D10023E365A26D3B
:1022FC0003339A43023B1343A365019805B0F0BD29
:10230C00AA6824490A401343AB60234B234918683D
:10231C00FDF7F4FE013040000390039B002B00D12D
:10232C0046E7039B013B0393F7E78021890377E79B
:10233C002022A76D3A43A265E26D1143E16581E766
:10234C0080239B039842CBD11C21AB6AE369013BF0
:10235C009B000B402C3999400B00216EBEE71223D9
:10236C00A26D9A43023B1343A3650123E26D134311
:10237C00E36501230193C0E7A36D1A43A265F8E757
:10238C00FDFEFFFF0102FEFF02FCFF1F08270140BC
:10239C00FFFFC3FFE8FFFF6F50000020400D03005C
:1023AC00F7B5466904000F00082E0AD00368012017
:1023BC00DB680426034204D02023A26D1343A365DB
:1023CC00FEBDFFF7B5FE019025682B681E4224D098
:1023DC008023A26D9B001343A365C023EA681B01F5
:1023EC001A4215D1A37E002B12D12B681B070FD5D7
:1023FC002800FFF7C1FE002827D10C226B689343FD
:10240C006B60A26D174B1A400433FF331343A36563
:10241C00237E002B22D00020D2E77B1CD5D0FFF7E7
:10242C0087FE019BC01AB84201D8002FCCD13200D4
:10243C0023681B681A401E42C6D10423A16D543474
:10244C000B43636003202270BAE72023A26D134371
:10245C00A3650123E26D1343E365D9E70C232B60DD
:10246C00D9E7C046FEFEFFFF0368186C70470000FA
:10247C000023F0B585B003930300009154331A7810
:10248C0004000220012A4CD0012227691A70256809
:10249C002800FFF771FE002800D0E9E0009B8021A6
:1024AC005B6809069C46042362469F43009B1B689D
:1024BC00022A00D1B0E05A03520B8F4233D1A96AE1
:1024CC000A43AA62009A6869926819026B4E0A4024
:1024DC003240884302436A61002B1EDAE021684ACD
:1024EC006848156849042940834200D07EE080206A
:1024FC000004054211D11368634D2B400B43184364
:10250C00624B106018686249FDF7F8FD431C0C2003
:10251C0058430390039B002B64D1002000235434B8
:10252C00237005B0F0BD1F2167460F401039B9402C
:10253C00CE430196266E8E433100002A12D1980E9E
:10254C001F321040B840624608439208E1690132DC
:10255C0020668A42B6D8A96A01989A00120FBA402E
:10256C000140ADE701221342ECD192180120134235
:10257C00E8D1100002321342E4D101301A07E1D441
:10258C000130DA06DED401309A06DBD401305A066B
:10259C00D8D401301A06D5D40130DA05D2D40130A2
:1025AC009A05CFD401305A05CCD401301A05C9D4C0
:1025BC000130DA04C6D401309A04C3D401305A0471
:1025CC00C0D401301A04BDD40130DA03BAD40130BE
:1025DC009A03B7D480221800D20210401342B1D013
:1025EC001220AFE7039B013B039393E729488342F7
:1025FC000BD180204004054200D08EE71368224D99
:10260C002B400B431843106087E72348834200D0CC
:10261C0083E78020C003EEE78F4204D1AA6A5903F6
:10262C00490B8A43AA62002B00DB76E7144A154853
:10263C001168834208D1A02310685B040B40124937
:10264C0001400B43136068E71248834203D1C02357
:10265C0010681B04F2E71048834200D05DE7C020ED
:10266C00400413680140084803401943116054E7C3
:10267C002023A26D01201343A3654FE700FFFF0742
:10268C0008270140001000B0FFFF3FFE5000002063
:10269C00400D0300004000B8002000B4806D70476E
:1026AC0070B5056804002800FFF766FD002801D10D
:1026BC00002070BDAB689B0705D4AA680F4B1A406D
:1026CC0010231343AB60FFF733FD0426050023688A
:1026DC009B683342ECD0FFF72BFD401B0228F6D948
:1026EC0023689B683342F2D010230120A26D134360
:1026FC00A365E36D0343E365DBE7C046E8FFFF7FBB
:10270C000023F7B502680193916801330400194264
:10271C0001D00020FEBD90682249084208D010224A
:10272C00A16D0A43A265E26D13430120E365F1E755
:10273C0091681D4F39400B4393601C4B1B681B0267
:10274C0021D4637E012BE4D0FFF7F2FC01250600B7
:10275C00226813682B42DCD193682B4203D1936817
:10276C003B402B439360FFF7E3FC801B0228EFD91F
:10277C0023681B682B42EBD11023A26D1343A36576
:10278C00E36D2B43D1E70A4B0A491868FDF7B6FCF9
:10279C0001300190019B002BD3D0019B013B019395
:1027AC00F8E7C04617000080E8FFFF7F08270140CC
:1027BC0050000020400D030070B504000068FFF7C6
:1027CC00DBFC06000220002E1DD1250054352B7891
:1027DC00012B18D0012320002B70FFF791FF00284C
:1027EC0012D1A26D094B1A4080235B0013431C22AB
:1027FC00A3652368E0651A6028709968044A114043
:10280C0004220A439A6070BD2E70FCE7FEF0FFFFB5
:10281C00E8FFFF7F0221036870B59A6804000A4242
:10282C0005D101229868104203D1002070BD9B682D
:10283C00FBE705209D680540012D1ED19A681348C1
:10284C0002401143032299601A60FFF771FC0600E5
:10285C0023689B682B42E8D0FFF76AFC801B022898
:10286C00F6D923689B682B42F2D01023A26D134338
:10287C00A365E36D2B43E36506E01023A16D0B43C9
:10288C00A365E36D1A43E2650120CFE7E8FFFF7F04
:10289C0070B504000125002840D00223826D13433B
:1028AC008365FFF7FDFE051E0BD12000FFF7B2FF7D
:1028BC00051E01D10123A3652268194993680B40B9
:1028CC009360236817495A6800260A405A60164AD2
:1028DC0016491A60DA6820000A400721DA601A6982
:1028EC005434920092081A615A698A435A611A6ADE
:1028FC000F490A401A625A6A0A405A62DA6A0A4056
:10290C00DA629A6A0B4A9E6213680B490B40136099
:10291C0001F0FEFFA660E66066602670280070BDC0
:10292C00E8FFFF6F60FCFFFF9F03000000023E8387
:10293C0000F000F008270140FFFF03FE70B5060011
:10294C005436337804000220012B12D001252000CC
:10295C003570FFF7A5FE002809D12000FFF75AFFBC
:10296C00002804D1A36D034A13401D43A565002321
:10297C00337070BDFEFEFFFF0023F0B585B00393EE
:10298C00030054331A7804000225012A3DD0012695
:10299C001E70FFF73FFF2368050099680A0032405C
:1029AC00314207D01023A26D1343A3650023543486
:1029BC0023702AE008267F27A06D34490840063191
:1029CC00FF310143A165D868314908400190D968AD
:1029DC0030480140D96098682F49084018310843A5
:1029EC0098609868002813DA0398013003900399D3
:1029FC002A488142F5D91223A26D54349A43023BE2
:102A0C0013436360002323700125280005B0F0BD3B
:102A1C001800B4300168013E39408C466244002EE7
:102A2C00D9D19E681C49D2080E40B4460126614695
:102A3C00314399600168B9430A4302609A681649A8
:102A4C00114002220A439A60FFF772FB07002368C9
:102A5C009A68324208D1DA6801990A43DA60032293
:102A6C00A36D93433343A0E7FFF762FBC01B02281F
:102A7C00EDD923689B683342E9D01023A26D134330
:102A8C00A365E36D3343E365BEE7C046FDFEFFFF80
:102A9C0003800000FC7FFFFFE8FFFF7FFFF10200D7
:102AAC0010B5FF2403220B0021000240D2009140FC
:102ABC009B012340C943934000280ADBC0240B4AE6
:102ACC00800880008018A40002590A401343035167
:102ADC0010BD0F2210400838054A8008800080186D
:102AEC00C26911401943C161F2E7C04600E100E040
:102AFC0000ED00E0002805DB1F2318401E3B83403F
:102B0C00014A13607047C04600E100E08022431E7A
:102B1C005204012093420DD2C021074A074853604A
:102B2C00036A09061B021B0A0B43036200200723DE
:102B3C00906013607047C04610E000E000ED00E0CC
:102B4C00704710B5FFF7FCFF10BD704710B5041EA1
:102B5C0001D1012010BD437FDAB2002B02D10277E4
:102B6C00FFF7F3FF022363772379002B1CD1182185
:102B7C002368124A5A619A688A439A606279236878
:102B8C00002A19D1013A60211A619A6800208A43FF
:102B9C0061690A4380219A609A688A43A1690A4351
:102BAC009A6001236377D5E72000E268A16800F002
:102BBC0007F80028E2D0CCE72269E4E7B71DC1048E
:102BCC0030B51F2304000120013B21D30D00DD4053
:102BDC000542F9D0102A14D005D8002A08D00120BB
:102BEC00082A12D030BD0120182AFBD1062BF9D8A7
:102BFC0020684161182183688B4313438360002054
:102C0C00F0E70120072BF3D9ECE70F2BF0D9E9E71C
:102C1C000120102AE6D0E5D8002AE3D1E8E710B568
:102C2C0004000120002C0DD02379DAB2002B03D143
:102C3C002000627101F0B8FD022300202371013BDA
:102C4C002061237110BD10B504000120002C08D0A8
:102C5C0002232000237101F009FE00202061607125
:102C6C00207110BDF0B50224437902002000012B25
:102C7C0017D001252E000E300840864013681471C1
:102C8C001F683E431E6000290CD13E20196801408C
:102C9C00A14202D159680D435D60012300201371DC
:102CAC005071F0BDF8251968AD0329402500854009
:102CBC00A942F2D159680C435C60EEE71022114036
:102CCC000F3A30B515008D4004682368AB43236080
:102CDC000271002030BD13B514000022019202686D
:102CEC000192019A002906D1083211190191019A19
:102CFC000020136016BD1432F7E70000F8B502236C
:102D0C000D0016000A68417904001800012967D0EB
:102D1C00012123716171042A24D1FFF709FA0700FC
:102D2C00002E63D18022236812025B6B13424BD1BD
:102D3C000120FFF703FA2368AA691A6410233148AB
:102D4C003340984021688A6C8243E869984002437A
:102D5C00FF2098408A64CA6C8243286A984003001A
:102D6C001343CB641022296923683240012907D10F
:102D7C001E319140986B8843696991400143996376
:102D8C0007219140D86BAE68884329683143EE68BF
:102D9C003143914001438020C0019040D9631968B0
:102DAC0081431960184918689140884369689140BB
:102DBC000143C020904019601968814319600020BC
:102DCC000123607123710BE0FFF7B2F9C01B0128DE
:102DDC00A8D90823226903201343236103232371F9
:102DEC00F8BDFFF7A5F9C01B0128F2D823685B6B6F
:102DFC00002BF6DB0120FFF7A1F92368AA695A64BE
:102E0C009CE7C046FF030000FE0F000070B5084DA4
:102E1C000400EB68184202D0E86001F033FF2B6924
:102E2C00234203D020002C6101F030FF70BDC0465E
:102E3C000018024010B5114C1149236802000B40D8
:102E4C0003432360802300209B009A420ED10D4B3C
:102E5C000D49186806235843FDF750F98022431C8E
:102E6C00D200616908001040114200D110BD002B46
:102E7C0001D0013BF5E70320F8E7C04600700040A5
:102E8C00FFF9FFFF5000002040420F00F0B5040096
:102E9C0085B0002802D1012005B0F0BD0368DB0726
:102EAC0010D423689B075CD423681B0700D5C1E0B2
:102EBC0023685B0700D5F2E0E369002B00D079E1D1
:102ECC000020E9E73822AF4DAB681340EA68102BBD
:102EDC0009D1D3439B0708D12B689B03E1D56368C9
:102EEC00002BDED1D7E7082BF6D080226368520284
:102EFC00934211D12A6813432B60FFF719F98027ED
:102F0C000600BF022B683B42CBD1FFF711F9801BA7
:102F1C006428F7D90320BFE7A021C9028B4208D14E
:102F2C0080232968DB020B432B602B681A432A6031
:102F3C00E3E72A6894490A402A602A6893490A40C0
:102F4C002A60002BD9D1FFF7F3F880270600BF02C7
:102F5C002B683B42A5D0FFF7EBF8801B6428F7D910
:102F6C00D8E73822874DAB681340EA68102B28D17C
:102F7C0003210A40022A26D12A68520503D5E268A9
:102F8C00002A00D187E76968626981481202014012
:102F9C000A436A60002B0CD12B687E4A7E49134091
:102FAC00226913432B602B687C4A9B045B0FDA402D
:102FBC000A607B4B1868FFF773F8002800D173E7A1
:102FCC0069E7002BD8D0E368002B20D02B68714A1E
:102FDC00802713402269FF0013432B6080232A684B
:102FEC005B0013432B60FFF7A3F806002B683B42F2
:102FFC0007D06A68636966491B020A4013436B6019
:10300C0052E7FFF795F8801B0228EFD982E72B686F
:10301C00644A802713402B60FFF78AF80600FF00F4
:10302C002B683B4200D13FE7FFF782F8801B022858
:10303C00F6D96FE73822534DAB681340182B08D1E3
:10304C002B6E9B0700D433E7A369002B00D02FE72E
:10305C0021E7A2690123002A10D02A6E022713430C
:10306C002B66FFF765F806002B6E3B4200D01FE77E
:10307C00FFF75EF8801B0228F6D94BE72A6E022771
:10308C009A432A66FFF754F806002B6E3B4200D198
:10309C000EE7FFF74DF8801B0228F6D93AE73822E5
:1030AC00384DAB681340202B08D1EB6D9B0700D437
:1030BC0002E7A368002B00D0FEE6ECE6802200219C
:1030CC00EB6B52050091134208D1EB6B1343EB638E
:1030DC00EB6B13400393039B012300938027324E29
:1030EC007F0033683B4215D0A368012B22D1EA6DD7
:1030FC001343EB65FFF71CF802270600EB6D3B4210
:10310C0038D0009B012B00D0D6E6EB6B274A13403E
:10311C00EB63D1E633683B433360FFF709F801906A
:10312C0033683B42E0D1FFF703F8019BC01A022839
:10313C00F6D9EFE6EA6D052B05D1013B1343EB65A0
:10314C00EA6D0123D4E701218A43EA65EA6D033174
:10315C008A43EA65002BCDD1FEF7EAFF0227060071
:10316C00EB6D3B42CDD0FEF7E3FF114B801B984239
:10317C00F6D9CFE6FEF7DCFF0D4B801B9842BDD98C
:10318C00C8E6C04600100240FFFFFEFFFFFFFBFF3A
:10319C00FF80FFFFFFC7FFFF500000200024F4005A
:1031AC0014000020FFFEFFFF00700040FFFFFFEF48
:1031BC00881300003821434DAA680A40102A53D0C6
:1031CC00414A022B3AD12B68802713402B60FEF723
:1031DC00AFFF0600BF042B683B4229D1616A236A0A
:1031EC00EA680B43394980260A401343E26AB60465
:1031FC001343226B1343626B1343A26A12021343F1
:10320C00EB6080232A685B0413432B608023EA68FD
:10321C005B051343EB60FEF78BFF04002B68334216
:10322C0000D04DE6FEF784FF001B0228F6D971E6AC
:10323C00FEF77EFF801B0228CDD96BE62B6880261B
:10324C0013402B60FEF774FF0400B6042B68334266
:10325C0004D1EB681E4A1340EB6031E6FEF768FFC1
:10326C00001B0228F2D955E6012B00D113E60322EC
:10327C00E868216A02408A4200D00CE67022616A3A
:10328C0002408A4200D006E6FE21A26AC901014032
:10329C001202914200D0FEE5F822E16A920302404C
:1032AC008A4200D0F7E5E022216B120502408A42E7
:1032BC0000D0F0E5636B400F4007C01A431E9841E5
:1032CC00C0B2E9E500100240FFFFFFFE8C80C11187
:1032DC00FCFFFEEE382370B51D4CA2681A4205D1D6
:1032EC0023681C489B045B0FD84070BDA2681A4031
:1032FC00082A27D0A2681A40102A17D1E368E1687F
:10330C00DB43E5684906490F6F322D0A0131154040
:10331C009B0709D11048FCF7F1FEE1686843490F9F
:10332C000131FCF7EBFEE0E70A48F4E7A2681A402B
:10333C00202A09D0A26800201340182BD5D1FA20DE
:10334C00C001D2E70448D0E780200002CDE7C04698
:10335C00001002400024F40000127A00F7B50400BB
:10336C000D00002801D10120FEBD07274A4E33680D
:10337C003B408B422AD3226893073BD4D20748D4D4
:10338C00072733683B40AB420AD93368BB432B4316
:10339C003360FEF7CDFE019033683B40AB426BD1FE
:1033AC0023683E4D5B076FD4FFF794FFAB683C4935
:1033BC001B051B0F9B005B581F210B40D840394A43
:1033CC00394B10601868FEF76BFECDE73368BB43D2
:1033DC000B433360FEF7ACFE019033683B40AB42CD
:1033EC00C9D0FEF7A5FE019BC01A304B9842F4D908
:1033FC000320B9E72949530704D5E0238868DB018A
:10340C0003438B608B682A480340A06803438B609E
:10341C00B4E76268214F012A19D13B689B03A2D5FE
:10342C000721BB688B431343BB60FEF781FE019001
:10343C003823BA681A406368DB009A42A0D0FEF7C2
:10344C0077FE019BC01A194B9842F1D9D0E7022A9A
:10345C0003D13B689B01E3D485E7002A03D13B6889
:10346C005B05DDD47FE70223032A03D1396E1942B1
:10347C00D6D178E7F96DFAE7FEF75AFE019BC01A30
:10348C000A4B984288D9B3E7AB680A4A1340E26802
:10349C001343AB6088E7C046002002400010024096
:1034AC0084640008500000201400002088130000E1
:1034BC00FFF0FFFFFF8FFFFF064B07499B68074A92
:1034CC005B045B0F9B005B581F2110680B40D840BE
:1034DC007047C04600100240646400085000002091
:1034EC00072230B5F025094B02609C682D01144071
:1034FC0044609C682C408460E0249B68E401234079
:10350C00C360034B1B6813400B6030BD00100240BE
:10351C00002002400122036A70B593430362036AE0
:10352C00134A4468856915400A681543022293437F
:10353C008A6813430F4A904208D00F4A904205D034
:10354C000E4A904202D00E4A90420BD1082293436D
:10355C00CA688E691343042293430A4A22404C6979
:10356C00344314434A68446085614263036270BD0E
:10357C008CFFFEFF002C0140004001400044014044
:10358C0000480140FFFCFFFF036A184A70B5134066
:10359C000362056A164B4268C4691C400B681C43E5
:1035AC00144B1D408B681B022B43134DA8420ED1AC
:1035BC00124D1D40CB681B022B43114D2B40114D5E
:1035CC004E6915408A69324312012A4308E00E4DB8
:1035DC00A842F4D00D4DA842F1D00D4DA842EED02A
:1035EC0042604A68C461C263036270BDFFFEFFFFA4
:1035FC008CFFFEFFFFFDFFFF002C0140FFF7FFFFDC
:10360C00FFFBFFFFFFCFFFFF0040014000440140E4
:10361C0000480140036A144A30B513400362046A3F
:10362C00124D4368C2692A400D682D021543104A99
:10363C0014408A68120322430E4CA04208D00E4C50
:10364C00A04205D00D4CA04202D00D4CA04204D19A
:10365C000C4C1C404B699B01234343604B68C56178
:10366C000364026230BDC046FFEFFFFFFF8CFFFE1C
:10367C00FFDFFFFF002C01400040014000440140EF
:10368C0000480140FFBFFFFF036A70B5124C134A9C
:10369C0023400362066A4368456D15400A6815436A
:1036AC000F4A16408A68120432430E4EB04208D0BC
:1036BC000D4EB04205D00D4EB04202D00C4EB04271
:1036CC0003D11C404B691B02234343604B68456587
:1036DC008365026270BDC046FFFFFEFF8FFFFEFFD9
:1036EC00FFFFFDFF002C0140004001400044014061
:1036FC0000480140036A144A30B513400362046A5F
:10370C00124D4368426D2A400D682D021543104A34
:10371C0014408A68120522430E4CA04208D00E4C6D
:10372C00A04205D00D4CA04202D00D4CA04204D1B9
:10373C000C4C1C404B699B02234343604B68456512
:10374C00C365026230BDC046FFFFEFFFFF8FFFFE77
:10375C00FFFFDFFF002C014000400140004401400E
:10376C0000480140FFFFFBFF01000300012010B5E2
:10377C003D310C78E2B284421CD1001808701B68F1
:10378C000E498B4209D08021C9058B4205D00C49CA
:10379C008B4202D00B498B420DD19A680A490A40E0
:1037AC00062A06D007398A4203D0012219680A4337
:1037BC001A60002010BD1968F9E7C046002C0140C2
:1037CC000004004000400140070001000368084A63
:1037DC00196A114207D1196A064A114203D1012113
:1037EC001A688A431A6001233D3003700020704729
:1037FC001111000044040000020030B502243C32D8
:10380C00157803002000012D08D018003D300470FD
:10381C001B685961012303700020107030BD704784
:10382C00704700000222036810B5196904001142A8
:10383C000ED0D96811420BD0053A1A6104320277C6
:10384C009B699B0700D186E0FEF71CFC00232377C5
:10385C00042223681969114211D0D96811420ED083
:10386C00093A1A61073222779A69C0239B0020001B
:10387C001A4200D175E0FEF705FC002323770822DD
:10388C002368196911420ED0D96811420BD0113A34
:10389C001A610D322277DB6920009B0767D0FEF797
:1038AC00F1FB00232377102223681969114210D0F1
:1038BC00D96811420DD0213A1A6119322277DA698E
:1038CC00C0239B0020001A4257D0FEF7DBFB0023DD
:1038DC002377012223681969114207D0D968114254
:1038EC0004D0033A20001A61FEF7A1FB8022236862
:1038FC001969114208D0D968114205D0023AFF3A31
:10390C0020001A6100F0D3FB23681A69D20507D591
:10391C00DA68120604D51C4A20001A6100F0C8FBB4
:10392C00402223681969114207D0D968114204D08A
:10393C00813A20001A61FFF773FF2022236819696E
:10394C00114207D0D968114204D0413A20001A61C3
:10395C0000F0ACFB10BDFEF791FB2000FFF75FFF02
:10396C0074E7FEF78BFB2000FFF759FF85E7FEF7A6
:10397C0085FB2000FFF753FF93E7FEF77FFB20004A
:10398C00FFF74DFFA3E7C046FFFEFFFF10B51C4C31
:10399C000368A04206D08022D205904202D0194A78
:1039AC00904208D1702293434A681343164A1A4036
:1039BC00CB6813430BE0154A9042F7D0144A90425F
:1039CC00F4D0144A9042F1D0134A9042EED08022A7
:1039DC0093434A69134303608B68C3620B68836229
:1039EC00A04208D00A4B984205D00A4B984202D00C
:1039FC00094B984201D10B6903630123436110BD4C
:103A0C00002C014000040040FFFCFFFF00200040A0
:103A1C0000400140004401400048014070B50400E2
:103A2C000120002C23D025003D352B78DAB2002B59
:103A3C0005D123003C3320001A7000F049FE02230C
:103A4C002B702068211DFFF7A1FF2200012300200D
:103A5C004832137047340A3A137053709370D37012
:103A6C00137153719371D371137223702B7070BDDA
:103A7C001022036A70B593430362056A164C4268C0
:103A8C00836923400C6824021C4320239D438B68CC
:103A9C001B012B43114DA8420FD18025AB431E00B7
:103AAC00CB68403D1B013343AB430D4D4E69154074
:103ABC008A69324392002A4308E00A4DA842F4D0A6
:103ACC00094DA842F1D0094DA842EED042604A6897
:103ADC0084618263036270BDFF8CFFFE002C014089
:103AEC00FFF3FFFF0040014000440140004801404B
:103AFC0070B504003C34257803000220012D0BD056
:103B0C000C2A1FD009D8042A14D0082A16D0002A4F
:103B1C000BD001200023237070BD102A16D0142A5C
:103B2C00F7D11868FFF7E6FD02E01868FFF7F2FC22
:103B3C000020EFE71868FFF79BFFF9E71868FFF71D
:103B4C0023FDF5E71868FFF765FDF1E71868FFF747
:103B5C009BFDEDE7F8B507003C3715003A780300FC
:103B6C000C000220012A0CD0013838700C2D51D0D9
:103B7C0008D8042D2DD0082D3CD0002D17D00023B3
:103B8C003B70F8BD102D58D0142DF8D11D682800AD
:103B9C00FFF7B0FD80236A6D1B0113436B656B6DE2
:103BAC002E4A13406B6523696A6D1B0253E01D6836
:103BBC002800FFF7AFFC0823AA6913430422AB616A
:103BCC00AB699343AB61AB6922691343AB610020D2
:103BDC00D5E71D682800FFF74BFF8023AA691B015E
:103BEC001343AB61AB691D4A1340AB612369AA69EE
:103BFC001B02EAE71E683000FFF7C6FC0422F369DB
:103C0C001D43F561F3699343F361F369226913432F
:103C1C00F361DCE71D682800FFF7FCFC8023EA69F0
:103C2C001B011343EB61EB690C4A1340EB612369F5
:103C3C00EA691B021343EB61C9E71D682800FFF713
:103C4C0023FD08236A6D134304226B656B6D93434C
:103C5C006B656B6D226913436B65B8E7FFFBFFFF68
:103C6C00F0B501261500026A114FB2430262826957
:103C7C00046AB84217D08027FF05B84213D00D4F05
:103C8C00B84210D00C4FB8420DD03243F025AA43A5
:103C9C001B010F352B4013430A229443114021433F
:103CAC0083610162F0BD0326B2432A43EEE7C046AE
:103CBC00002C014000040040004001400300F7B517
:103CCC003C3301900C0019780220012918D00138DE
:103CDC001870002A15D1019B62681E682168E36880
:103CEC003000FFF7BDFF0C22B3699343B361B36996
:103CFC00A2681343B36100200023019D3C352B7057
:103D0C00FEBD042A24D11027019B22681B68606821
:103D1C001E6AE168BE431E629F69354D00022F404A
:103D2C003843344F09073840090C0143A0201E6A60
:103D3C00120186430240324399611A629A692E49F4
:103D4C000A409A61A268996912020A439A61D2E701
:103D5C00082A25D10325019B284F1B6822681E6A5F
:103D6C0060683E40E1681E62DF690901AF43384379
:103D7C00F027B8430F3739401E6A01432048D961F8
:103D8C003040A0260C2112023601324002431A6246
:103D9C00DA698A43DA61DA69A1680A43DA61AAE767
:103DAC000C2AA9D1019B174F1B6822681E6A6068F8
:103DBC003E40E1681E62DF690D4D00022F40384322
:103DCC000C4F09073840090C1E6A01430E481203B8
:103DDC000640A020000202403243D9611A62DA691F
:103DEC0005490A40DA61A268D9691202D5E7C046D2
:103DFC00FFFCFFFFFF0FFFFFFFF3FFFFFFFEFFFFC7
:103E0C00FFF5FFFFFFEFFFFFFF5FFFFF1F2310B565
:103E1C00012419408C408A40036AA3430362036A5D
:103E2C001A43026210BD0000030010B508291ED011
:103E3C0005D8002911D0042916D0020004E0020094
:103E4C000C2917D0102917D0012043321278824246
:103E5C0009D11A000220433211E002003E32012047
:103E6C00147884420AD010BD02003F32F7E70200FA
:103E7C004032F4E74132F2E74232F0E702201070B0
:103E8C001C6801222000FFF7C1FF164B9C4223D077
:103E9C00154B9C4220D0154B9C4213D0144B9C428A
:103EAC0010D08023DB059C4202D0124B9C420ED1D9
:103EBC00A368114A1340062B02D0073A934206D14D
:103ECC000020D0E78023626C1B0213436364012340
:103EDC00226813432360F3E78023626C1B021343B5
:103EEC006364E5E7002C01400040014000440140C0
:103EFC0000480140000400400700010010B5FFF726
:103F0C0093FF10BD030070B5082954D009D80029BF
:103F1C001BD0042948D00200433214780432E0B29A
:103F2C0008E0020047320C294CD010295BD04330FA
:103F3C000478E0B21278D2B2012C57D1012A32D1D6
:103F4C001A0002204332107048E005001C003E3578
:103F5C002E784434F0B22278D2B2012E46D1012A06
:103F6C0021D102222A7022701C6801222000FFF746
:103F7C004DFF1F4B9C4209D08023DB059C4205D092
:103F8C001C4B9C4202D01C4B9C4207D1A3681B4A81
:103F9C001340062B06D0073A934203D00123226824
:103FAC0013432360002070BD05001C003F352E78A4
:103FBC004534F0B2CFE705001C0040352E7846346E
:103FCC00F0B2C8E70400413425781278E8B2D2B2D6
:103FDC00012D0BD1012AE6D1022222701A000220F7
:103FEC0047321070C0E704004234EDE70120DAE7F5
:103FFC00002C01400004004000400140070001007B
:10400C001F2310B5042419408C408A40036AA34333
:10401C000362036A1A43026210BD0000030002002F
:10402C0010B5002905D144320120147884420AD0FD
:10403C0010BD042901D14532F6E7082901D04732D9
:10404C00F2E74632F0E7022010701C6804222000D0
:10405C00FFF7D6FF8023626C1B02134363640D4B86
:10406C009C4209D08023DB059C4205D00A4B9C4224
:10407C0002D00A4B9C4207D1A368094A1340062B75
:10408C0006D0073A934203D00123226813432360DE
:10409C000020CDE7002C014000040040004001400E
:1040AC000700010010B5FFF7B9FF10BD704770474E
:1040BC00704700007FB5002304280FD81B4B5A6BA8
:1040CC00FBF7FEFF030F18212A0001210A435A6354
:1040DC005B6B0B400193019BA023DB05180007B021
:1040EC0000BD02210A435A635B6B0B400293029B97
:1040FC000F4BF3E704210A435A635B6B0B400393AA
:10410C00039B0C4BEAE708210A435A635B6B0B4099
:10411C000493049B084BE1E720210A435A635B6B31
:10412C000B400593059B054BD8E7C0460010024099
:10413C000004005000080050000C00500014005007
:10414C0010B5FDF7F5FF10BD704710B5FDF7E4FF96
:10415C00FEF7F7FCFFF7F8FF10BD704780210E4B00
:10416C004905DA6B84B00A43DA63DA6B0A40012141
:10417C000192019A1A6C0A431A641A6C0A40802143
:10418C000292029A9A6B49010A439A639B6B0B4009
:10419C000393039B04B070470010024010B5FFF767
:1041AC00DDFFC020C000FDF7DBFFFDF7A1FFFFF72F
:1041BC00D4FF00F01BFE0248FEF7C8FC10BDC04641
:1041CC002C000020431C04D100207047834204D0F3
:1041DC000C310B685A1CF9D1F6E70120F5E7000009
:1041EC00F7B506000C00431C00D1FEE70F23474A2D
:1041FC000340C0B29B0009389D5803280ED8FBF72A
:10420C005FFF02222C31C02332009B011A409A42DC
:10421C0004D108233E4A11680B4313603006000F8B
:10422C00FFF748FF29000322030069434A438068D3
:10423C00D743104398600720204003283FD8FBF752
:10424C003FFF553F1549C02332009B011A409A424B
:10425C00E4D12F4A10231168DEE708212C4A136899
:10426C008B43DAE72A4A10211368F9E76004420EFF
:10427C0001924A009446019A7F2A0ED0360711D536
:10428C000F265A6A10002A0A524352435643B0432F
:10429C0006000198424316435E6260461A683A4033
:1042AC00024310E01A6A0F2610000A004A435643D4
:1042BC00B04306000198424316431E62EDE7FEE749
:1042CC001A683A400A431A60220712D55A682A43E0
:1042DC005A6002E0186802431A60A406A40F012C6D
:1042EC000AD0022C0DD0DA683A4008E01A683A403D
:1042FC00F2E75A68AA43EBE7DA683A400A43DA6015
:10430C00F7BDDA6849003A40F8E7C0462464000873
:10431C000000014010B5431C07D110BD834203D1EE
:10432C008968FFF75DFFF8E70C310B685A1CF5D173
:10433C00FEE70B685A1C01D1002002E0834201D138
:10434C00486870470C31F4E7002310B5421C02D0CA
:10435C00FFF7EFFF0300180010BD03000868421CB4
:10436C0002D0984201D1886870470C31F6E710B53D
:10437C00431C01D0FFF7F1FF10BD0000A0220D4B34
:10438C00D20019680C480A4300211A6099601A6817
:10439C0002401A6080225201DA601A680748024013
:1043AC001A60074A99611A628022064B12059A60BC
:1043BC007047C04600100240FFFFF6FEFFFFFBFFF8
:1043CC003B03000000ED00E00438704703683E4AF0
:1043DC008AB093420BD180213C4B09011A6C0A43E1
:1043EC001A641B6C0B400193019B0AB0704780222E
:1043FC00D205934209D10121344BDA6B0A43DA63BB
:10440C00DB6B0B400293029BEFE7314A934209D1DD
:10441C0002212E4BDA6B0A43DA63DB6B0B400393FE
:10442C00039BE2E72B4A934209D11021274BDA6B0D
:10443C000A43DA63DB6B0B400493049BD5E7264AF3
:10444C00934209D12021214BDA6B0A43DA63DB6BEF
:10445C000B400593059BC8E7204A93420AD1802163
:10446C001A4B09021A6C0A431A641B6C0B40069314
:10447C00069BBAE71A4A93420AD18021134B490290
:10448C001A6C0A431A641B6C0B400793079BACE72E
:10449C00144A93420AD180210C4B89021A6C0A43AC
:1044AC001A641B6C0B400893089B9EE70E4A9342C0
:1044BC009BD18021054BC9021A6C0A431A641B6CF0
:1044CC000B400993099B90E7002C0140001002401F
:1044DC000004004000100040001400400020004088
:1044EC000040014000440140004801400368224A5A
:1044FC00934205D1214A2249136C0B40136408E006
:10450C008022D205934205D101211C4AD36B8B43E7
:10451C00D36370471B4A934203D1184A0221D36BD1
:10452C00F5E7194A934203D1144A1021D36BEEE7F5
:10453C00164A934203D1114A2021D36BE7E7144A60
:10454C00934203D10D4A1349136CD6E7124A934296
:10455C0003D10A4A1149136CCFE7114A934203D194
:10456C00064A1049136CC8E70F4A9342D1D1034A4B
:10457C000E49136CC1E7C046002C014000100240EC
:10458C00FFF7FFFF00040040001000400014004043
:10459C0000200040FF7FFFFF00400140FFFFFEFFB7
:1045AC0000440140FFFFFDFF00480140FFFFFBFFFF
:1045BC000300421C26D01A4A904226D011D8194A20
:1045CC00904224D008D88022D205904221D0164A9D
:1045DC001020934215D0FEE7144A1220934210D0BB
:1045EC00F9E7134A904216D007D8124A904214D0D9
:1045FC00114A1420934204D0EDE7104A162093423E
:10460C00E9D170470E204042FBE71320F9E7112057
:10461C00F7E70F20F5E71520F3E70D20F1E7C0468B
:10462C000020004000100040000400400014004036
:10463C0000440140002C0140004001400048014072
:10464C000300421C26D01A4A904226D011D8194A8F
:10465C00904224D008D88022D205904221D0164A0C
:10466C001020934215D0FEE7144A1220934210D02A
:10467C00F9E7134A904216D007D8124A904214D048
:10468C00114A1420934204D0EDE7104A16209342AD
:10469C00E9D170470E204042FBE71320F9E71120C7
:1046AC00F7E70F20F5E71520F3E70E20F1E7C046FA
:1046BC0000200040001000400004004000140040A6
:1046CC0000440140002C01400040014000480140E2
:1046DC00F8B50400FFF77AFE2068FFF769FF226D3A
:1046EC00E16CFEF7DDF92068FFF762FFFEF702FAD6
:1046FC0027683800FFF7A4FF05003800FFF758FFC4
:10470C00854209D02800226DE16CFEF7C9F92068BA
:10471C00FFF796FFFEF7EEF9F8BD0130431E984106
:10472C00C0B2704710B50649FFF721FE0003C00E5A
:10473C00431E032B00D9FEE78000043810BDC04691
:10474C001C65000810B50649FFF711FE0003C00EEA
:10475C00122800D9FEE7034B8000C05810BDC0469C
:10476C00E0670008D0640008044BC018022800D988
:10477C00FEE7034B8000C0587047C046FFEFFFFFB9
:10478C00C464000810B50749FFF7F1FD0003C00E23
:10479C00012802D0022802D0FEE7002010BD102014
:1047AC00FCE7C046BC67000807B50A4B02689A4292
:1047BC0009D18021084B8905DA6B0A43DA63DB6B7C
:1047CC000B400193019B054B05491868FFF7A2FDAF
:1047DC0007BDC04600740040001002405400002089
:1047EC00BC670008F0B506008FB00D001700002163
:1047FC001422684600F03FFF2422002105A800F097
:10480C003AFF30001749FFF79FFD0090002826D093
:10481C003000FFF7B7FF1023020004009A431ED1AB
:10482C00012F0CD02B00002221006846FEF753FA12
:10483C00002814D121006846FEF714FA0FE00A4B49
:10484C0068461E60FEF7EBF9002808D10690079029
:10485C002200684605A9FEF751FA0028E2D00FB0F5
:10486C00F0BDC046BC67000854000020084B02682D
:10487C009A420CD18022074B9205D96A0A43DA621C
:10488C00DA6A05490A40DA62DA6B0A40DA63704781
:10489C000074004000100240FFFFFFDF10B50C4910
:1048AC0086B00400FFF750FD019000280DD02000C9
:1048BC00FFF768FF1023020001009A4305D101A8FD
:1048CC00FEF7FCF901A8FEF7BEF906B010BDC04614
:1048DC00BC67000807B580210A4B49031A6C0A43D0
:1048EC001A641A6C0A400192019A5A6D920092084D
:1048FC005A65054B1868C30402D40449FFF70AFD36
:10490C0007BDC0460010024054000020E0670008BC
:10491C008022094B5203196B11431963186B074919
:10492C0008401863186B02431A631A6B0A401A6327
:10493C001A6C0A401A64704700100240FFFFEFFF28
:10494C00F0B59FB0642205000F0005A8002100F00F
:10495C0092FE0C22002102A800F08DFE6B469E1CDC
:10496C00002333800193EB0400D4B0E0614B9D42F3
:10497C0000D9ACE0604B28000593FFF7F5FE072249
:10498C0004001023082F06D0083B0A2F03D0103345
:10499C00062F00D0002380210906069109910421DD
:1049AC002E2007930A91002369468B8509180B70FA
:1049BC0001210C9114316944CB7710A90B70802123
:1049CC001292139214AA13701AAA08930E930F93AF
:1049DC0018931B9319931370484B490105A8119117
:1049EC001D60FDF7CDFB002800D07FE00294012C68
:1049FC0037D0434B9C4234D0424B9C4231D0424B3B
:104A0C009C422ED0414B9C422BD0414B9C4228D0F7
:104A1C00404B9C4225D0404B9C4222D03F4B9C4269
:104A2C001FD03F4B9C421CD03E4B9C4219D03E4B5E
:104A3C009C4216D03D4A63005B08934211D03C4A1D
:104A4C0093420ED03B4A93420BD03B4B9C4208D036
:104A5C003A4B9C4205D03A4B9C4202D0394B9C427B
:104A6C0044D101230393002302A905A80493FDF765
:104A7C00FFFC00283AD105A8FDF77EFF002835D1B0
:104A8C0005A8FDF799FE002830D10A2105A8FDF7ED
:104A9C0087FC00282AD105A8FDF700FE800504D567
:104AAC0005A8FDF7E1FC80B2308005A8FDF746FFB4
:104ABC0000281BD105A8FDF7EBFE002816D1224AD1
:104ACC00224913680B401360308880B20FE02049F4
:104ADC002800FFF739FC01A905902800FFF732FEEA
:104AEC00059B04000322002B00D04AE700201FB0D6
:104AFC00F0BDC0460310000000240140540000200B
:104B0C0002000004040000080800000C1000001053
:104B1C0020000014400000188000001C0001002040
:104B2C0000020024000400280008002C00100030B3
:104B3C0000200034004000380080003C00000140A0
:104B4C00000002440000044808270140FFFF3FFE1C
:104B5C00E0670008F0B5234E85B001913100039356
:104B6C0002920400FFF7F0FBFCF7ECFF1E4F8500F0
:104B7C00EB59002B0ED1B420FDF788FA31000090D0
:104B8C002000FFF7E1FB01000098FDF7D5F9EB5988
:104B9C00009A1A60144B31005B5920001F68FFF714
:104BAC00E6FB0503ED0E29003800FCF789FF060033
:104BBC00052805D02300052229003800FCF7CAFE81
:104BCC00022238000199FDF797F829003800039B61
:104BDC00029AFDF7D9F8052E02D03800FCF798FEA2
:104BEC0005B0F0BD1C650008DC020020F7B5134BC6
:104BFC00060019000193FFF7A7FBFCF7A3FF104F6A
:104C0C008400E359002B0DD1B420FDF73FFA019934
:104C1C0005003000FFF798FB01002800FDF78CF928
:104C2C00E3591D603B591C68002C06D02000FCF792
:104C3C00C9FFB4212000FDF72DFAF7BD1C65000853
:104C4C00DC02002010B50C220021040000F013FD42
:104C5C000023E36010BD0000002310B501280BD128
:104C6C0014225A43064B101DC0188168002902D02B
:104C7C009B181B69984710BD01334008DBB2EDE768
:104C8C000403002010B5FFF7E7FF10BD10B5FFF7C8
:104C9C00E3FF10BD10B50120FEF7B8F80220FEF7B7
:104CAC00B5F810BD10B50420FEF7B0F80820FEF7DB
:104CBC00ADF810BD70B50C241025A8B2013CFEF760
:104CCC00A5F86D00002CF8D170BD0000F8B50525D5
:104CDC002E4F2F4C38002570FFF7B4FF2D4E257545
:104CEC003000FFF7AFFF2300013528332A481D7031
:104CFC00FFF7A8FF230029483C331D70FFF7A2FFE4
:104D0C0023000135503326481D706037FFF79AFF9A
:104D1C0024483D706036FFF795FF23483570FFF748
:104D2C0091FF230021488C331D70FFF78BFF23006C
:104D3C001F48A0331D70FFF785FF23001D48B433B7
:104D4C001D70FFF77FFF23001B48C8331D70FFF752
:104D5C0079FF23001948DC331D70FFF773FF230024
:104D6C002600F03316481D70FF36FFF76BFF154811
:104D7C007571FFF767FF14487576FFF763FF96238D
:104D8C0012485B00E554FFF75DFFF8BD08030020F7
:104D9C00040300201C0300203003002044030020E7
:104DAC00580300206C030020800300209403002093
:104DBC00A8030020BC030020D0030020E403002043
:104DCC00F80300200C0400202004002034040020F0
:104DDC0010B5044C143C201DFCF7B2FC024B9C4259
:104DEC00F8D110BD440400200403002010B592B08B
:104DFC003822002104A800F03EFC10220021684655
:104E0C0000F039FC80208000FEF714F880235B0052
:104E1C000793002308930D9308330E9380239B0272
:104E2C000F9380239B0410938023022440229B0524
:104E3C0004A8049409920B940C941193FEF726F891
:104E4C00002800D0FEE7072302900390210068465B
:104E5C0000930194FEF782FA002800D0FEE712B00E
:104E6C0010BD00000D488546FFF788FA0C480D4927
:104E7C000D4A002302E0D458C4500433C4188C42A9
:104E8C00F9D30A4A0A4C002301E013600432A2420F
:104E9C00FBD300F01FFC00F076FAFEE70090002038
:104EAC0000000020BC000020D8690008BC000020D5
:104EBC00A0050020FEE70000FF23F0B5050002006E
:104ECC001D400D2D16D8E021254CAD002D59C900E3
:104EDC000840284303402D2B24D9C0250540C02D64
:104EEC0001D1CD2B31D91300CE3B022B35D81D4B24
:104EFC00D0181EE0C0260640C02EF4D1CD2DF2D81D
:104F0C0007003F21E024164D0F40BF007F59E400FD
:104F1C002040384303402D2B0CD813499B00CB5811
:104F2C00204003E0104C9B001B5908401843431CC5
:104F3C00D9D0F0BD0640C02ED5D1CD2BD3D8014051
:104F4C0089004959084B8900E9E73F2303409B003E
:104F5C001B59054D9B005B59E7E701204042E8E7F0
:104F6C0094680008330F0000CC680008C0220300CE
:104F7C0002400120C02A0AD000220649DBB2900070
:104F8C000858984204D001320E2AF8D100207047FC
:104F9C000120FCE794680008914208D008D901234D
:104FAC00891A8B40984209D30130C84001387047A8
:104FBC000028FCD00130521A9040F7E70020F6E7A9
:104FCC0010B5FFF779FF0023421C09D0054C21686E
:104FDC00FFF7B6FC044B21681A68FFF7DDFF0300EE
:104FEC00180010BD6400002068000020F7B5C3B2A3
:104FFC0005003A4A01912D2B0BD9C0220240C02A40
:10500C0035D1CD2B33D83F23354903409B00334A50
:10501C005B58E0249B009B58E4002C401C43631C11
:10502C0025D020002F49FFF7CDF82F4F00281FD097
:10503C000F2223092D4913409B005858224006008B
:10504C008C46D640012100250E4206D10D0095401C
:10505C002A00024360460D001A500C223968019850
:10506C00FFF79AFF2A0001002000FFF7BBFBF7BDFA
:10507C0020001F49FFF7A6F8061E1DD00F2123099B
:10508C000B401A489B001D5821402E000122CE4097
:10509C00164202D18A402A431A50164B39681D68B1
:1050AC0001982A00FFF778FF1349020009682000D5
:1050BC00EBB2FFF74FFDDAE70121280000F01EF8F4
:1050CC00396808220198FFF767FF31007F2800D963
:1050DC000121280000F07AF8C9E7C046CC68000826
:1050EC0094680008BC67000860000020440400209D
:1050FC001C6500085C00002058000020F7B5C3B206
:10510C00040001912D2B29D8E0222B499B005C58DF
:10511C00D20002401443631C41D00F2625093540B0
:10512C00264FAD00EB592640F340DB070DD5200090
:10513C002349FFF747F8002823D02000FFF7AEFBE8
:10514C000122B2407B5993437B51019B052B31D8F3
:10515C001800FAF7B5FF202B2527292DC022024075
:10516C00C02A1CD1CD2B1AD83F23164903409B00D3
:10517C005B58E021104A9B009B58C9000C401C4313
:10518C00C9E720001049FFF71DF80028D8D02000EF
:10519C00FFF72CFDD4E700212000FFF721F8F7BD25
:1051AC001021F9E72021F7E70321F5E70121F3E7C7
:1051BC000921F1E7FEE7C046CC6800084404002052
:1051CC00BC670008946800081C650008C3B210B5E1
:1051DC002D2B17D8E022184C9B00D20002401859F6
:1051EC001043030600221B0F042B02D8134A9B000A
:1051FC009A580F24124B20408000C358002918D015
:10520C00936110BDC0220240C02A0ED1CD2B0CD808
:10521C003F230C4C03409B001B59E024064A9B0087
:10522C009B58E40020401843DBE701200022404259
:10523C00DFE79362E5E7C046CC6800081800002061
:10524C00246400089468000810B5FEF779FF10BDBF
:10525C0070B5041E09D0FEF773FF050000F0A1F82D
:10526C00FEF76EFF401BA042F8D370BDF8B50500E9
:10527C000F0016000024B44201D12000F8BD2B68A9
:10528C002800395D1B6898470028F6D00134F2E7F6
:10529C0070B505000C00081E07D0FAF709FF2B6843
:1052AC000200210028005B68984770BD10B5FFF71D
:1052BC00EFFF10BD10B50249FFF7EAFF10BDC04665
:1052CC008469000870B50400FFF7E2FF05002000B8
:1052DC00FFF7F0FF401970BD10B5FFF7F3FF10BDDD
:1052EC0010B51400022802D903685B6898472000A7
:1052FC0010BD0EB403B503AA02CA019200F06CF9FA
:10530C0002B008BC03B0184710B50400FFF79CFFAF
:10531C00E060236820005B699847002808DAFFF7F3
:10532C0093FFE368C01AA3689842F2D3012040426D
:10533C0010BDF8B506000F0015000024AC4201D1D9
:10534C002000F8BD3000FFF7DFFF0028F8DB3855F0
:10535C000134F3E7F7B50F0016001D001C1E019079
:10536C000BD000240198FFF7CFFF002805DBB842D3
:10537C0003D030550134A542F4D12000FEBD10B548
:10538C0000F00BF810BD10B500E000BFFBF74CF9B6
:10539C00FBF7D2FA00F006F8FAE710B5FEF7FEFEBE
:1053AC0010BD70477047000010B5034B0100186822
:1053BC0000F030F810BDC0466C00002010B5034B57
:1053CC000100186800F0B6F910BDC0466C00002052
:1053DC0070B50F4E0D0031680400002902D100F0A9
:1053EC0053F930602900200000F04EF9431C03D122
:1053FC0001256D42280070BD0323C51C9D43A842A6
:10540C00F8D0291A200000F03FF90130F2D1EFE773
:10541C00580400200323F7B5CD1C9D430835060026
:10542C000C2D34D20C25A94233D8300000F06CF886
:10543C00344F3B681C00002C2FD129003000FFF7A3
:10544C00C7FF0400431C58D13C682100002949D1F6
:10545C00002C4CD023683000E318019300F014F9B1
:10546C00019B834243D123683000ED1A2900FFF7DA
:10547C00AFFF01303BD023685B1923603B68002BE6
:10548C003DD05A68A24230D100225A6012E0002D61
:10549C00C9DA0C2333600020FEBD2168491B1ED4E1
:1054AC000B2917D962192560A34211D13A606368A0
:1054BC0011605360300000F02FF8200007220B30F1
:1054CC00231D9043C21A9842E6D01B1AA350E3E75F
:1054DC005A60ECE76268A342D7D13A60EAE723004E
:1054EC006468A8E70C004968B0E71300C7E70C2311
:1054FC003000336000F010F8CDE70560DAE75B6050
:10550C00FFDEC0465C04002010B5024800F006F92E
:10551C0010BDC0469C05002010B5024800F0FFF8F5
:10552C0010BDC0469C050020F7B506000C00150008
:10553C00002905D11100FFF76DFF04002000FEBD0E
:10554C00002A03D100F0F6F80024F7E700F03CF94C
:10555C000700854202D84308AB42EFD32900300044
:10556C00FFF758FF01900028EED02A00BD4200D969
:10557C003A002100019800F0D3F82100300000F02F
:10558C00D9F8019CDAE70000F0B50E008021114C2F
:10559C008900A54404AF039100933900130003AABA
:1055AC00050000F025F8041E11D00200310028007F
:1055BC00039B00F07BF80390BC4203D02100280031
:1055CC0000F0B8F8039885239B009D44F0BD0120A2
:1055DC004042F8E7ECFDFFFF10B5044C13000A0045
:1055EC0001002068FFF7D0FF10BDC0466C00002002
:1055FC0070B514000D001A0021689AB0002D1AD055
:10560C00002918D0C1236E46DB00B38100950495A8
:10561C00002918DB01230291059169465B42CB817D
:10562C001E9B00F039F900280FDB0022009B206044
:10563C001A7004980AE0A22369469B008B81002112
:10564C0000910491E6E78B23036000201AB070BD33
:10565C0010B5884206D800239A4208D0CC5CC454BA
:10566C000133F9E78B189842F5D2013A00D210BDFC
:10567C008B5C8354F9E703008218934200D1704786
:10568C0019700133F9E70000002370B5064D0400D2
:10569C0008002B60FCF71EF8431C03D12B68002B71
:1056AC0000D0236070BDC0469805002070B5040082
:1056BC00080011001A000023054D2B60FFF710FEA7
:1056CC00431C03D12B68002B00D0236070BDC04657
:1056DC009805002070B500260C4C0D4D641BA410D1
:1056EC00A64209D1002600F0BFFB0A4C0A4D641BF0
:1056FC00A410A64205D170BDB300EB5898470136F3
:10570C00EEE7B300EB5898470136F2E7BC690008A6
:10571C00BC690008CC690008BC6900087047704778
:10572C00002310B59A4200D110BDCC5CC454013397
:10573C00F8E7000070B505000C1E10D0043C23687F
:10574C00002B00DAE4182800FFF7DEFE1D4A136870
:10575C00002B05D1636014602800FFF7DDFE70BDDF
:10576C00A34208D9206821188B42F3D119685B68D1
:10577C0009182160EEE71A005B68002B01D0A342E8
:10578C00F9D911685018A0420BD12068091850188B
:10579C0011608342E0D118685B6841181160536056
:1057AC00DAE7A04202D90C232B60D5E72068211838
:1057BC008B4203D119685B680918216063605460DF
:1057CC00CAE7C0465C0400200B1F1B68181F002B87
:1057DC0001DA0B58C0187047F0B58E6885B01F0001
:1057EC000C000B6802900392BE4230D80C21625E12
:1057FC009021C9000A4228D0032021695B1A019329
:10580C00636943430198DD0FED187B1C1B186D1069
:10581C00AB4200D91D00520528D529000298FFF78C
:10582C00F9FD061E2CD0019A2169FFF779FFA28998
:10583C00184B1A4080231343A381019B2661F61851
:10584C0026603E006561ED1AA560BE4200D93E009F
:10585C00320003992068FFF7FBFE0020A3689B1B16
:10586C00A36023689B19236005B0F0BD2A00029841
:10587C00FFF75AFE061EE0D121690298FFF75AFF86
:10588C000C230120029A40421360A2893433134343
:10589C00A381E9E77FFBFFFFF0B5A1B003901D00EA
:1058AC008B890F0016001B0611D50B69002B0ED12E
:1058BC004021FFF7AFFD38603861002805D10C237B
:1058CC00039A136001204042CFE040237B61002308
:1058DC0008AC6361203363761033A37607953500EB
:1058EC002B78002B01D0252B48D1AB1B0593B5424F
:1058FC000BD0320039000398FFF76EFF013000D156
:10590C00AEE06369059A9B1863612B78002B00D17C
:10591C00A6E0012200235242626004A954325218BC
:10592C006E1C2360E360A3601370A365544B0522C7
:10593C0018003178059300F037FA751C00281FD138
:10594C002268D30604D5532304A95B1820211970AF
:10595C00130704D5532304A95B182B211970337832
:10596C002A2B16D0350000210A20E3682A786E1CF9
:10597C00303A092A50D9002911D117E00135AFE787
:10598C00059B2268C01A0123834013432E00236019
:10599C00CCE7079B191D1B680791002B01DB0B93B0
:1059AC0004E05B42E3600223134323602B782E2B2D
:1059BC000CD16B782A2B34D1079B02351A1D1B682E
:1059CC000792002B01DA01235B4209932D4E03222F
:1059DC003000297800F0E8F9002806D04023801B1D
:1059EC008340226801351343236029780622264818
:1059FC006E1C217600F0D8F9002838D0234B002BF0
:105A0C0022D10722079B073393430833079363691B
:105A1C00049A9B18636162E74343350001219B188C
:105A2C00A4E700230A201900013563602A786E1C54
:105A3C00303A092A03D9002BC8D00991C6E7414353
:105A4C00350001238918F1E707AA009221003A00DA
:105A5C000F4B039800E000BF0490049B0133D6D198
:105A6C00BB890D985B0600D52CE721B0F0BD07AAC9
:105A7C00009221003A00064B039800F07BF8EBE70C
:105A8C00876900088D690008916900080000000012
:105A9C00E5570008F7B5160001938A680B690C00EE
:105AAC000090934200DA13002200336043321278E4
:105ABC00002A01D00133336023689B0602D533687A
:105ACC00023333602268062315001D401A4227D08A
