:020000040800F2
:1000000000100020C94000081941000819410008EB
:1000100000000000000000000000000000000000E0
:10002000000000000000000000000000194100086E
:1000300000000000000000001941000847370008D8
:100040001941000819410008194100081941000828
:10005000194100081D3F00082D3F00083D3F0008E2
:10006000000000001941000819410008194100086A
:1000700019410008E91D0008011E0008091E0008BA
:10008000211E00080000000000000000391E0008CA
:1000900000000000511E0008691E000819410008F8
:1000A000000000001941000800000000194100088C
:1000B0000000000000000000000000000000000040
:1000C0000023C25C0133002AFBD1581E7047000098
:1000D00002B4714649084900095C49008E4402BCDB
:1000E0007047C04603B47146490840004900095EA4
:1000F00049008E4403BC704703B471464908400070
:100100004900095A49008E4403BC70470022430845
:100110008B4274D303098B425FD3030A8B4244D3CF
:10012000030B8B4228D3030C8B420DD3FF22090211
:1001300012BA030C8B4202D31212090265D0030BD0
:100140008B4219D300E0090AC30B8B4201D3CB03C6
:10015000C01A5241830B8B4201D38B03C01A524108
:10016000430B8B4201D34B03C01A5241030B8B420A
:1001700001D30B03C01A5241C30A8B4201D3CB02F5
:10018000C01A5241830A8B4201D38B02C01A5241DA
:10019000430A8B4201D34B02C01A5241030A8B42DD
:1001A00001D30B02C01A5241CDD2C3098B4201D3F5
:1001B000CB01C01A524183098B4201D38B01C01A73
:1001C000524143098B4201D34B01C01A52410309EA
:1001D0008B4201D30B01C01A5241C3088B4201D399
:1001E000CB00C01A524183088B4201D38B00C01A46
:1001F000524143088B4201D34B00C01A5241411A6D
:1002000000D20146524110467047FFE701B5002079
:1002100000F006F802BDC0460029F7D076E7704727
:100220007047C04610B5064C2378002B07D1054B0C
:10023000002B02D0044800E000BF0123237010BD52
:10024000B00000200000000068500008044B10B50A
:10025000002B03D00349044800E000BF10BDC04696
:1002600000000000B400002068500008454B10B5A5
:100270001B68262827D8072801D8434933E00838C7
:100280001E28FAD8FFF72EFF3F004100430045002B
:10029000470049004B004D00F9FFF9FF530055009E
:1002A000570059005B005D005F006100630065005E
:1002B000670069006B006D006F00710073007500CE
:1002C000770079007B000200C03A092AD5D8C138EE
:1002D0002E49082807D8FFF7FBFE050A0C0E10125E
:1002E000142628002A49180004F0E0F810BD294916
:1002F000F9E72949F7E72949F5E72949F3E72949C2
:10030000F1E72949EFE72949EDE72949EBE72949D1
:10031000E9E72949E7E72949E5E72949E3E72949E1
:10032000E1E72949DFE72949DDE72949DBE72949F1
:10033000D9E72949D7E72949D5E72949D3E7294901
:10034000D1E72949CFE72949CDE72949CBE7294911
:10035000C9E72949C7E72949C5E72949C3E7294921
:10036000C1E72949BFE72949BDE72949BBE7294931
:10037000B9E72949B7E72949B5E72949B3E7294941
:10038000B1E7C046F00100202B5100088050000862
:1003900084500008885000088C50000890500008D5
:1003A00094500008985000089C500008A050000885
:1003B000A4500008A8500008AD500008B250000832
:1003C000B7500008BC500008C1500008C6500008D3
:1003D000CA500008CE500008D2500008D65000087D
:1003E000DA500008DE500008E2500008E65000082D
:1003F000EA500008EE500008F3500008F8500008DA
:10040000FD50000802510008075100080C51000877
:1004100011510008165100081B5100081F51000817
:10042000235100082751000810B50E4C20680368BE
:100430001B699847002801DC002010BD2068036874
:100440005B699847DF2318405828F5D10649206892
:1004500004F042F8206800F015FF0522034B01204C
:100460001A80EAE7F00100202F510008D800002090
:10047000F7B50E00150000240190019AA3009F58C3
:100480007B1C11D03100380003F042FF012E05D152
:10049000290038007B2D04D103F0DAFE0134E4B2E8
:1004A000EBE703F091FFF9E7F7BD0000F7B50500B2
:1004B00000240191019B9C4200D3F7BD0F4F7B228A
:1004C00001213800FFF7D4FF0D4E0022012130003A
:1004D000FFF7CEFF280003F0BBFF00220121380008
:1004E000FFF7C6FF7B2201213000FFF7C1FF013477
:1004F000280003F0ADFFE4B2DCE7C046D8540008A2
:10050000E8540008F8B50D00060014001F001100A3
:10051000012A11D903F09CFE280003F099FF002561
:100520000A4BAA00D058431C09D003F07BFE6B0095
:100530000135F852EDB2F3E703F046FFECE7300087
:100540006142614103F040FFF8BDC046C854000855
:10055000002370B5040001201D00084E40429A009F
:100560009259511C08D05900095B8D4201D20D00EF
:1005700010000133DBB2F2E770BDC046C85400087A
:1005800070B501246442050000232000084E9A0043
:100590009259511C0AD05900495BA14201DB002C41
:1005A00001DA10000CB20133DBB2F0E770BDC046D7
:1005B000C854000800239A008258013201D0013348
:1005C000F9E798B270470022F0B59300C3181E688F
:1005D000741C0DD00C0025686F1C07D00434AE428B
:1005E000F9D15C6810C30134FBD1013A0132ECE768
:1005F000F0BD012307B55B42009169460193FFF707
:10060000E2FF07BDF7B52F4B002418000093FFF75A
:10061000D1FF2D4B18808000019303F0C5FF2B4BB9
:100620001860019B1B889C4232DB294CA0222000D1
:10063000284904F075F9284D20002900FFF7C3FF71
:1006400020002649FFF7BFFF25492000FFF7BBFF29
:100650002800FFF7AFFF0C254543224B1880224BA3
:1006600028001D6003F0A0FF0121204B2A00494211
:10067000186004F000F901210F2003F049FE002169
:100680000F2003F0A1FE0F212000FFF7B2FFF7BDFE
:10069000009BA700DE59731CC7D0702001F0A4FC9A
:1006A000B1B20A000023050000F002FF9621074BBB
:1006B00028001B68C901FD50013400F0DFFFE4B2DF
:1006C000AFE7C046F8540008EC010020F401002018
:1006D0006801002000550008E8540008D8540008BC
:1006E000C8540008E0000020DC000020E4000020E6
:1006F00070B506000024A3009D596B1C0DD0280086
:1007000003F066FD002805D129003000FFF771FFD6
:10071000013CE4B20134E4B2EDE770BD002310B552
:100720009A005258541C04D0824204D00133DBB2E8
:10073000F6E7002010BD0120FCE7000070B50500C1
:100740000024A3005859084E431C08D0FFF78EFD23
:1007500001340649306803F0A9FEE4B2F1E73068DD
:10076000034903F0B9FE70BDF0010020575900089D
:100770005259000870B50025114BAA00D458631CCB
:100780001CD0104B1B68A34215D00F4B1B68A34213
:1007900011D0200003F01CFD00280CD0200003F035
:1007A00041FD06002000FFF761FD084B084918686D
:1007B00032B203F09EFE0135EDB2DDE770BDC046FA
:1007C0006801002004000020E8010020F001002062
:1007D0003B510008002330B5012419000D4D64423F
:1007E0009A00525901320CD05A00125A8A4200DD46
:1007F00011B2A24201DB002C00DA14B20133DBB2E9
:10080000EEE70C1B0F220021E00FA2424841C0B2CC
:1008100030BDC046C8540008002230B50124130082
:100820000B4D64429100495901310CD05100095AD5
:10083000994200DD0BB2A14201DB002C00DA0CB2C0
:100840000132D2B2EEE7181B42425041C0B230BD75
:10085000C854000870B5274C27498022200004F0B6
:100860005FF82000FFF744FF2100C520FFF756FF87
:1008700000282AD02100C720FFF750FF002824D0ED
:10088000C52003F0CFFC85B2C72003F0CBFC1B4C86
:1008900080B2072D1AD8854229D21F2827D9184996
:1008A000206803F003FEC520FFF7E0FC154920682F
:1008B00003F0FCFDC720FFF7D9FC1349206803F0C3
:1008C000F5FD1249206803F007FE70BD07280ED819
:1008D0001F2D0CD90A49206803F0E8FDC720FFF757
:1008E000C5FC0849206803F0E1FDC520E3E708499D
:1008F000E4E7C046E800002068010020F001002085
:1009000045510008585100087A510008575900080D
:1009100096510008F0B593B003F096FDCC4ACD4C4B
:1009200013682788013305001360002F00D076E09C
:10093000FA21C94A89001368C31AC84800908B423B
:100940002BD31560C64DC74E2B6832689B00985854
:10095000C549C64A5B581060C54A0191C549136034
:1009600003F0A4FD2B68019A9B009858FFF77EFCCA
:100970002B6832689B009858BF4903F0ADFD2B6887
:1009800032689B00985800F07DFC009A2B68128812
:1009900001332B60934200D32F60002511E0A54264
:1009A0000AD0A700C05900F07DFE3368D85900284E
:1009B00002D003689B6A98470134E4B226E001350F
:1009C000EDB2009B1B889D4227DAA64EAF0033682C
:1009D000D85903681B6998470028F0DD3368D85957
:1009E00003685B699847C0B20A28E8D19E4BA348C8
:1009F000F958A34B19609E4B1960FFF7FAFD336855
:100A0000DA599A4B1A60012323800024009B306836
:100A10001B889C42C3DB03F0D1FD13B0F0BD781EF0
:100A20000828FAD8FFF768FB09002E007900C400F7
:100A300002015201A801C40155028C4D9149286858
:100A400003F04AFD9049286803F030FD8B48FFF71A
:100A500075FE002201218D48FFF70AFD00220121C9
:100A60008B48FFF705FD00228A481100FFF700FDC3
:100A70000223002223807A4B874928681A6003F0FA
:100A80002BFDCAE7764D814F2B689B00DE59731C06
:100A900017D1012238001100FFF7EAFC00220121E2
:100AA0007B48FFF7E5FC714B7C49186803F014FDA7
:100AB000032323800023FA2040002B6003F0C8FCAE
:100AC000ABE714210A20FFF7F1FC002201213800D6
:100AD000FFF7CEFC3000C822642102ABFFF712FD05
:100AE00002A8FFF777FE00280AD06D4C2378002B70
:100AF00006D15E4B6B49186803F0EEFC01232370AE
:100B000002A8FFF725FD0C212B68674A594312689C
:100B10005218166090600133CDE7514D5C4F2B6841
:100B20009B00DE59594B0093731C0ED1002201210A
:100B30000098FFF79DFC002201213800FFF798FC88
:100B40000423238000232B6067E714210A20FFF78A
:100B5000ADFC002201210098FFF78AFC3000C8227A
:100B6000022102ABFFF7CEFC02A8FFF755FE0028DA
:100B70000AD04B4C2378012B06D83C4B49491868C6
:100B800003F0AAFC0223237002A8FFF7F9FC474AEE
:100B9000454B11880C224A431B68D2189A4201D156
:100BA0002B68B8E79968814200D15E600C33F5E7A5
:100BB0002E4E3F49306803F08FFC00253B4B3068D8
:100BC0001B889D420EDB3B4903F086FC344B1B78AF
:100BD000002B03D03849306803F07EFCFFF73AFE63
:100BE000052332E00C22304B6A431F680135BF18E1
:100BF00032492A0003F07DFC3868FFF737FB3049A3
:100C0000306803F053FC7868FFF730FB2D493068FB
:100C100003F04CFCB868FFF729FB306803F04AFC8E
:100C2000EDB2CBE7286803685B6998470F4D2868E9
:100C300003681B6998470028F4DC2349286803F0FF
:100C40004BFC286800F01EFB06232380E5E6C04627
:100C5000CC000020D8000020D0000020EC010020B3
:100C6000D4000020F4010020F8540008F001002016
:100C7000E8010020CD510008DA5100086801002089
:100C8000040000200052000810520008E854000838
:100C9000D8540008C85400081B52000834520008F9
:100CA000DA0000204D520008E4000020E00000209F
:100CB000B2520008EB520008F7520008CE5200086A
:100CC000DA520008E352000822530008C54E30688B
:100CD00003681B699847002800DC9EE630680368BB
:100CE0005B699847C0B2562837D04C2828D020D806
:100CF000202813D808280AD8002800D18DE6BA4940
:100D0000306803F0E9FB306800F0BCFA68E7B74BE5
:100D10000938C0B2C340DB07F1D57EE64328EED1E7
:100D2000B349306803F0D8FB306800F0ABFA082311
:100D30001BE0762811D0E2D86328F1D06C28DED1F0
:100D4000AC49306803F0C8FBAB49306803F0C4FB22
:100D5000306800F097FA092307E0A849306803F0EB
:100D6000BBFB306800F08EFA072300222380A44BDF
:100D70001A60A44B1D6050E6FFF756FB002800D018
:100D80004BE6FA219F4A89001368EB1A8B4200D286
:100D900043E61560FFF7EEFC924C206803F08AFBF7
:100DA000206800F06FFA964A13680133136034E646
:100DB000FFF73AFB041E00D02FE6924A1368EB1AA5
:100DC000632B00D829E68E4E156033680F221D0074
:100DD000DFB21540134229D18B4C012123681868DA
:100DE00003F096FA23680121586803F091FA23680A
:100DF0000121D86803F08CFA23680121186903F0F7
:100E000087FA23682900186803F0DEFA2368C821EE
:100E1000586803F01DFA2368C821D86803F018FA4F
:100E200029002368186903F0CFFA16E0022D23D1B8
:100E3000754DC8212B68186803F00AFA2B68210049
:100E4000586803F0C1FA2B682100D86803F0BCFA97
:100E50002B68C821186903F0FBF9FF0708D5FFF7D5
:100E600089FC604C206803F025FB206800F00AFA3A
:100E7000336801333360D0E5042D12D1624D010097
:100E80002B68186803F0A0FA2B682100586803F05B
:100E90009BFA2B682100D86803F096FA21002B6892
:100EA000C0E7052DD9D1584D01002B68186803F013
:100EB0002FFA2B682100586803F02AFA2B682100CA
:100EC000D86803F025FA2B682100186903F020FA8E
:100ED000C3E7444E306803681B69984700280FDD5C
:100EE000306803685B699847C0B258282AD05028F8
:100EF00031D01DD83E2831D047281FD03C2823D0E0
:100F0000FA21404AC9001368EB1A8B4200D284E5EB
:100F10003B4C156023683D4A5B089B009D58306838
:100F20006B1C2AD13A4903F0D7FA0023236074E5F9
:100F3000702810D0782805D06728E1D10122354BE0
:100F40001A70DDE73449DBE62D4A13681900481EA4
:100F500081415B1A136000222E4BF1E7284A2B498E
:100F60001368013313605B089B005958002301315B
:100F700000D11360274A1370C2E7284903F096FA9C
:100F80002800FFF773F92649306803F08FFA2368C9
:100F90002449DB0700D52449306803F09DFA306806
:100FA000012600F06FF90121280003F0B1F93100AA
:100FB00023682800994303F007FA642003F048FAF5
:100FC0000021280003F0A4F921682800314003F033
:100FD000FBF9104B1B78002B00D11EE523689B19F1
:100FE000A4E7C046F00100208954000813008000E7
:100FF00098530008EA530008325400087D53000853
:10100000D4000020D0000020E4000020680100206F
:1010100099540008000000202F510008AC5400082B
:10102000B5540008BD540008C254000800207047A1
:10103000020003006A32693311781B78994209D0A3
:101040003F211378C0181378293001330B40007802
:101050001370704701204042FBE7000002000300CC
:10106000693210786A331B784030C01A044B18403C
:1010700004D5402301385B42184301307047C04615
:101080003F00008072B60200002369326A3013709C
:10109000037062B67047030002006A336932197840
:1010A0001278914204D01B78C0182930007870471C
:1010B00001204042FBE7012A02D101600020704775
:1010C000022A05D0032AF9D0002AF7D10260F5E7F9
:1010D0000B680360F2E710B50368984710BD000085
:1010E000F0B5264F0D003B6889B08B4236D0244CBA
:1010F000200000F02DFB2000002D3BD000F0AAFDC9
:10110000032301266B430190039303990198FEF793
:10111000FDFF1C4A0290904222D83100200000F0CE
:10112000FBFC00222000029900F0C0FD00222000FC
:10113000110000F0E3FD00230593134B20000493FE
:10114000124B04A90793124B069300F0EFFE069B87
:10115000002B0AD1200000F0D7FB3D6009B0F0BDA4
:10116000019B76005B080193CFE704A903220800E6
:101170009847EFE700F09FFCEFE7C046F80100203A
:101180001C020020FEFF000089140008D710000890
:10119000B7100008010010B528310978C369026A48
:1011A000890705D59A620121408A03F0B1F810BD84
:1011B0009A61F8E7030010B528331978008A890787
:1011C000C90F023103F0A4F810BD0000030070B590
:1011D00028331B7804000E005B070FD50B4D002948
:1011E0000DD02B68834209D0FFF7E4FF0122084BA2
:1011F00052421A60074B03321A602C6070BD286897
:10120000A042FBD1FFF7C6FF2E60F7E710020020D7
:10121000080000200802002070B50D4D04002B6866
:101220000020A34213D10B4B19680029FCD12300E5
:1012300028331B785B0702D52000FFF7C7FF00218A
:10124000054B200029601960FFF74AFF012070BD9F
:1012500018020020140200201002002010B5040023
:10126000024B0360FFF7D8FF200010BDA85500080F
:1012700010B50400FFF7F2FF2000702100F0B8FE67
:10128000200010BDF8B5164F04003B680020A342B3
:101290001CD0144E3268002AFCD1002B02D018005A
:1012A000FFF7BAFF012501220F4B52421D600F4B81
:1012B0002000616A1A60FFF713FF230028331B78B0
:1012C0003C605B0703D40A4B1C600120F8BD336807
:1012D000002BFAD129002000FFF778FFF5E7C04680
:1012E000180200201402002008020020080000203C
:1012F00010020020F8B505000823040028352A78DC
:10130000144E13432B703368002BFCD14B0080210B
:10131000890019432A78104B1960920701D5C943F7
:101320001960002703220D4B20001F600C4B616ADF
:101330001A60FFF7D5FE2B785B0703D53900200034
:10134000FFF744FF08222B78012093432B70346071
:10135000F8BDC04614020020040200200002002054
:101360000C020020184A70B51168030001391160A1
:10137000002910DC154C2168481C206009290DDC6F
:101380001348DC6901681B6ACD0705D5A3610323F7
:1013900049080160136070BDA362F8E70121116084
:1013A0001A0028321278140703D50022094B1A605C
:1013B000F1E71928EFDD5207F7D5074A1068984280
:1013C000F3D1FFF703FFF0E70C020020000200203A
:1013D000040200201402002018020020274AF0B561
:1013E0001368013B1360002B36DC436981690600FA
:1013F0001B6928360B405B1A59424B41204C377809
:101400002168BD07B446DBB2ED0F4E1C0AD19D42E8
:1014100006D10023053111601A4A236013601BE0D6
:101420000123FBE707291CDD9D4211D001003F2568
:1014300069310B7801332B4005006A352D789D42C8
:101440000BD00D7840190F4D29302D6805700B70A9
:1014500001231360023B2360F0BD012361463B433F
:10146000F5E7084E306840089D4201D080231843BC
:101470000131032330602160D0E7C046080200201C
:1014800008000020FC010020074B10B51A68002A54
:1014900002D01868FFF7A2FF044B1A68002A02D096
:1014A0001868FFF75FFF10BD100200201402002033
:1014B000F0B585B00293FA230D0000219B008360F4
:1014C000694BEEB201904160036005824282262E94
:1014D0006FD86648B700E02338580C27DB002B4054
:1014E00003431809384272D0019841610F210B4023
:1014F0005F499B005B5801998B61D3B2262B71D851
:101500005A489F00E02138580C27C9001140014378
:101510000809384274D00020019CE0610F2001408E
:10152000534889000958019803930162002107007C
:101530004162A81A040060426041029C800064007D
:1015400004430F202837044023003C788443A446FA
:101550001C0063461C433C706924A446019C039B09
:10156000A444644621706A24A446019CA4446446B1
:101570002170019CE1663D49262B0BD9C021114009
:10158000C02911D1C92B0FD83F243A4B1440A400D5
:101590003649E3589B009C46E023DB00134062463B
:1015A000525813431B09184002F08EF8002832D11C
:1015B000FEE7C0232B40C02B0FD1C92E0DD83F27EB
:1015C0002C4B2F40BF00FF582848BF0083E70F2750
:1015D000294938408000415886E7002301994B6132
:1015E0000F3385E7C0211140C0290FD1C92B0DD879
:1015F0003F2720491740BF007F581C48BF0081E7A4
:101600000F241D4F20408000C05985E7002101981C
:10161000C1610F3184E73B785B0721D4262E09D8BE
:10162000124BB600F0580006000F02F04DF80028EB
:1016300016D1FEE7C0230F202B40C02BF5D1C92EB9
:10164000F3D8813B0B492B409B005B58E021074AB4
:101650009B009B58C9000D401D432D092840E4E71D
:10166000019805B0F0BDC046A8550008B458000860
:101670000C5600088C58000818000020030010B514
:10168000283341621B7804005B0708D4FFF782FD12
:101690002000FFF78FFD2000FFF7F4FD10BDFFF7DE
:1016A00079FDFBE710B5FFF7B7FD10BD10B5024897
:1016B000024900F0EFFB10BD1C0200200048014071
:1016C00010B5024800F05EFA10BDC0461C020020B2
:1016D00003000A4910B50868C318EFF30882934263
:1016E00005D90C220120064B40421A6010BD054A64
:1016F000054C121B9342F4D20B60F7E70C0000205C
:10170000780500200010002000040000FEE7000023
:1017100016220120014B40421A60704778050020D4
:1017200001207047836810B50400002B05D0032208
:10173000010098470023A360E36010BD836810B5E3
:101740000400002B02D0032201009847200010BDA6
:1017500070B50125022104000369DA68AA43DA6042
:10176000DA688A43DA60DA6849188A43DA60DA6844
:1017700004318A43DA60DA6808318A43DA60401853
:1017800001F0E2FB22691368AB4313602300553478
:101790004E331D705D709D70DD701D715D719D71AA
:1017A000257070BD4B1E032B02D88800043870478B
:1017B00001204042FBE700000139435C002B05D0CB
:1017C000054B022905D90120404204E00329FAD83B
:1017D000024B4900C85A7047E4550008DC55000820
:1017E0000139032902D8034B585C7047012040425D
:1017F000FBE7C046D85500080139032902D8034B3E
:101800005856704701204042FBE7C046D4550008B7
:10181000F7B504000E00FFF7C5FF0500431C00D11B
:10182000FEE731002000FFF7DBFF030001900133EA
:1018300000D1FEE731002000FFF7BEFF013000D1EC
:10184000FEE7B71D3F01E719BB68002B07D0019BDE
:101850002269DB431361D36801990B43D360731E84
:101860005A00A21890880C2810D8FEF731FC444486
:10187000131313070713133E3E3E1F002000E35CC3
:1018800029001030002B02D001F018FFF7BD01F045
:101890007FFEFBE72000E35C29001030002B02D024
:1018A00001F0D2FEF2E701F027FEEFE72000290069
:1018B000103001F071FE31002000FFF79DFF0100A4
:1018C00006002000FFF778FF25692B6A1843BB68E4
:1018D0002862002BDAD031002000FFF781FFC343DC
:1018E0002B61EB681843E860D0E720002900103036
:1018F00001F052FECAE723691B68DB07C6D420004B
:10190000103001F0F9FAC1E7836E10B50400002B26
:101910000AD00222036952421A61D96803320A438B
:10192000DA60103001F0E8FA20000121FFF770FFC3
:1019300020000221FFF76CFF20000321FFF768FF62
:1019400004212000FFF764FF10BD0000F0B591B046
:1019500004000E001F000192FFF724FF0500431C46
:1019600000D1FEE74D4B0993236900281BD15B6B27
:1019700001220A9300230692721E0392019A0B938E
:101980000D930E930C930F930593079308930C2AD2
:101990002AD81000FEF79CFB43112142494B5456B4
:1019A000585C5A636500042801D19B6BE0E7082866
:1019B00001D1DB6BDCE71B6CDAE77600A6197388D4
:1019C000002B08D0002320002A007380103009A9C2
:1019D000099301F02DFC11B0F0BD10232A000993EA
:1019E00009A9E01801F024FC039B019A5B00E318AD
:1019F0009A807B1CEFD0380002F0F6F8A8424CD158
:101A0000274D3800290001F057FF2900380001F068
:101A100080FF039BC002C00FE054DCE720232000BE
:101A20002A00099309A91030DCE73023F7E7602387
:101A300020002A0009A91030099301F01FFCD3E708
:101A40007023F5E75023EAE74023E8E702230593F4
:101A500020002A0005A9103001F098FCC4E70A23F1
:101A6000F5E7230010332A00180005A9029301F0BE
:101A70008DFC31002000FFF7BFFE0C22431E5B00EF
:101A8000E3189A8002230100200005930693FFF7D4
:101A900089FE05A902000298DEE7FEE7FFFF0000CD
:101AA00064560008013903000020032902D84900C8
:101AB0005B18988870470121026910B5D3686030BF
:101AC0008B43D360FFF72EFE10BD10B501211030FF
:101AD00001F050FA10BD03691868012318407047DF
:101AE00070B505000C00FFF7F6FF00280FD10126A6
:101AF000E36833420CD0E3682800B343E360FFF7A8
:101B0000E4FF02235B422361E3681E43E66070BD8D
:101B10002800FFF7DAFFFAE70B0010B50169013B77
:101B20008B62FFF7DDFF10BD0F4A030000209342D8
:101B300019D080220130D205934214D00B4A0130D3
:101B4000934210D00A4A013093420CD0094A013026
:101B5000934208D0084A9B185A4253415842074BB7
:101B60001840074BC0187047002C0140000400408B
:101B7000002000400044014000B8FEBF0600FFFF07
:101B8000FFFF000070B504000069FFF7CDFF0500FE
:101B90002000103001F058FF0022084BAD00EA5041
:101BA00026002500E260B0356036B54204D0103D15
:101BB0002800FFF7C3FDF8E7200070BDCC0200202D
:101BC000F7B5040008000D00FFF7AEFF1F4FB84245
:101BD00000D1FEE72369002B00D0FEE721001C4A5C
:101BE00080000C31815022002C32256126001370B8
:101BF000203223636363A363E36323646364A364A6
:101C00001370537003221036E3653000E460A26560
:101C100001F0B8FE23002500B033603501932800A1
:101C2000FFF780FD019B10359D42F8D10023236012
:101C30006360A3606361A3612362636280333000E9
:101C4000E761A36201F090FAF7BDC046FFFF000014
:101C5000CC02002010B586B004001022002102A89A
:101C600002F009FE002302A801A9019301F080F807
:101C7000206901F0B4FF012815D1059C01F068F836
:101C8000C023DB009C4206D007D88022064BD2003E
:101C90002340934205D1400003E0E023DB009C4257
:101CA000F9D006B010BDFEE7FFFEFFFF70B50500DE
:101CB0000C00012A0CD0022A18D023005A1E93418E
:101CC0002969E41A2800CC62EC61FFF709FF70BDB6
:101CD000FFF7C0FF0849FEF719FA60432B69010CB2
:101CE00099620131FEF712FA0400E6E7FFF7B2FF4E
:101CF0002100FEF70BFAF1E740420F00036970B5CF
:101D00009E6A05000C000136012A04D0022A0DD07B
:101D10002B695C6270BDFFF79DFF0749FEF7F6F97E
:101D200031006043FEF7F2F90400F1E7FFF792FF9C
:101D300021007143F6E7C04640420F00F7B50600A8
:101D400014001D00FFF72EFD336907009A6A411C3D
:101D500000D1FEE701320192822D30D01CD8102D27
:101D600008D8002D08D00121A940D86A01390130D6
:101D7000604320E0812D16D03169194ACB6A934225
:101D800003D10132944200D11C00002F1DD14C63BD
:101D90003000FFF7A5FEF7BD832DEDD1D86A642191
:101DA0000130604307E03000FFF754FF0D49FEF7B4
:101DB000ADF960430199FEF7A9F90400DCE73000B2
:101DC000FFF748FF01996143F5E7042F01D18C63C8
:101DD000DEE7082F01D1CC63DAE70C64D8E7C04610
:101DE000FFFF000040420F00044B10B518680028A8
:101DF00002D0043001F0D3F810BDC046CC02002060
:101E000010B5FFF7F1FF10BD044B10B5586800285E
:101E100002D0043001F0C3F810BDC046CC0200204F
:101E2000044B10B59868002802D0043001F0B7F8D0
:101E300010BDC046CC020020044B10B5D868002865
:101E400002D0043001F0ABF810BDC046CC02002037
:101E5000044B10B51869002802D0043001F09FF837
:101E600010BDC046CC020020044B10B558690028B4
:101E700002D0043001F093F810BDC046CC0200201F
:101E800010B50C220021040002F0F5FC0023200014
:101E9000E36010BDF8B50500070004000E006035D2
:101EA000B03728001035FFF7EBFFBD42F9D1002312
:101EB000310020002361FFF783FE2000F8BD70B5DC
:101EC0000C220D000021040002F0D5FC0023E36089
:101ED000AB68002B07D00222290020009847EB684E
:101EE000E360AB68A360200070BD70B586B06E463D
:101EF000040002AD2800FFF7E2FF290008223000AD
:101F000002F00EFD2B00220003CA03C3230006CEFD
:101F100006C3049BA268A360059B0492E2682800A4
:101F2000E3600592FFF70AFC06B070BD70B50400CF
:101F3000A36E0D006030002B02D0FFF7D6FF70BDFE
:101F4000FFF7D3FFAB68002BF9D00222236952427E
:101F50001A61D96803320A43DA60F0E7836810B582
:101F6000002B01D103F07CF8C368984710BD10B571
:101F7000002800D1FEE701F003FD0068836E002B0E
:101F800002D06030FFF7EAFF10BD10B5FFF7EFFF9A
:101F900010BD030010B5002800D1FEE7007F013816
:101FA000072812D8FEF794F8041611121111111413
:101FB0000124180001F0E4FC063400682401001933
:101FC0008368002B01D0FFF7C9FF10BD0324F0E7A1
:101FD0000424EEE70224ECE710B5FFF7DAFF10BDAA
:101FE00010B5FFF7D6FF10BD10B502F0DDFA10BD39
:101FF00010B502F0E3FA10BD7047000070B505009F
:10200000FA200D4B80001978FEF780F80B4C010088
:102010002068FEF77BF800F09FFB04000120002CF5
:1020200009D1032D07D802382200290000F05EFBF9
:102030002000034B1D6070BD1000002044000020F4
:10204000140000201023064A10B5116800200B432D
:102050001360FFF7D3FFFFF7CFFF002010BDC0468E
:1020600000200240034A044B11681B785B18136080
:102070007047C046E402002010000020014B1868A1
:102080007047C046E40200200422036870B59968D6
:102090000400114201D1002070BD9968114206D0A0
:1020A0009A68920703D4102299680A439A60FFF74E
:1020B000E5FF0426050023689B683342EBD0FFF759
:1020C000DDFF401B0228F6D923689B683342F2D01B
:1020D00010230120A26B1343A363E36B0343E36369
:1020E000DAE70321036870B59A6804000A40012A00
:1020F00001D0002070BD1968114202D1DA681204C3
:10210000F7D505229D681540012D1CD19968033A29
:102110000A439A6003221A60FFF7B0FF06002368A3
:102120009B682B42E5D0FFF7A9FF801B0228F6D958
:1021300023689B682B42F2D01023A26B1343A36346
:10214000E36B2B4306E01023A26B1343A36301232D
:10215000E26B13430120E363CCE70000002373B577
:1021600003210193036804009A680A40012A07D1F9
:102170001968114201D0002076BDDA681204FAD441
:1021800099681B4A114209D01023A26B1343A36321
:102190000123E26B13430120E363EDE70122996819
:1021A0000A439A60134B14491868FDF7AFFF01907A
:1021B000019B002B17D1FFF761FF01250600236863
:1021C0001B682B42D7D1FFF759FF801B0228F6D995
:1021D00023681B682B42F2D11023A26B1343A36325
:1021E000E36B2B43D7E7019B013B0193E0E7C0463C
:1021F000170000804400002040420F0070B5041E0C
:1022000000D190E0836B002B05D102003432C36310
:10221000137001F011FDA36BDB0600D585E0226889
:1022200093685B0700D580E0A16B424B19400633F1
:10223000FF330B430321A36393680B40012B05D1AC
:10224000116819420ED1D3681B040BD41821D3682E
:102250008B43A1680B43D360136961689B009B08A3
:102260000B431361D36834490B40D360237E607EF7
:102270009B03C0030343A17EE06803434803034379
:10228000601DC07F40000343A06A0138451EA8417D
:10229000000303432069023845426841800003433C
:1022A000E07E012804D100292BD1802149020B4373
:1022B000C220E169FF30814202D0206A01430B4312
:1022C0008020D16840051943D160E16A814202D083
:1022D000481E062807D8072550692940A8435061A1
:1022E000506901435161D26814490A409A4210D1A1
:1022F00000200323E063A26B9A43023B1343A363D2
:1023000070BD2021A56B2943A163E16B0843E06305
:10231000CEE71223A26B9A43023B1343A36301232C
:10232000E26B1343E3630120EAE71023A26B13433C
:10233000A363F8E7FDFEFFFF1902FEFFE7FF3F83FF
:1023400070B504000125002811D00223826B1343CD
:102350008363FFF799FE051E33D12000FFF7C1FE0E
:102360000500012805D101250023343423702800FD
:1023700070BD0123A3639F21236820005A688A430C
:102380005A601960DA6810490A400721DA601A6950
:10239000920092081A615A698A435A611A6A0B4973
:1023A0000A401A629A6A0A49D20CD2049A62094A0D
:1023B00013680B40136001F05FFC0023E363A36329
:1023C000D2E70128D7D1CEE700023E8300F000F02B
:1023D000FFFF3FFE08270140036870B59B680400BB
:1023E00002205B071AD4250034352B78012B15D039
:1023F00001232B70637E012B11D1A26B0B4B0020AC
:102400001A4080235B0013431C22A363E0632870FF
:1024100023681A609968183A0A439A6070BD2000D0
:10242000FFF79CFE0028E8D0F8E7C046FEF0FFFF6B
:1024300070B506003436337804000220012B12D028
:10244000012520003570FFF71FFE002809D120006C
:10245000FFF747FE002804D1A36B034A13401D4336
:10246000A5630023337070BDFEFEFFFFF8B545691C
:1024700004000E00082D0DD003680120DB680C2538
:10248000034207D02023A26B34341343636000233C
:102490002370F8BDFFF7F2FD070023681A681542A4
:1024A00022D08022A16B92000A43A263C022D96885
:1024B0001201114213D1A27E002A10D11A6812070C
:1024C0000DD59A68520727D40C215A688A435A605E
:1024D000A16B174A11400432FF320A43A263227EE5
:1024E000002A22D00020D4E7721CD7D0002E0DD1B4
:1024F0002A0023681B681A401D42CED10423A16B19
:1025000034340B43636003202270C2E7FFF7B6FD4B
:10251000C01BB042ECD8C0E72022A16B0A43A263E3
:102520000122E16B0A43E263D9E70C221A60D9E782
:10253000FEFEFFFF0368186C70470000F7B500222D
:1025400004000192343422780300C56A0220012A73
:1025500034D0013820701A689668760759D40B6811
:102560004F681E00BC462D4F9840103EBC453BD0E6
:10257000976A384390628020400585420FD0013D24
:10258000062D0CD90720556989680540A94206D057
:102590005569014085435561556929435161022EB2
:1025A00009D81F4A1168102B0CD0112B07D080239B
:1025B0005B040B431360002000232370FEBD8023C7
:1025C000DB03F6E780231B040B431360154B16490E
:1025D0001868FDF79BFD0A2343430193019B002BE1
:1025E000E9D0019B013BF8E7916A81439162022E99
:1025F000E1D80B4A1168102B09D0113B581E8341BA
:102600000A485B4203400A481B180B40D2E7094BBB
:10261000FBE72022996B0A439A63CDE70110000083
:10262000082701404400002040420F00000040FF06
:10263000FFFFBFFFFFFF7FFF806B7047F8B506000D
:102640003436337804000220012B45D001230321C6
:10265000337023689A680A40012A05D1196811422B
:102660003BD1DA68120438D4A16B1F4A11400632FC
:10267000FF320A430321A263DD68DA688A43DA6025
:102680008022996812060A439A60FFF7F7FC070058
:1026900023689A68002A0DDB0321DA680D40154390
:1026A000DD6001230020A26B8A431343A363002350
:1026B000337011E0FFF7E2FCC01B0228E8D9236861
:1026C0009B68002BE4DA1223A26B01209A43023BA1
:1026D0001343A36300233370F8BD2023A26B0120B2
:1026E0001343A363E3E7C046FDFEFFFF10B5FF24DD
:1026F00003220B0021000240D20091409B012340A5
:10270000C943934000280ADBC0240B4A800880009C
:102710008018A40002590A401343035110BD0F2230
:1027200010400838054A800880008018C2691140AE
:102730001943C161F2E7C04600E100E000ED00E0AE
:10274000002805DB1F2318401E3B8340014A13600D
:102750007047C04600E100E08022431E5204012081
:1027600093420DD2C021074A07485360036A090605
:102770001B021B0A0B4303620020072390601360B7
:102780007047C04610E000E000ED00E0704710B573
:10279000FFF7FCFF10BD704710B504000120002CAE
:1027A0001ED0637DDAB2002B03D120002275FFF723
:1027B000F2FF0223227963752368002A11D1013ABE
:1027C00060211A619A6800208A43E1680A438021E7
:1027D0009A609A688A4321690A439A600123637563
:1027E00010BDA268ECE70000044B10B55A69104216
:1027F00002D0586101F07CFB10BDC04600040140CE
:10280000F0B5040085B0002845D00368DB072FD45D
:1028100023689B0700D581E023681B0700D5BCE037
:1028200023685B0700D5DFE02368DB061AD5626901
:102830000423B44D012A00D048E1696B02270B4301
:102840006B636B6B1A436A63FFF718FC06006B6BD4
:102850003B4200D133E1F8216A6BA3698A43DB0074
:1028600013436B63236A002B00D057E100202AE05A
:102870000C22A44D6B681340042B06D06B681340E8
:10288000082B0AD16B68DB0307D52B689B03BFD5E8
:102890006368002BBCD1012015E06368012B14D1C3
:1028A00080232A685B0213432B60FFF7E7FB802736
:1028B0000600BF022B683B42AAD1FFF7DFFB801B5B
:1028C0006428F7D9032005B0F0BD002B16D12B6882
:1028D0008D4A802713402B602B688C4ABF0213401F
:1028E0002B60FFF7CBFB06002B683B4200D18FE744
:1028F000FFF7C4FB801B6428F6D9E3E7052B05D15D
:1029000080232A68DB0213432B60C9E72B687E4AC9
:1029100013402B602B687D4A1340C5E70C22794D8C
:102920006B68134206D06B681340082B10D16B689C
:10293000DB030DD42B689B0702D5E368012BAAD1DA
:10294000F8212A6823698A43DB0013432B6063E77D
:10295000E2680123002A0FD02A68022713432B6064
:10296000FFF78CFB06002B683B42E9D1FFF786FBA3
:10297000801B0228F7D9A5E72A6802279A432A6014
:10298000FFF77CFB06002B683B4200D144E7FFF7D2
:1029900075FB801B0228F6D994E7E2690123594DA3
:1029A000002A10D06A6A022713436B62FFF766FBA6
:1029B00006006B6A3B4200D032E7FFF75FFB801BEB
:1029C0000228F6D97EE76A6A02279A436A62FFF70D
:1029D00055FB06006B6A3B4200D121E7FFF74EFB37
:1029E000801B0228F6D96DE780220021454D520553
:1029F000EB690091134208D1EB691343EB61EB697A
:102A000013400393039B012300938027404E7F00D4
:102A100033683B4215D0A368012B22D12A6A1343A5
:102A20002B62FFF72BFB022706002B6A3B423FD0AD
:102A3000009B012B00D0F7E6EB69364A1340EB61AF
:102A4000F2E633683B433360FFF718FB01903368CD
:102A50003B42E0D1FFF712FB019BC01A6428F6D974
:102A600030E70122002B14D12B6A022793432B62FB
:102A70002B6A033293432B62FFF700FB06002B6A9D
:102A80003B42D5D0FFF7FAFA234B801B9842F6D988
:102A900018E7052B05D1296A013B0B432B622B6AF2
:102AA000BDE72B6A934304222B622B6A9343B7E75B
:102AB000FFF7E4FA184B801B9842B6D902E7FFF7FC
:102AC000DDFA801B022800D8C1E6FBE6053203D1FF
:102AD0006A6B9A436A63BEE66A6B0227134301225C
:102AE0006B636B6B93436B63FFF7C8FA06006B6B0A
:102AF0003B4200D1B6E6FFF7C1FA801B0228F6D9A7
:102B0000E0E6C04600100240FFFFFEFFFFFFFBFFB4
:102B100000700040FFFFFFEF881300000C21344DD0
:102B20006A680A40082A47D0324A022B32D12B6801
:102B3000802713402B60FFF7A1FA0600BF042B6823
:102B40003B4221D10F22EB6A80269343E26AB6040E
:102B50001343EB62616AA36A6A680B4326490A4021
:102B600013436B6080232A685B0413432B60FFF7D9
:102B700085FA04002B68334200D077E6FFF77EFA2F
:102B8000001B0228F6D99DE6FFF778FA801B022881
:102B9000D5D997E62B68802613402B60FFF76EFA95
:102BA0000400B6042B68334200D15FE6FFF766FAF3
:102BB000001B0228F6D985E6012B00D16BE68022A6
:102BC0006868616A5202EB6A02408A4200D062E69B
:102BD0000F221340E26A934200D05CE6F0239B038D
:102BE0001840A36AC01A431E9841C0B26BE6C046A3
:102BF00000100240FFFFFFFEFFFFC2FF0C2270B576
:102C00000C4D6B681A40082A11D10F200A499A0C02
:102C100002408C5CEA6ADB0307D508490240895C04
:102C20000748FDF773FA604370BD0648FBE70448A8
:102C3000FAE7C04600100240FA550008EA550008BD
:102C400000127A0000093D00F7B504000E000028CC
:102C500001D10120FEBD0122374D2B6813408B426C
:102C60001CD32268930722D4D2072FD401232A68C9
:102C70001A40B24251D82368304D5B0754D4FFF755
:102C8000BDFF6B682E4A1B061B0FD35C2D49D84035
:102C900008600020FFF7B2F90020DBE72B689343C0
:102CA0000B432B602B6813408B42D2D1D9E72349C9
:102CB000530704D5E0234868DB0003434B60F02052
:102CC0004B688343A06803434B60CDE71B4F6268AA
:102CD0003B68012A19D19B03BBD503217B688B4339
:102CE00013437B60FFF7CAF901900C237A681A40FE
:102CF00063689B009A42B9D0FFF7C0F9019BC01AE4
:102D0000114B9842F1D90320A4E7022A02D19B017A
:102D1000E3D49EE79B07E0D49BE72A689A432A60A6
:102D20002A681A42A7D094E76B68084A1340E26801
:102D300013436B60A3E7C04600200240001002402E
:102D4000545600084400002088130000FFF8FFFFDD
:102D5000044B054A5B6805495B055B0FCB5C10685B
:102D6000D840704700100240440000204C56000834
:102D7000072310B503240360094B5A6822404260C0
:102D80005A68ED3422408260E0225B68D200134032
:102D90000122C360034B1B6813400B6010BDC0468B
:102DA00000100240002002400122036A70B59343E4
:102DB0000362036A44688569723295430A68154361
:102DC000022293438A6813430D4A904205D00D4A6C
:102DD000904202D00C4A90420BD108229343CA6819
:102DE0008E69134304229343084A22404C693443BA
:102DF00014434A68446085614263036270BDC04603
:102E0000002C01400044014000480140FFFCFFFF4E
:102E1000036A174A70B5134003627323056A426858
:102E2000C4699C430B681C43124B1D408B681B02FA
:102E30002B43114DA8420ED1104D1D40CB681B02F3
:102E40002B430F4D2B400F4D4E6915408A6932437D
:102E500012012A4305E00C4DA842F4D00B4DA842C4
:102E6000F1D042604A68C461C263036270BDC0466B
:102E7000FFFEFFFFFFFDFFFF002C0140FFF7FFFFFC
:102E8000FFFBFFFFFFCFFFFF004401400048014070
:102E9000036A124A30B513400362046A104D436856
:102EA000C2692A400D682D0215430E4A14408A68F3
:102EB000120322430C4CA04205D00C4CA04202D07D
:102EC0000B4CA04204D10B4C1C404B699B0123438B
:102ED00043604B68C5610364026230BDFFEFFFFFD2
:102EE000FF8CFFFFFFDFFFFF002C0140004401408B
:102EF00000480140FFBFFFFF01000300012010B5A3
:102F00003D310C78E2B2844216D1001808701B687B
:102F10000B498B4206D08021C9058B4202D009495A
:102F20008B420AD107219A680A40062A03D001225F
:102F300019680A431A60002010BD1968F9E7C046F5
:102F4000002C0140000400400368084A196A11423D
:102F500007D1196A064A114203D101211A688A432E
:102F60001A6001233D3003700020704711110000EA
:102F700044040000020030B502243C3215780300FE
:102F80002000012D08D018003D3004701B685961E5
:102F9000012303700020107030BD7047704702227B
:102FA000036810B51969040011420ED0D9681142A6
:102FB0000BD0053A1A61043202779B699B0700D156
:102FC00079E0FFF70DF800232377042223681969BD
:102FD000114210D0D96811420DD0093A1A61073256
:102FE00022779A69C0239B0020001A4269D0FEF71D
:102FF000F7FF0023237708222368196911420ED0B6
:10300000D96811420BD0113A1A610D322277DB696F
:1030100020009B075BD0FEF7E3FF002323771022FD
:1030200023681969114210D0D96811420DD0213A94
:103030001A6119322277DA69C0239B0020001A42F4
:103040004BD0FEF7CDFF00232377012223681969B7
:10305000114207D0D968114204D0033A20001A6106
:10306000FEF793FF802223681969114208D0D968BE
:10307000114205D0023AFF3A20001A6100F023FB0A
:10308000402223681969114207D0D968114204D03F
:10309000813A20001A61FFF781FF20222368196915
:1030A000114207D0D968114204D0413A20001A6178
:1030B00000F008FB10BDFEF78FFF2000FFF76DFF4B
:1030C00081E7FEF789FF2000FFF767FF91E7FEF732
:1030D00083FF2000FFF761FF9FE7FEF77DFF2000E1
:1030E000FFF75BFFAFE7000010B5194C0368A04283
:1030F00006D08022D205904202D0164A904208D1D2
:10310000702293434A681343134A1A40CB6813430F
:1031100008E0124A9042F7D0114A9042F4D0114A86
:103120009042F1D0802293434A69134303608B6835
:10313000C3620B688362A04205D0094B984202D05B
:10314000084B984201D10B6903630123436110BD11
:10315000002C014000040040FFFCFFFF0020004065
:10316000004401400048014070B504000120002CDB
:1031700021D025003D352B78DAB2002B05D1230074
:103180003C3320001A7000F005FD02232B702068EC
:10319000211DFFF7A9FF22000123002046321370F2
:1031A0004534083A137053709370D3701371537190
:1031B000937123702B7070BD1022036A70B5934316
:1031C0000362056A154C4268836923400C68240237
:1031D0001C4320239D438B681B012B43104DA842A9
:1031E0000FD18025AB431E00CB68403D1B0133430C
:1031F000AB430C4D4E6915408A69324392002A4315
:1032000005E0094DA842F4D0084DA842F1D0426033
:103210004A6884618263036270BDC046FF8CFFFF11
:10322000002C0140FFF3FFFF004401400048014033
:1032300070B504003C34257803000220012D09D02C
:10324000082A17D007D8002A0BD0042A0ED0012054
:103250000023237070BD0C2AF9D11868FFF718FEFF
:1032600002E01868FFF7A0FD0020F1E71868FFF7FB
:10327000A3FFF9E71868FFF7CBFDF5E7F8B50600FF
:103280003C361500327803000C000220012A0AD0D7
:1032900001383070082D3FD006D8002D19D0042DEC
:1032A00029D000233370F8BD0C2DFAD11D682800F9
:1032B000FFF7EEFD8023EA691B011343EB61EB6925
:1032C0001D4A1340EB612369EA691B021343EB615A
:1032D0000FE01D682800FFF767FD0823AA69134364
:1032E0000422AB61AB699343AB61AB6922691343C1
:1032F000AB610020D5E71D682800FFF75DFF802344
:10330000AA691B011343AB61AB690B4A1340AB6164
:103310002369AA691B02EAE71F683800FFF778FDF6
:103320000422FB691D43FD61FB699343FB61FB695B
:1033300022691343FB61DCE7FFFBFFFFF0B50126C9
:103340001500026A0F4FB24302628269046AB842F2
:1033500014D08027FF05B84210D00B4FB8420DD0D3
:103360003243F025AA431B010F352B4013430A2299
:1033700094431140214383610162F0BD0326B243AF
:103380002A43EEE7002C0140000400400300F7B59B
:103390003C3301900C0019780220012918D0013823
:1033A0001870002A15D1019B62681E682168E368C5
:1033B0003000FFF7C3FF0C22B3699343B361B369D5
:1033C000A2681343B36100200023019D3C352B709C
:1033D000FEBD042A24D11027019B22681B68606867
:1033E0001E6AE168BE431E629F69354D00022F4090
:1033F0003843344F09073840090C0143A0201E6AA6
:10340000120186430240324399611A629A692E4939
:103410000A409A61A268996912020A439A61D2E746
:10342000082A25D10325019B284F1B6822681E6AA4
:1034300060683E40E1681E62DF690901AF433843BE
:10344000F027B8430F3739401E6A01432048D9613D
:103450003040A0260C2112023601324002431A628B
:10346000DA698A43DA61DA69A1680A43DA61AAE7AC
:103470000C2AA9D1019B174F1B6822681E6A60683D
:103480003E40E1681E62DF690D4D00022F40384367
:103490000C4F09073840090C1E6A01430E481203FD
:1034A0000640A020000202403243D9611A62DA6964
:1034B00005490A40DA61A268D9691202D5E7C04617
:1034C000FFFCFFFFFF0FFFFFFFF3FFFFFFFEFFFF0C
:1034D000FFF5FFFFFFEFFFFFFF5FFFFF1F2310B5AB
:1034E000012419408C408A40036AA3430362036AA3
:1034F0001A43026210BD00000300020010B500294B
:1035000005D13E320120147884420AD010BD04292E
:1035100001D13F32F6E7082901D04132F2E74032CB
:10352000F0E7022010701C6801222000FFF7D6FF90
:10353000134B9C421AD0134B9C420DD0124B9C4211
:103540000AD08023DB059C4216D10722A3681340D2
:10355000062B06D10020D9E78023626C1B0213439F
:1035600063640123226813432360F3E78023626CC2
:103570001B0213436364E8E7044B9C42E5D0F0E789
:10358000002C01400044014000480140000400407C
:1035900010B5FFF7B1FF10BD70B50300050000299D
:1035A00027D11C003E352E784234F0B22278D2B2B8
:1035B000012E34D1012A1BD102222A7022701C68EC
:1035C00001222000FFF78AFF164B9C4206D0802381
:1035D000DB059C4202D0144B9C4204D10722A36815
:1035E0001340062B03D001232268134323600020DD
:1035F00070BD042905D11C003F352E784334F0B24C
:10360000D4E7082905D01C0041352E784534F0B2A6
:10361000CCE71C0040352E784434F0B2C6E70120D8
:10362000E6E7C046002C0140000400401F2310B50F
:10363000042419408C408A40036AA3430362036A4E
:103640001A43026210BD00000300020010B50029F9
:1036500005D142320120147884420AD010BD0429D9
:1036600001D14332F6E7082901D04532F2E744326E
:10367000F0E7022010701C6804222000FFF7D6FF3C
:103680008023626C1B02134363640A4B9C4206D086
:103690008023DB059C4202D0074B9C4204D10722C9
:1036A000A3681340062B03D0012322681343236031
:1036B0000020D3E7002C01400004004010B5FFF7C4
:1036C000C3FF10BD704770471FB5002303280FD8F4
:1036D000164B80215A69FCF7FBFC020E1720890269
:1036E0000A435A615B690B400093009B9023DB0502
:1036F000180005B000BDC9020A435A615B690B405E
:103700000193019B0A4BF3E709030A435A615B6982
:103710000B400293029B074BEAE7C9030A435A6135
:103720005B690B400393039B034BE1E700100240EE
:1037300000040048000800480014004810B5FEF7D7
:103740009DFC10BD704710B5FEF78CFCFFF71FF80D
:10375000FFF7F8FF10BD704780210E4B4905DA696D
:1037600084B00A43DA61DA690A4001210192019AC0
:103770009A690A439A619A690A400292029A5A69BE
:103780003F310A435A615B690B400393039B04B0CA
:103790007047C0460010024010B5FFF7DDFFFEF78E
:1037A00051FCFFF7D8FF00F065FC0248FEF7F4FF7C
:1037B00010BDC04628000020431C04D100207047E3
:1037C000834204D00C310B685A1CF9D1F6E7012072
:1037D000F5E70000F7B506000C00431C00D1FEE73A
:1037E0000F210200334B0A40000992000840D558CF
:1037F000FFF76AFF29000322030069434A438068F8
:10380000D743104398600720204003282CD8FCF7AA
:103810005FFC422C02366004420E01924A0094463C
:10382000019A7F2A0ED0360711D50F265A6A10004A
:103830002A0A524352435643B0430600019842437A
:1038400016435E6260461A683A40024310E01A6A04
:103850000F2610000A004A435643B0430600019861
:10386000424316431E62EDE7FEE71A683A400A43F8
:103870001A60220712D55A682A435A6002E0186873
:1038800002431A60A406A40F012C0AD0022C0DD00A
:10389000DA683A4008E01A683A40F2E75A68AA4300
:1038A000EBE7DA683A400A43DA60F7BDDA684900C4
:1038B0003A40F8E70C56000810B5431C07D110BD7C
:1038C000834203D18968FFF785FFF8E70C310B6865
:1038D0005A1CF5D1FEE70B685A1C01D1002002E00A
:1038E000834201D1486870470C31F4E7002310B5DA
:1038F000421C02D0FFF7EFFF0300180010BD0300C9
:103900000868421C02D0984201D1886870470C3187
:10391000F6E710B5431C01D0FFF7F1FF10BD000022
:103920000121114B11481A680A431A605A68024073
:103930005A601A680E4802401A601A680D48024020
:103940001A605A680C4802400F205A60DA6A8243B3
:10395000DA621A6B094802401A635A6B8A435A6347
:10396000BF2212049A607047001002400CB8FF0892
:10397000FFFFF6FEFFFFFBFFFFFFC0FFECFEFFFFB8
:103980000438704703682A4A86B093420BD18021DD
:10399000284B09019A690A439A619B690B4000937D
:1039A000009B06B070478022D205934209D10121C5
:1039B000204BDA690A43DA61DB690B400193019B12
:1039C000EFE71D4A934209D102211A4BDA690A43F3
:1039D000DA61DB690B400293029BE2E7174A9342EC
:1039E0000AD18021134B4900DA690A43DA61DB69A5
:1039F0000B400393039BD4E7114A93420AD18021E1
:103A00000C4B89029A690A439A619B690B400493A3
:103A1000049BC6E70B4A9342C3D18021054BC902E0
:103A20009A690A439A619B690B400593059BB8E725
:103A3000002C014000100240000400400020004023
:103A400000440140004801400368184A934205D1F0
:103A5000174A184993690B40936108E08022D20508
:103A6000934205D10121124AD3698B43D361704738
:103A7000114A934203D10E4A0221D369F5E70F4A56
:103A8000934204D10A4A0E49D3690B40EEE70D4A2E
:103A9000934203D1064A0C499369DCE70B4A9342EF
:103AA000E5D1034A0A499369D5E7C046002C014095
:103AB00000100240FFF7FFFF00040040002000401C
:103AC000FFFEFFFF00440140FFFFFDFF00480140F3
:103AD000FFFFFBFF0300421C18D0114A904218D090
:103AE0000CD8104A904216D00F4A132093420CD0A3
:103AF00080220438D205934207D0FEE70B4A904259
:103B00000BD00B4A16209342F7D170470E2040424B
:103B1000FBE70D20F9E71020F7E71520F5E7C04691
:103B2000002C0140000400400020004000440140FF
:103B3000004801400300421C18D0114A904218D09E
:103B40000CD8104A904216D00F4A132093420CD042
:103B500080220438D205934207D0FEE70B4A9042F8
:103B60000BD00B4A16209342F7D170470E204042EB
:103B7000FBE70E20F9E71020F7E71520F5E7C04630
:103B8000002C01400004004000200040004401409F
:103B900000480140F8B50400FFF7F4FE2068FFF785
:103BA00099FFE26CA16CFEF7A1FD2068FFF792FF80
:103BB000FEF7C6FD27683800FFF7BCFF0500380098
:103BC000FFF788FF854209D02800E26CA16CFEF760
:103BD0008DFD2068FFF7AEFFFEF7B2FDF8BD0130A6
:103BE000431E9841C0B2704710B50649FFF791FED9
:103BF0000003C00E431E032B00D9FEE780000438EB
:103C000010BDC0466456000810B50449FFF781FE98
:103C10000003C00E122800D9FEE710BD08580008A6
:103C2000034BC318022B00D9FEE7024BC0187047A4
:103C3000FFEFFFFF0FF0FFFF07B50B4B02689A4243
:103C400009D18021094B89009A690A439A619B69CD
:103C50000B400193019B064B1868C30402D405492D
:103C6000FFF72AFE07BDC0460024014000100240B5
:103C70004800002008580008084B02689A420CD1FE
:103C80008022074B9200D9680A43DA60DA68054956
:103C90000A40DA609A690A409A617047002401403C
:103CA00000100240FFFDFFFFF0B599B04022040074
:103CB0000E0008A8002100F0DEFD0C22002105A85E
:103CC00000F0D9FD02AB9F1D00233B800493E30469
:103CD0006ED5404B9C426BD83F4B20000893FFF7BA
:103CE0009FFF0723050001931023082E06D0083BF1
:103CF0000A2E03D01033062E00D000238022120695
:103D0000099204220D92C2220A930023FF320F92DD
:103D1000A53AFF3A02A95218D377019A0B9313924E
:103D200015AA0C930E931093129316931493137079
:103D30002A4B08A81C60FEF761FA002847D10595B8
:103D4000122D44D801230693019B05A908A80793C7
:103D5000FEF7F4FB00283AD108A8FEF76FFC002814
:103D600035D108A8FEF738FB002830D10A2108A871
:103D7000FEF77CFB00282AD108A8FEF75DFC800531
:103D800004D508A8FEF7D6FB80B2388008A8FEF755
:103D90004FFB00281BD108A8FEF7D2FA002816D145
:103DA0000F4A104913680B401360388880B20FE047
:103DB0000D492000FFF79AFD04A908902000FFF7A5
:103DC00023FF0222089B05000192002B8CD10020CA
:103DD00019B0F0BD0310000000240140480000208D
:103DE00008270140FFFF3FFE08580008F0B5234EAA
:103DF00085B001913100039302920400FFF776FD34
:103E0000FDF792FE1E4F8500EB59002B0ED1B0201E
:103E1000FEF7EAF8310000902000FFF767FD01008F
:103E20000098FEF737F8EB59009A1A60144B3100EE
:103E30005B5920001F68FFF76CFD0503ED0E29009C
:103E40003800FDF72FFE0600052805D023000522C7
:103E500029003800FDF77AFD022238000199FDF7AC
:103E600025FF29003800039B029AFDF767FF052E06
:103E700002D03800FDF748FD05B0F0BD64560008DB
:103E8000CC020020F7B5134B060019000193FFF791
:103E90002DFDFDF749FE104F8400E359002B0DD195
:103EA000B020FEF7A1F8019905003000FFF71EFDD4
:103EB00001002800FDF7EEFFE3591D603B591C6827
:103EC000002C06D02000FDF75DFEB0212000FEF79B
:103ED0008FF8F7BD64560008CC02002010B50C2204
:103EE0000021040000F0C7FC0023E36010BD0000C7
:103EF000002310B501280BD114225A43064B101D84
:103F0000C0188168002902D09B181B69984710BD12
:103F100001334008DBB2EDE7E802002010B50120D4
:103F2000FEF762FC0220FEF75FFC10BD10B5042016
:103F3000FEF75AFC0820FEF757FC10BD70B50C24A4
:103F40001025A8B2013CFEF74FFC6D00002CF8D103
:103F500070BD0000F8B505252E4F2F4C3800257098
:103F6000FFF7BCFF2D4E25753000FFF7B7FF23008C
:103F7000013528332A481D70FFF7B0FF2300294878
:103F80003C331D70FFF7AAFF23000135503326484C
:103F90001D706037FFF7A2FF24483D706036FFF7C1
:103FA0009DFF23483570FFF799FF230021488C338C
:103FB0001D70FFF793FF23001F48A0331D70FFF70C
:103FC0008DFF23001D48B4331D70FFF787FF2300CA
:103FD0001B48C8331D70FFF781FF23001948DC33ED
:103FE0001D70FFF77BFF23002600F03316481D707D
:103FF000FF36FFF773FF15487571FFF76FFF144821
:104000007576FFF76BFF962312485B00E554FFF7C8
:1040100065FFF8BDEC020020E8020020000300204C
:1040200014030020280300203C030020500300203C
:1040300064030020780300208C030020A0030020EC
:10404000B4030020C8030020DC030020F00300209C
:10405000040400201804002010B5044C143C201D5A
:10406000FDF76CFB024B9C42F8D110BD28040020E8
:10407000E802002070B5102690B02C22002105A87F
:1040800000F0F9FB32000021684600F0F4FBA023A9
:10409000022401259B0304A80494079508960C9418
:1040A0000E93FEF7ADFB002800D0FEE70723029039
:1040B00003902900684600930194FEF7C5FD00288F
:1040C00000D0FEE710B070BD0D488546FFF728FC14
:1040D0000C480D490D4A002302E0D458C450043363
:1040E000C4188C42F9D30A4A0A4C002301E0136039
:1040F0000432A242FBD300F0EDFB00F044FAFEE7ED
:104100000010002000000020B0000020A45900088A
:10411000B000002080050020FEE70000FF23F0B57E
:10412000050002001D40092D16D8E021254CAD00E8
:104130002D59C900084028430340262B24D9C02507
:104140000540C02D01D1C92B31D91300CA3B022B28
:1041500035D81D4BD0181EE0C0260640C02EF4D125
:10416000C92DF2D807003F21E024164D0F40BF00B3
:104170007F59E400204038430340262B0CD81349D4
:104180009B00CB58204003E0104C9B001B5908407B
:104190001843431CD9D0F0BD0640C02ED5D1C92B41
:1041A000D3D8014089004959084B8900E9E73F23EA
:1041B00003409B001B59054D9B005B59E7E701201D
:1041C0004042E8E78C580008370F0000B458000858
:1041D000C022030002400120C02A0AD00022064962
:1041E000DBB290000858984204D001320A2AF8D174
:1041F000002070470120FCE78C580008914208D04D
:1042000008D90123891A8B40984209D30130C8404C
:10421000013870470028FCD00130521A9040F7E76F
:104220000020F6E710B5FFF779FF0023421C09D004
:10423000054C2168FFF738FD044B21681A68FFF729
:10424000DDFF0300180010BD580000205C000020B6
:10425000F7B5C3B20500274A0191262B0BD9C0221E
:104260000240C02A33D1C92B31D83F232249034011
:104270009B00204A5B58E0249B009B58E4002C40A4
:104280001C43631C23D020001C49FFF795FA1C4FE8
:10429000061E1DD00F2123090B401A489B001D58F4
:1042A00021402E000122CE40164202D18A402A43EC
:1042B0001A50154B39681D6801982A00FFF79EFFB8
:1042C0001249020009682000EBB2FFF78FFDF7BD2D
:1042D0000121280000F01CF8396808220198FFF736
:1042E0008DFF31007F2800D90121280000F06CF8F3
:1042F000EDE7C046B45800088C5800086456000822
:104300005400002028040020500000204C00002011
:10431000F7B5C3B204000191262B29D8E022264923
:104320009B005C58D20002401443631C37D00F2618
:1043300025093540214FAD00EB592640F340DB07FE
:104340000DD520001E49FFF737FA002802D02000C3
:10435000FFF798FD0122B2407B5993437B51019BAB
:10436000052B27D81800FBF7B3FE16211B1D1F23B2
:10437000C0220240C02A12D1C92B10D83F231149B4
:1043800003409B005B58E0210B4A9B009B58C900EF
:104390000C401C43C9E700212000FFF71BFAF7BDC2
:1043A0001021F9E72021F7E70321F5E70121F3E7E1
:1043B0000921F1E7FEE7C046B458000828040020B0
:1043C000645600088C580008C3B210B5262B19D8C3
:1043D000E022194C9B00D2000240185910430C24D3
:1043E00003090022234204D10334144A23409B00D2
:1043F0009A580F24124B20408000C358002918D02F
:10440000936110BDC0220240C02A0ED1C92B0CD826
:104410003F230C4C03409B001B59E024064A9B00A1
:104420009B58E40020401843D9E701200022404275
:10443000DFE79362E5E7C046B458000818000020A3
:104440000C5600088C58000810B5FFF777F910BD1E
:1044500070B5041E09D0FFF771F9050000F0A1F84E
:10446000FFF76CF9401BA042F8D370BDF8B505000A
:104470000F0016000024B44201D12000F8BD2B68C3
:104480002800395D1B6898470028F6D00134F2E710
:1044900070B505000C00081E07D0FBF711FE2B6855
:1044A0000200210028005B68984770BD10B5FFF737
:1044B000EFFF10BD10B50249FFF7EAFF10BDC0467F
:1044C0005059000870B50400FFF7E2FF0500200016
:1044D000FFF7F0FF401970BD10B5FFF7F3FF10BDF7
:1044E00010B51400022802D903685B6898472000C1
:1044F00010BD0EB403B503AA02CA019200F06CF914
:1045000002B008BC03B0184710B50400FFF79CFFC9
:10451000E060236820005B699847002808DAFFF70D
:1045200093FFE368C01AA3689842F2D30120404287
:1045300010BDF8B506000F0015000024AC4201D1F3
:104540002000F8BD3000FFF7DFFF0028F8DB38550A
:104550000134F3E7F7B50F0016001D001C1E019093
:104560000BD000240198FFF7CFFF002805DBB842ED
:1045700003D030550134A542F4D12000FEBD10B562
:1045800000F00BF810BD10B500E000BFFCF73AF8E2
:10459000FCF7C0F900F006F8FAE710B5FFF7FCF8F1
:1045A00010BD70477047000010B5034B010018683C
:1045B00000F030F810BDC0466000002010B5034B7D
:1045C0000100186800F0B6F910BDC0466000002078
:1045D00070B50F4E0D0031680400002902D100F0C3
:1045E00053F930602900200000F04EF9431C03D13C
:1045F00001256D42280070BD0323C51C9D43A842C0
:10460000F8D0291A200000F03FF90130F2D1EFE78D
:10461000380400200323F7B5CD1C9D430835060060
:104620000C2D34D20C25A94233D8300000F06CF8A0
:10463000344F3B681C00002C2FD129003000FFF7BD
:10464000C7FF0400431C58D13C682100002949D110
:10465000002C4CD023683000E318019300F014F9CB
:10466000019B834243D123683000ED1A2900FFF7F4
:10467000AFFF01303BD023685B1923603B68002B00
:104680003DD05A68A24230D100225A6012E0002D7B
:10469000C9DA0C2333600020FEBD2168491B1ED4FB
:1046A0000B2917D962192560A34211D13A606368BA
:1046B00011605360300000F02FF8200007220B300B
:1046C000231D9043C21A9842E6D01B1AA350E3E779
:1046D0005A60ECE76268A342D7D13A60EAE7230068
:1046E0006468A8E70C004968B0E71300C7E70C232B
:1046F0003000336000F010F8CDE70560DAE75B606A
:10470000FFDEC0463C04002010B5024800F006F968
:1047100010BDC0467C05002010B5024800F0FFF82F
:1047200010BDC0467C050020F7B506000C00150042
:10473000002905D11100FFF76DFF04002000FEBD28
:10474000002A03D100F0F6F80024F7E700F03CF966
:104750000700854202D84308AB42EFD3290030005E
:10476000FFF758FF01900028EED02A00BD4200D983
:104770003A002100019800F0D3F82100300000F049
:10478000D9F8019CDAE70000F0B50E008021114C49
:104790008900A54404AF039100933900130003AAD4
:1047A000050000F025F8041E11D002003100280099
:1047B000039B00F07BF80390BC4203D0210028004B
:1047C00000F0B8F8039885239B009D44F0BD0120BC
:1047D0004042F8E7ECFDFFFF10B5044C13000A005F
:1047E00001002068FFF7D0FF10BDC0466000002028
:1047F00070B514000D001A0021689AB0002D1AD06F
:10480000002918D0C1236E46DB00B38100950495C2
:10481000002918DB01230291059169465B42CB8197
:104820001E9B00F039F900280FDB0022009B20605E
:104830001A7004980AE0A22369469B008B8100212C
:1048400000910491E6E78B23036000201AB070BD4D
:1048500010B5884206D800239A4208D0CC5CC454D4
:104860000133F9E78B189842F5D2013A00D210BD16
:104870008B5C8354F9E703008218934200D17047A0
:1048800019700133F9E70000002370B5064D0400EC
:1048900008002B60FCF71CFF431C03D12B68002B86
:1048A00000D0236070BDC0467805002070B50400BC
:1048B000080011001A000023054D2B60FFF710FEC1
:1048C000431C03D12B68002B00D0236070BDC04671
:1048D0007805002070B500260C4C0D4D641BA4100B
:1048E000A64209D1002600F0BFFB0A4C0A4D641B0A
:1048F000A410A64205D170BDB300EB58984701360D
:10490000EEE7B300EB5898470136F2E78859000804
:10491000885900089859000888590008704770475E
:10492000002310B59A4200D110BDCC5CC4540133B1
:10493000F8E7000070B505000C1E10D0043C236899
:10494000002B00DAE4182800FFF7DEFE1D4A13688A
:10495000002B05D1636014602800FFF7DDFE70BDF9
:10496000A34208D9206821188B42F3D119685B68EB
:1049700009182160EEE71A005B68002B01D0A34202
:10498000F9D911685018A0420BD1206809185018A5
:1049900011608342E0D118685B6841181160536070
:1049A000DAE7A04202D90C232B60D5E72068211852
:1049B0008B4203D119685B680918216063605460F9
:1049C000CAE7C0463C0400200B1F1B68181F002BC1
:1049D00001DA0B58C0187047F0B58E6885B01F001B
:1049E0000C000B6802900392BE4230D80C21625E2C
:1049F0009021C9000A4228D0032021695B1A019343
:104A0000636943430198DD0FED187B1C1B186D1083
:104A1000AB4200D91D00520528D529000298FFF7A6
:104A2000F9FD061E2CD0019A2169FFF779FFA289B2
:104A3000184B1A4080231343A381019B2661F6186B
:104A400026603E006561ED1AA560BE4200D93E00B9
:104A5000320003992068FFF7FBFE0020A3689B1B30
:104A6000A36023689B19236005B0F0BD2A0002985B
:104A7000FFF75AFE061EE0D121690298FFF75AFFA0
:104A80000C230120029A40421360A289343313435D
:104A9000A381E9E77FFBFFFFF0B5A1B003901D0004
:104AA0008B890F0016001B0611D50B69002B0ED148
:104AB0004021FFF7AFFD38603861002805D10C2395
:104AC000039A136001204042CFE040237B61002322
:104AD00008AC6361203363761033A3760795350005
:104AE0002B78002B01D0252B48D1AB1B0593B54269
:104AF0000BD0320039000398FFF76EFF013000D170
:104B0000AEE06369059A9B1863612B78002B00D196
:104B1000A6E0012200235242626004A954325218D6
:104B20006E1C2360E360A3601370A365544B0522E1
:104B300018003178059300F037FA751C00281FD152
:104B40002268D30604D5532304A95B1820211970C9
:104B5000130704D5532304A95B182B21197033784C
:104B60002A2B16D0350000210A20E3682A786E1C13
:104B7000303A092A50D9002911D117E00135AFE7A1
:104B8000059B2268C01A0123834013432E00236033
:104B9000CCE7079B191D1B680791002B01DB0B93CA
:104BA00004E05B42E3600223134323602B782E2B47
:104BB0000CD16B782A2B34D1079B02351A1D1B6848
:104BC0000792002B01DA01235B4209932D4E032249
:104BD0003000297800F0E8F9002806D04023801B37
:104BE0008340226801351343236029780622264832
:104BF0006E1C217600F0D8F9002838D0234B002B0A
:104C000022D10722079B0733934308330793636935
:104C1000049A9B18636162E74343350001219B18A6
:104C2000A4E700230A201900013563602A786E1C6E
:104C3000303A092A03D9002BC8D00991C6E741436D
:104C4000350001238918F1E707AA009221003A00F4
:104C50000F4B039800E000BF0490049B0133D6D1B2
:104C6000BB890D985B0600D52CE721B0F0BD07AAE3
:104C7000009221003A00064B039800F07BF8EBE726
:104C800053590008595900085D59000800000000F8
:104C9000D9490008F7B5160001938A680B690C0022
:104CA0000090934200DA13002200336043321278FE
:104CB000002A01D00133336023689B0602D5336894
:104CC000023333602268062315001D401A4227D0A4
:104CD000230043331B785A1E93412268920630D436
:104CE000220001990098089D4332A847013025D041
:104CF0000622236800251340042B05D13368E5689C
:104D0000ED1AEB43DB171D40A3682269934201DDD6
:104D10009B1AED180026B54220D1002010E0013585
:104D2000E36832689B1AAB42D2DD2200012301996D
:104D30000098089F1932B8470130F0D10120404255
:104D4000FEBD3020E1184331087021005A1C453166
:104D50000978A218433202331170C1E722000123FF
:104D600001990098089F1A32B8470130E6D0013601
:104D7000D1E70000F0B58BB006920A0043320793EA
:104D8000059004920A7E0C00109B782A09D8622AAA
:104D90000BD8002A00D1C8E081490391582A00D1DC
:104DA0009CE0250042352A7022E010006338152867
:104DB000F7D8FBF797F916001F00F6FFF6FFF6FF8E
:104DC000F6FF1F00F6FFF6FFF6FFF6FFAD004F00FF
:104DD0008C00F6FFF6FFBE00F6FF4F00F6FFF6FF71
:104DE000900025001A684235111D196013682B7058
:104DF0000123ACE018680968021D0D061FD506687E
:104E00001A60674A0A2761680392002E35DA230088
:104E10002D2043331870A160002916DA0A27764244
:104E20000392049D30003900FBF7F6F9039B013D26
:104E30005B5C2B70330006009F42F3D92AE00668C2
:104E40001A604906DDD536B2DBE7042123688B43BF
:104E50002360E3E70868196840C9050602D44006E4
:104E600000D5B6B219604E4B0A2703936F2A00D1C2
:104E7000023F2300002243331A706368A360002BB3
:104E8000CFDB042122688A432260002EC9D1049D11
:104E9000002BC6D1082F09D12368DB0706D562682D
:104EA00023699A4202DC3023013D2B70049B5B1B7B
:104EB0002361079B210000930598069B09AAFFF731
:104EC000E9FE013048D1012040420BB0F0BD202264
:104ED00009680A4322607822324903912100453152
:104EE0000A701968226840C9100602D4500600D51D
:104EF000B6B21960D30702D5202313432360002ED6
:104F000001D01027B5E72022236893432360F8E7F8
:104F10001A680D68101D4969186013682E0601D5BE
:104F2000196002E06D06FBD519800023049D236102
:104F3000BFE71A68111D1960156800212800626812
:104F400000F032F8002801D0401B606063682361E4
:104F50000023049A1370ACE72A0023690699059888
:104F6000079DA8470130AED023689B0715D4099B45
:104F7000E0689842A9DA1800A7E722000123069901
:104F80000598079E1932B04701309CD00135E3687F
:104F9000099A9B1AAB42F0DCE9E70025F7E7C04627
:104FA0006459000875590008C9B28218904201D1AD
:104FB0000020704703788B42FBD00130F6E70620D3
:104FC00010B500F02DF80120FCF7A0FB70B504002F
:104FD0000D001F2904D9162303600120404270BD33
:104FE000C36B002B04D08A009B181A68002A08D1D2
:104FF000200000F031F82A000100200000F01AF82B
:10500000EDE7012A09D0511C03D1162303600120CA
:10501000E5E700212800196090470020DFE7000045
:1050200010B5034B01001868FFF7D0FF10BDC04654
:1050300060000020002370B5064D04000800110038
:105040002B60FCF765FB431C03D12B68002B00D0C1
:10505000236070BD7805002010B5FCF761FB10BD22
:1050600010B5FFF7ACFF0000F8B5C046F8BC08BCAF
:105070009E467047F8B5C046F8BC08BC9E467047CF
:105080005041300050413100504132005041330016
:1050900050413400504135005041360050413700F6
:1050A00050413800504139005041313000504131B9
:1050B00031005041313200504131330050413134E0
:1050C00000504131350050423000504231005042D2
:1050D00032005042330050423400504235005042BA
:1050E000360050423700504238005042390050429A
:1050F00031300050423131005042313200504231A3
:105100003300504231340050423135005043313386
:105110000050433134005043313500504630005088
:105120004631005046360050463700503F3F00732E
:105130006561726368206578697400203D202535BB
:1051400064203B20006974206973206C696B656C76
:105150007920746861742000206973207468652068
:1051600063757272656E742073656E73696E672005
:1051700070696E2C20616E64200020697320746851
:105180006520766F6C746167652073656E73696EF8
:10519000672070696E00756E61626C6520746F20A7
:1051A0006175746F6D61746963616C6C792064659D
:1051B000746563742074686520616E616C6F67202C
:1051C00073656E73696E672070696E730052432059
:1051D000696E7075742069732000202D2073656ED0
:1051E00064205C6E20286F7220454E544552206B1F
:1051F00065792920746F20636F6E74696E75650020
:105200007465737420636F6E74696E75696E670080
:1052100070696E206C6973743A20007374617274E3
:10522000656420746F20746573742048494E207043
:10523000696E73007374617274656420746F207496
:10524000657374204C494E2070696E73005741524B
:105250004E494E473A2072656164696E6773206DEE
:10526000616B65206E6F2073656E73652C206973AA
:1052700020746865206D6F746F7220636F6E6E6549
:10528000637465643F20706C65617365206D616B4C
:1052900065207375726520746865206D6F746F7218
:1052A00020697320646973636F6E6E6563746564EF
:1052B0002E0070686173652070696E206D61746383
:1052C00068696E6720726573756C74733A0009259E
:1052D00064203A2048494E2D3E00202C204C494E57
:1052E0002D3E00202C2046422D3E00656E64206F2E
:1052F00066206C697374005741524E494E473A20FC
:10530000746865736520726573756C7473206D6164
:1053100079206E6F742062652076616C696421214A
:105320002100656E74657220636F6D6D616E64201F
:105330006B65792C206F6E65206F663A20562028A9
:10534000766F6C74616765206D6F6E69746F72291A
:105350002C2043202863757272656E742073656E0D
:10536000736F72206D6F6E69746F72292C204C20E0
:10537000284C45442073656172636829006D6F6E27
:1053800069746F72696E6720414443732C20582002
:10539000746F2071756974006D6F6E69746F7269D6
:1053A0006E672041444373207768696C652061749F
:1053B00074656D7074696E6720746F2064726177B4
:1053C0002063757272656E742C20706C65617365F4
:1053D00020636F6E6E656374206D6F746F722C2026
:1053E0005820746F20717569740073656172636809
:1053F000696E67204C45442070696E2C20582074DB
:105400006F20717569742C205020746F2070617545
:1054100073652C204720746F20636F6E74696E75FE
:10542000652C203C20616E64203E20746F206E61EC
:105430007600696620796F752073656520746865EC
:10544000204C45442061637475616C6C7920626CFA
:10545000696E6B2C207468656E20707265737320A2
:105460002750272C20616E642075736520273C2708
:10547000206F7220273E2720696620796F75206D86
:10548000697373656420697400696E76616C696420
:1054900020636D64206B6579004C45442073656121
:1054A000726368206C6F6F70696E67004C454420B2
:1054B00070696E200020626C696E6B20004849475D
:1054C00048004C4F5700000023000000240000005B
:1054D000C5000000FFFFFFFF1E0000001D000000D0
:1054E0001F000000FFFFFFFF0A000000090000008E
:1054F00008000000FFFFFFFFC2000000FFFFFFFFEA
:10550000C0000000C1000000C2000000C300000095
:10551000C4000000C5000000C6000000C700000075
:1055200008000000090000000A0000000B00000055
:105530000C0000000D0000000E0000000F00000035
:10554000C8000000C90000001200000013000000A5
:1055500014000000150000001600000017000000F5
:1055600018000000190000001A0000001B000000D5
:105570001C0000001D0000001E0000001F000000B5
:105580002000000021000000220000002300000095
:10559000240000002500000026000000FFFFFFFFA0
:1055A0000000000000000000F51200086D44000833
:1055B0002D100008851000085D100008311000084B
:1055C0009710000833450008554500085D12000893
:1055D0007112000802010403020408100100100007
:1055E000000100100400400000040102030405064D
:1055F0000708090A0B0C0D0E0F100203040506071D
:1056000008090A0B0C0D0E0F10100000010000001D
:10561000020000000400000008000000100000006C
:105620002000000040000000800000000001000099
:10563000000200000004000000080000001000004C
:10564000002000000040000000800000000000007A
:105650000102030400000000000000000102030436
:105660000607080900000000000000401282000048
:1056700001000000000000401202010002000000D2
:105680000000004012820100030000000000004002
:1056900012020200040000000020004012840000FA
:1056A000050000000000004012820000060000001B
:1056B0000004004012810000060100000044014087
:1056C0001285000007000000002C0140128210002B
:1056D0000701000000040040120101000702000061
:1056E0000020004012840000070300000048014031
:1056F0001285000008000000002C0140128200000A
:1057000009000000002C0140120201000A00000004
:10571000002C0140128201000B000000002C01400F
:10572000120202000F000000000000401282000080
:1057300010000000002C01401202110010010000B6
:10574000000400401281010011000000002C014003
:105750001282110011010000000400401201020039
:105760001102000000200040128000001300000021
:10577000000000401202010014000000000400407C
:105780001281000015000000000400401201010019
:1057900016000000004401401282100017000000B3
:1057A000004801401282100018000000004401402F
:1057B000128200001900000000480140128200001F
:1057C0001A00000000000040128201001B000000CF
:1057D00000000040120202001D000000002C0140E9
:1057E000128210001E000000002C01401202110065
:1057F0001F000000002C014012821100FFFFFFFF7C
:105800000000000000000000000000000024014033
:10581000030000000100000000240140038000009C
:10582000020000000024014003000100030000000A
:105830000024014003800100040000000024014016
:105840000300020005000000002401400380020064
:1058500006000000002401400300030007000000D0
:1058600000240140038003001000000000240140D8
:105870000300040011000000002401400380040024
:10588000FFFFFFFF0000000000000000000000001C
:1058900001000000020000000300000004000000FE
:1058A00005000000060000000700000010000000D6
:1058B00011000000000000000100000002000000D4
:1058C00003000000040000000500000006000000C6
:1058D0000700000008000000090000000A000000A6
:1058E0000B0000000C0000000D0000000E00000086
:1058F0000F00000010000000110000001200000066
:105900001300000014000000150000001600000045
:105910001700000018000000190000001A00000025
:105920001B0000001C0000001D0000001E00000005
:105930001F0000002D0000002E0000002F000000BE
:105940003000000031000000360000003700000089
:105950000D0A00232D302B2000686C4C0065666713
:1059600045464700303132333435363738394142D5
:1059700043444546003031323334353637383961A7
:0859800062636465660000002B
:105988007F4500084D020008AD160008553F000885
:0C59980025020008C11600085940000854
:1059A40001000000FFFFFFFFFFFFFFFF8005002055
:1059B400010000000400000000000048000400484A
:1059C40000080048001400480030024000000000B5
:1059D40000000000000000000000000000000000C3
:1059E4000100000000127A00FFFFFFFFE80300003F
:1059F40008000000080000000A0000000A0000007F
:105A0400640000200000000040040020A8040020DE
:105A1400100500200000000000000000000000004D
:105A24000000000000000000000000000000000072
:105A34000000000000000000000000000000000062
:105A44000000000000000000000000000000000052
:04000005080040C9E6
:00000001FF
